{
  "transactions": [
    {
      "hash": "0xfff5d433de10439cc245cbde01c674b38703b6030351eae9f8c7e3b6506aae98",
      "transactionType": "CALL",
      "contractName": null,
      "contractAddress": "0x481a61fb7c9eaddd5069fe2f6134b22ab8ee6489",
      "function": "mint(address,uint256)",
      "arguments": [
        "0x34501EE677d8180522730e78C213Fec1b53Be5F0",
        "10000000000"
      ],
      "transaction": {
        "from": "0x34501ee677d8180522730e78c213fec1b53be5f0",
        "to": "0x481a61fb7c9eaddd5069fe2f6134b22ab8ee6489",
        "gas": "0xbfe4",
        "value": "0x0",
        "input": "0x40c10f1900000000000000000000000034501ee677d8180522730e78c213fec1b53be5f000000000000000000000000000000000000000000000000000000002540be400",
        "nonce": "0x2b",
        "chainId": "0xaa36a7",
        "accessList": null,
        "type": null
      },
      "additionalContracts": [],
      "isFixedGasLimit": false
    },
    {
      "hash": "0x02e9d5568bcbd23c5aedf6a8901880fe152e89837980bd6106e91848b65b768e",
      "transactionType": "CALL",
      "contractName": null,
      "contractAddress": "0x481a61fb7c9eaddd5069fe2f6134b22ab8ee6489",
      "function": "approve(address,uint256)",
      "arguments": [
        "0x5803CdB747e1552Be21C5FCa63228aA3D2622873",
        "70999994960"
      ],
      "transaction": {
        "from": "0x34501ee677d8180522730e78c213fec1b53be5f0",
        "to": "0x481a61fb7c9eaddd5069fe2f6134b22ab8ee6489",
        "gas": "0xa726",
        "value": "0x0",
        "input": "0x095ea7b30000000000000000000000005803cdb747e1552be21c5fca63228aa3d26228730000000000000000000000000000000000000000000000000000001087edf250",
        "nonce": "0x2c",
        "chainId": "0xaa36a7",
        "accessList": null,
        "type": null
      },
      "additionalContracts": [],
      "isFixedGasLimit": false
    },
    {
      "hash": "0xbdfb47b13dc539021159d662cb559a8e9401952a8a3a16c4ef9faa07adf8a922",
      "transactionType": "CALL",
      "contractName": null,
      "contractAddress": "0x481a61fb7c9eaddd5069fe2f6134b22ab8ee6489",
      "function": "approve(address,uint256)",
      "arguments": [
        "0x920EC16CeB2A6bDf4cbdAe65Aa40eE07F73f52E7",
        "70999994960"
      ],
      "transaction": {
        "from": "0x34501ee677d8180522730e78c213fec1b53be5f0",
        "to": "0x481a61fb7c9eaddd5069fe2f6134b22ab8ee6489",
        "gas": "0xfa20",
        "value": "0x0",
        "input": "0x095ea7b3000000000000000000000000920ec16ceb2a6bdf4cbdae65aa40ee07f73f52e70000000000000000000000000000000000000000000000000000001087edf250",
        "nonce": "0x2d",
        "chainId": "0xaa36a7",
        "accessList": null,
        "type": null
      },
      "additionalContracts": [],
      "isFixedGasLimit": false
    },
    {
      "hash": "0x7af47ca45092acb1b2ca1e790810f201b09332168dae71e79216e77e8dc54ee0",
      "transactionType": "CALL",
      "contractName": null,
      "contractAddress": "0x920ec16ceb2a6bdf4cbdae65aa40ee07f73f52e7",
      "function": "deposit(uint256)",
      "arguments": [
        "2000"
      ],
      "transaction": {
        "from": "0x34501ee677d8180522730e78c213fec1b53be5f0",
        "to": "0x920ec16ceb2a6bdf4cbdae65aa40ee07f73f52e7",
        "gas": "0x18947",
        "value": "0x0",
        "input": "0xb6b55f2500000000000000000000000000000000000000000000000000000000000007d0",
        "nonce": "0x2e",
        "chainId": "0xaa36a7",
        "accessList": null,
        "type": null
      },
      "additionalContracts": [],
      "isFixedGasLimit": false
    },
    {
      "hash": "0x46d8f10c1c5dd0bac3f01eb1673edd81a7706c02a0671d758aeba11769d36fdb",
      "transactionType": "CALL",
      "contractName": null,
      "contractAddress": "0x920ec16ceb2a6bdf4cbdae65aa40ee07f73f52e7",
      "function": "approve(address,uint256)",
      "arguments": [
        "0x920EC16CeB2A6bDf4cbdAe65Aa40eE07F73f52E7",
        "1200"
      ],
      "transaction": {
        "from": "0x34501ee677d8180522730e78c213fec1b53be5f0",
        "to": "0x920ec16ceb2a6bdf4cbdae65aa40ee07f73f52e7",
        "gas": "0x108c4",
        "value": "0x0",
        "input": "0x095ea7b3000000000000000000000000920ec16ceb2a6bdf4cbdae65aa40ee07f73f52e700000000000000000000000000000000000000000000000000000000000004b0",
        "nonce": "0x2f",
        "chainId": "0xaa36a7",
        "accessList": null,
        "type": null
      },
      "additionalContracts": [],
      "isFixedGasLimit": false
    },
    {
      "hash": "0xfd36f56afd4639c51ff0732154aaecd3121d4bdddc19cf328c4120ba250b2dea",
      "transactionType": "CALL",
      "contractName": null,
      "contractAddress": "0x920ec16ceb2a6bdf4cbdae65aa40ee07f73f52e7",
      "function": "borrow(address,uint256,address,uint256)",
      "arguments": [
        "0x920EC16CeB2A6bDf4cbdAe65Aa40eE07F73f52E7",
        "1200",
        "0x481A61fB7c9EAdDD5069Fe2F6134b22AB8EE6489",
        "1000"
      ],
      "transaction": {
        "from": "0x34501ee677d8180522730e78c213fec1b53be5f0",
        "to": "0x920ec16ceb2a6bdf4cbdae65aa40ee07f73f52e7",
        "gas": "0x1e658",
        "value": "0x0",
        "input": "0xd0280539000000000000000000000000920ec16ceb2a6bdf4cbdae65aa40ee07f73f52e700000000000000000000000000000000000000000000000000000000000004b0000000000000000000000000481a61fb7c9eaddd5069fe2f6134b22ab8ee648900000000000000000000000000000000000000000000000000000000000003e8",
        "nonce": "0x30",
        "chainId": "0xaa36a7",
        "accessList": null,
        "type": null
      },
      "additionalContracts": [],
      "isFixedGasLimit": false
    },
    {
      "hash": "0x7f7eed0003cfcba49b5fd29c924239f492076dd7eab1fe2f7ecf805182638c8c",
      "transactionType": "CALL",
      "contractName": null,
      "contractAddress": "0x481a61fb7c9eaddd5069fe2f6134b22ab8ee6489",
      "function": "approve(address,uint256)",
      "arguments": [
        "0x920EC16CeB2A6bDf4cbdAe65Aa40eE07F73f52E7",
        "10"
      ],
      "transaction": {
        "from": "0x34501ee677d8180522730e78c213fec1b53be5f0",
        "to": "0x481a61fb7c9eaddd5069fe2f6134b22ab8ee6489",
        "gas": "0xa6e0",
        "value": "0x0",
        "input": "0x095ea7b3000000000000000000000000920ec16ceb2a6bdf4cbdae65aa40ee07f73f52e7000000000000000000000000000000000000000000000000000000000000000a",
        "nonce": "0x31",
        "chainId": "0xaa36a7",
        "accessList": null,
        "type": null
      },
      "additionalContracts": [],
      "isFixedGasLimit": false
    },
    {
      "hash": "0xc3f09b2d4ad927302fa5901d45aeaef4b2bfb20d5ad126deeb996184180cf739",
      "transactionType": "CALL",
      "contractName": null,
      "contractAddress": "0x920ec16ceb2a6bdf4cbdae65aa40ee07f73f52e7",
      "function": "repayment(address,uint256,address,uint256)",
      "arguments": [
        "0x920EC16CeB2A6bDf4cbdAe65Aa40eE07F73f52E7",
        "10",
        "0x481A61fB7c9EAdDD5069Fe2F6134b22AB8EE6489",
        "10"
      ],
      "transaction": {
        "from": "0x34501ee677d8180522730e78c213fec1b53be5f0",
        "to": "0x920ec16ceb2a6bdf4cbdae65aa40ee07f73f52e7",
        "gas": "0x20450",
        "value": "0x0",
        "input": "0x6cca3c2f000000000000000000000000920ec16ceb2a6bdf4cbdae65aa40ee07f73f52e7000000000000000000000000000000000000000000000000000000000000000a000000000000000000000000481a61fb7c9eaddd5069fe2f6134b22ab8ee6489000000000000000000000000000000000000000000000000000000000000000a",
        "nonce": "0x32",
        "chainId": "0xaa36a7",
        "accessList": null,
        "type": null
      },
      "additionalContracts": [],
      "isFixedGasLimit": false
    }
  ],
  "receipts": [
    {
      "status": "0x1",
      "cumulativeGasUsed": "0x9d4c74",
      "logs": [
        {
          "address": "0x481a61fb7c9eaddd5069fe2f6134b22ab8ee6489",
          "topics": [
            "0xddf252ad1be2c89b69c2b068fc378daa952ba7f163c4a11628f55a4df523b3ef",
            "0x0000000000000000000000000000000000000000000000000000000000000000",
            "0x00000000000000000000000034501ee677d8180522730e78c213fec1b53be5f0"
          ],
          "data": "0x00000000000000000000000000000000000000000000000000000002540be400",
          "blockHash": "0x6b131b0ccb48195e16ab85a18ce7cc383c3208f1845c70e71751c50ff2040b30",
          "blockNumber": "0x581a05",
          "transactionHash": "0xfff5d433de10439cc245cbde01c674b38703b6030351eae9f8c7e3b6506aae98",
          "transactionIndex": "0x4a",
          "logIndex": "0x8e",
          "removed": false
        },
        {
          "address": "0x481a61fb7c9eaddd5069fe2f6134b22ab8ee6489",
          "topics": [
            "0x449a52f8290d0f7a93fd114212f0891c4eafca215815e758af65bf6d352a6551"
          ],
          "data": "0x00000000000000000000000034501ee677d8180522730e78c213fec1b53be5f000000000000000000000000000000000000000000000000000000002540be400",
          "blockHash": "0x6b131b0ccb48195e16ab85a18ce7cc383c3208f1845c70e71751c50ff2040b30",
          "blockNumber": "0x581a05",
          "transactionHash": "0xfff5d433de10439cc245cbde01c674b38703b6030351eae9f8c7e3b6506aae98",
          "transactionIndex": "0x4a",
          "logIndex": "0x8f",
          "removed": false
        }
      ],
      "logsBloom": "0x00000000000000000020000000000000000000200000000000000000000000000000002000000000000000000000000000000000000000000000000000000000000000000000000000000008000000000002000000000000000000000000000000000000020000000000000000000800000100000000000000000410000000000000000000000000000000000000000000000000000000000000000000000000000000000000000200000000000000000000000000000000000000000000000000000002000000000000400000000001000000000000000000000000000020000000000000000000000000000000000000000000000000000000000000000000",
      "type": "0x0",
      "transactionHash": "0xfff5d433de10439cc245cbde01c674b38703b6030351eae9f8c7e3b6506aae98",
      "transactionIndex": "0x4a",
      "blockHash": "0x6b131b0ccb48195e16ab85a18ce7cc383c3208f1845c70e71751c50ff2040b30",
      "blockNumber": "0x581a05",
      "gasUsed": "0x8aee",
      "effectiveGasPrice": "0x771d4bdc",
      "from": "0x34501ee677d8180522730e78c213fec1b53be5f0",
      "to": "0x481a61fb7c9eaddd5069fe2f6134b22ab8ee6489",
      "contractAddress": null
    },
    {
      "status": "0x1",
      "cumulativeGasUsed": "0xa4d398",
      "logs": [
        {
          "address": "0x481a61fb7c9eaddd5069fe2f6134b22ab8ee6489",
          "topics": [
            "0x8c5be1e5ebec7d5bd14f71427d1e84f3dd0314c0f7b2291e5b200ac8c7c3b925",
            "0x00000000000000000000000034501ee677d8180522730e78c213fec1b53be5f0",
            "0x0000000000000000000000005803cdb747e1552be21c5fca63228aa3d2622873"
          ],
          "data": "0x0000000000000000000000000000000000000000000000000000001087edf250",
          "blockHash": "0x6b131b0ccb48195e16ab85a18ce7cc383c3208f1845c70e71751c50ff2040b30",
          "blockNumber": "0x581a05",
          "transactionHash": "0x02e9d5568bcbd23c5aedf6a8901880fe152e89837980bd6106e91848b65b768e",
          "transactionIndex": "0x4e",
          "logIndex": "0x97",
          "removed": false
        }
      ],
      "logsBloom": "0x00000002000000000000000000000000000000200000000000000000000000000000002000000000000000000000000000000000000000000000000000200004000000000000000000000000000000000000000000000000000000000000000000000000000000000000000000000000000100000000000000000400000000000000020000000000000000000000000000000000000000000000000000000000020000000000000000000000000000000000000000000000000000000000000000000000000000000000400000000001000000000000000000000000000000000010000000000000000000000000000000000000000000000000000000000000",
      "type": "0x0",
      "transactionHash": "0x02e9d5568bcbd23c5aedf6a8901880fe152e89837980bd6106e91848b65b768e",
      "transactionIndex": "0x4e",
      "blockHash": "0x6b131b0ccb48195e16ab85a18ce7cc383c3208f1845c70e71751c50ff2040b30",
      "blockNumber": "0x581a05",
      "gasUsed": "0x724b",
      "effectiveGasPrice": "0x771d4bdc",
      "from": "0x34501ee677d8180522730e78c213fec1b53be5f0",
      "to": "0x481a61fb7c9eaddd5069fe2f6134b22ab8ee6489",
      "contractAddress": null
    },
    {
      "status": "0x1",
      "cumulativeGasUsed": "0xa588af",
      "logs": [
        {
          "address": "0x481a61fb7c9eaddd5069fe2f6134b22ab8ee6489",
          "topics": [
            "0x8c5be1e5ebec7d5bd14f71427d1e84f3dd0314c0f7b2291e5b200ac8c7c3b925",
            "0x00000000000000000000000034501ee677d8180522730e78c213fec1b53be5f0",
            "0x000000000000000000000000920ec16ceb2a6bdf4cbdae65aa40ee07f73f52e7"
          ],
          "data": "0x0000000000000000000000000000000000000000000000000000001087edf250",
          "blockHash": "0x6b131b0ccb48195e16ab85a18ce7cc383c3208f1845c70e71751c50ff2040b30",
          "blockNumber": "0x581a05",
          "transactionHash": "0xbdfb47b13dc539021159d662cb559a8e9401952a8a3a16c4ef9faa07adf8a922",
          "transactionIndex": "0x4f",
          "logIndex": "0x98",
          "removed": false
        }
      ],
      "logsBloom": "0x00000000000000000000000000000000000000200000000000000000000000000000002000000000000000000000000000000000000000000000000000200000000000000000000000000000000000000000000000000000000000000000000000000000000000000000000000000000000100000000000000000400000000000000000000000000000000000000000000000000000000000000000000000000020000000000000000040000000000000000000000000000000100000000000000000000000000000000400000000001000000000000000000000000200000000010000000000000000000000000000000000000000000000000000000000000",
      "type": "0x0",
      "transactionHash": "0xbdfb47b13dc539021159d662cb559a8e9401952a8a3a16c4ef9faa07adf8a922",
      "transactionIndex": "0x4f",
      "blockHash": "0x6b131b0ccb48195e16ab85a18ce7cc383c3208f1845c70e71751c50ff2040b30",
      "blockNumber": "0x581a05",
      "gasUsed": "0xb517",
      "effectiveGasPrice": "0x771d4bdc",
      "from": "0x34501ee677d8180522730e78c213fec1b53be5f0",
      "to": "0x481a61fb7c9eaddd5069fe2f6134b22ab8ee6489",
      "contractAddress": null
    },
    {
      "status": "0x1",
      "cumulativeGasUsed": "0xa69598",
      "logs": [
        {
          "address": "0x481a61fb7c9eaddd5069fe2f6134b22ab8ee6489",
          "topics": [
            "0xddf252ad1be2c89b69c2b068fc378daa952ba7f163c4a11628f55a4df523b3ef",
            "0x00000000000000000000000034501ee677d8180522730e78c213fec1b53be5f0",
            "0x000000000000000000000000920ec16ceb2a6bdf4cbdae65aa40ee07f73f52e7"
          ],
          "data": "0x00000000000000000000000000000000000000000000000000000000000007d0",
          "blockHash": "0x6b131b0ccb48195e16ab85a18ce7cc383c3208f1845c70e71751c50ff2040b30",
          "blockNumber": "0x581a05",
          "transactionHash": "0x7af47ca45092acb1b2ca1e790810f201b09332168dae71e79216e77e8dc54ee0",
          "transactionIndex": "0x50",
          "logIndex": "0x99",
          "removed": false
        },
        {
          "address": "0x920ec16ceb2a6bdf4cbdae65aa40ee07f73f52e7",
          "topics": [
            "0xddf252ad1be2c89b69c2b068fc378daa952ba7f163c4a11628f55a4df523b3ef",
            "0x0000000000000000000000000000000000000000000000000000000000000000",
            "0x00000000000000000000000034501ee677d8180522730e78c213fec1b53be5f0"
          ],
          "data": "0x0000000000000000000000000000000000000000000000000000002e90ed89b0",
          "blockHash": "0x6b131b0ccb48195e16ab85a18ce7cc383c3208f1845c70e71751c50ff2040b30",
          "blockNumber": "0x581a05",
          "transactionHash": "0x7af47ca45092acb1b2ca1e790810f201b09332168dae71e79216e77e8dc54ee0",
          "transactionIndex": "0x50",
          "logIndex": "0x9a",
          "removed": false
        },
        {
          "address": "0x920ec16ceb2a6bdf4cbdae65aa40ee07f73f52e7",
          "topics": [
            "0xffaad6a51867cde4125cd8ca83b3ebe39a412938c5be43e149bad7e431112ba2",
            "0x00000000000000000000000034501ee677d8180522730e78c213fec1b53be5f0"
          ],
          "data": "0x00000000000000000000000000000000000000000000000000000000000007d0",
          "blockHash": "0x6b131b0ccb48195e16ab85a18ce7cc383c3208f1845c70e71751c50ff2040b30",
          "blockNumber": "0x581a05",
          "transactionHash": "0x7af47ca45092acb1b2ca1e790810f201b09332168dae71e79216e77e8dc54ee0",
          "transactionIndex": "0x50",
          "logIndex": "0x9b",
          "removed": false
        }
      ],
      "logsBloom": "0x00000000000000008000000000000000000000200000000000000000000000000000002000000020000000000000000000000000000000000000000000000010000000000000000000000008000000000000000000000000000000000000000000000000020000000000000000000800000100000000000000000410000000000000000000000000000000000010000000000000000000000000000000000000000000080000000000040000000000000000000000000000000100000000000000000002000000000000400000000001000000000000000000000000200020000000000000080000000000000000000000000000000000000000000000000000",
      "type": "0x0",
      "transactionHash": "0x7af47ca45092acb1b2ca1e790810f201b09332168dae71e79216e77e8dc54ee0",
      "transactionIndex": "0x50",
      "blockHash": "0x6b131b0ccb48195e16ab85a18ce7cc383c3208f1845c70e71751c50ff2040b30",
      "blockNumber": "0x581a05",
      "gasUsed": "0x10ce9",
      "effectiveGasPrice": "0x771d4bdc",
      "from": "0x34501ee677d8180522730e78c213fec1b53be5f0",
      "to": "0x920ec16ceb2a6bdf4cbdae65aa40ee07f73f52e7",
      "contractAddress": null
    },
    {
      "status": "0x1",
      "cumulativeGasUsed": "0xa74aa2",
      "logs": [
        {
          "address": "0x920ec16ceb2a6bdf4cbdae65aa40ee07f73f52e7",
          "topics": [
            "0x8c5be1e5ebec7d5bd14f71427d1e84f3dd0314c0f7b2291e5b200ac8c7c3b925",
            "0x00000000000000000000000034501ee677d8180522730e78c213fec1b53be5f0",
            "0x000000000000000000000000920ec16ceb2a6bdf4cbdae65aa40ee07f73f52e7"
          ],
          "data": "0x00000000000000000000000000000000000000000000000000000000000004b0",
          "blockHash": "0x6b131b0ccb48195e16ab85a18ce7cc383c3208f1845c70e71751c50ff2040b30",
          "blockNumber": "0x581a05",
          "transactionHash": "0x46d8f10c1c5dd0bac3f01eb1673edd81a7706c02a0671d758aeba11769d36fdb",
          "transactionIndex": "0x51",
          "logIndex": "0x9c",
          "removed": false
        }
      ],
      "logsBloom": "0x00000000000000000000000000000000000000200000000000000000000000000000000000000020000000000000000000000000000000000000000000200000000000000000000000000000000000000000000000000000000000000000000000000000000000000000000000000000000100000000000000000000000000000000000000000000000000000010000000000000000000000000000000000000020000000000000000040000000000000000000000000000000100000000000000000000000000000000000000000001000000000000000000000000200000000010000000080000000000000000000000000000000000000000000000000000",
      "type": "0x0",
      "transactionHash": "0x46d8f10c1c5dd0bac3f01eb1673edd81a7706c02a0671d758aeba11769d36fdb",
      "transactionIndex": "0x51",
      "blockHash": "0x6b131b0ccb48195e16ab85a18ce7cc383c3208f1845c70e71751c50ff2040b30",
      "blockNumber": "0x581a05",
      "gasUsed": "0xb50a",
      "effectiveGasPrice": "0x771d4bdc",
      "from": "0x34501ee677d8180522730e78c213fec1b53be5f0",
      "to": "0x920ec16ceb2a6bdf4cbdae65aa40ee07f73f52e7",
      "contractAddress": null
    },
    {
      "status": "0x1",
      "cumulativeGasUsed": "0xa8aabe",
      "logs": [
        {
          "address": "0x920ec16ceb2a6bdf4cbdae65aa40ee07f73f52e7",
          "topics": [
            "0x10e6ffbf70ea11db87f1498a9f8c54026213877a9f5beb696c705b476ddc053c",
            "0x00000000000000000000000034501ee677d8180522730e78c213fec1b53be5f0"
          ],
          "data": "0x000000000000000000000000920ec16ceb2a6bdf4cbdae65aa40ee07f73f52e70000000000000000000000000000000000000000000000000000000000000956000000000000000000000000481a61fb7c9eaddd5069fe2f6134b22ab8ee648900000000000000000000000000000000000000000000000000000000000007c6",
          "blockHash": "0x6b131b0ccb48195e16ab85a18ce7cc383c3208f1845c70e71751c50ff2040b30",
          "blockNumber": "0x581a05",
          "transactionHash": "0xfd36f56afd4639c51ff0732154aaecd3121d4bdddc19cf328c4120ba250b2dea",
          "transactionIndex": "0x52",
          "logIndex": "0x9d",
          "removed": false
        },
        {
          "address": "0x920ec16ceb2a6bdf4cbdae65aa40ee07f73f52e7",
          "topics": [
            "0xddf252ad1be2c89b69c2b068fc378daa952ba7f163c4a11628f55a4df523b3ef",
            "0x00000000000000000000000034501ee677d8180522730e78c213fec1b53be5f0",
            "0x000000000000000000000000920ec16ceb2a6bdf4cbdae65aa40ee07f73f52e7"
          ],
          "data": "0x00000000000000000000000000000000000000000000000000000000000004b0",
          "blockHash": "0x6b131b0ccb48195e16ab85a18ce7cc383c3208f1845c70e71751c50ff2040b30",
          "blockNumber": "0x581a05",
          "transactionHash": "0xfd36f56afd4639c51ff0732154aaecd3121d4bdddc19cf328c4120ba250b2dea",
          "transactionIndex": "0x52",
          "logIndex": "0x9e",
          "removed": false
        },
        {
          "address": "0x481a61fb7c9eaddd5069fe2f6134b22ab8ee6489",
          "topics": [
            "0xddf252ad1be2c89b69c2b068fc378daa952ba7f163c4a11628f55a4df523b3ef",
            "0x000000000000000000000000920ec16ceb2a6bdf4cbdae65aa40ee07f73f52e7",
            "0x00000000000000000000000034501ee677d8180522730e78c213fec1b53be5f0"
          ],
          "data": "0x00000000000000000000000000000000000000000000000000000000000003e8",
          "blockHash": "0x6b131b0ccb48195e16ab85a18ce7cc383c3208f1845c70e71751c50ff2040b30",
          "blockNumber": "0x581a05",
          "transactionHash": "0xfd36f56afd4639c51ff0732154aaecd3121d4bdddc19cf328c4120ba250b2dea",
          "transactionIndex": "0x52",
          "logIndex": "0x9f",
          "removed": false
        },
        {
          "address": "0x920ec16ceb2a6bdf4cbdae65aa40ee07f73f52e7",
          "topics": [
            "0x3515b35de5139187b5f1cfc0684ee199a130937eae5916c3fb3d73124ae0c949",
            "0x00000000000000000000000034501ee677d8180522730e78c213fec1b53be5f0"
          ],
          "data": "0x000000000000000000000000481a61fb7c9eaddd5069fe2f6134b22ab8ee648900000000000000000000000000000000000000000000000000000000000003e8",
          "blockHash": "0x6b131b0ccb48195e16ab85a18ce7cc383c3208f1845c70e71751c50ff2040b30",
          "blockNumber": "0x581a05",
          "transactionHash": "0xfd36f56afd4639c51ff0732154aaecd3121d4bdddc19cf328c4120ba250b2dea",
          "transactionIndex": "0x52",
          "logIndex": "0xa0",
          "removed": false
        }
      ],
      "logsBloom": "0x00000000000000000000000000000000000000200000000000000000000000000000002000040020000000000000000000000040000000000000000000000000000000000000000000000008000000000000000000000000000000000000000000000000000000000000000000000000000100000000000000000410000000000000000000000000000000000010000000000000100000000000000000000000000000000000008000040000000000000000000000000000000100000000000000000002000000000000400000000001000040000000000004000000200000000000000000080000000000000000000000000000000000000000000000000000",
      "type": "0x0",
      "transactionHash": "0xfd36f56afd4639c51ff0732154aaecd3121d4bdddc19cf328c4120ba250b2dea",
      "transactionIndex": "0x52",
      "blockHash": "0x6b131b0ccb48195e16ab85a18ce7cc383c3208f1845c70e71751c50ff2040b30",
      "blockNumber": "0x581a05",
      "gasUsed": "0x1601c",
      "effectiveGasPrice": "0x771d4bdc",
      "from": "0x34501ee677d8180522730e78c213fec1b53be5f0",
      "to": "0x920ec16ceb2a6bdf4cbdae65aa40ee07f73f52e7",
      "contractAddress": null
    },
    {
      "status": "0x1",
      "cumulativeGasUsed": "0xa91cd9",
      "logs": [
        {
          "address": "0x481a61fb7c9eaddd5069fe2f6134b22ab8ee6489",
          "topics": [
            "0x8c5be1e5ebec7d5bd14f71427d1e84f3dd0314c0f7b2291e5b200ac8c7c3b925",
            "0x00000000000000000000000034501ee677d8180522730e78c213fec1b53be5f0",
            "0x000000000000000000000000920ec16ceb2a6bdf4cbdae65aa40ee07f73f52e7"
          ],
          "data": "0x000000000000000000000000000000000000000000000000000000000000000a",
          "blockHash": "0x6b131b0ccb48195e16ab85a18ce7cc383c3208f1845c70e71751c50ff2040b30",
          "blockNumber": "0x581a05",
          "transactionHash": "0x7f7eed0003cfcba49b5fd29c924239f492076dd7eab1fe2f7ecf805182638c8c",
          "transactionIndex": "0x53",
          "logIndex": "0xa1",
          "removed": false
        }
      ],
      "logsBloom": "0x00000000000000000000000000000000000000200000000000000000000000000000002000000000000000000000000000000000000000000000000000200000000000000000000000000000000000000000000000000000000000000000000000000000000000000000000000000000000100000000000000000400000000000000000000000000000000000000000000000000000000000000000000000000020000000000000000040000000000000000000000000000000100000000000000000000000000000000400000000001000000000000000000000000200000000010000000000000000000000000000000000000000000000000000000000000",
      "type": "0x0",
      "transactionHash": "0x7f7eed0003cfcba49b5fd29c924239f492076dd7eab1fe2f7ecf805182638c8c",
      "transactionIndex": "0x53",
      "blockHash": "0x6b131b0ccb48195e16ab85a18ce7cc383c3208f1845c70e71751c50ff2040b30",
      "blockNumber": "0x581a05",
      "gasUsed": "0x721b",
      "effectiveGasPrice": "0x771d4bdc",
      "from": "0x34501ee677d8180522730e78c213fec1b53be5f0",
      "to": "0x481a61fb7c9eaddd5069fe2f6134b22ab8ee6489",
      "contractAddress": null
    },
    {
      "status": "0x1",
      "cumulativeGasUsed": "0xaa7de2",
      "logs": [
        {
          "address": "0x920ec16ceb2a6bdf4cbdae65aa40ee07f73f52e7",
          "topics": [
            "0x10e6ffbf70ea11db87f1498a9f8c54026213877a9f5beb696c705b476ddc053c",
            "0x00000000000000000000000034501ee677d8180522730e78c213fec1b53be5f0"
          ],
          "data": "0x000000000000000000000000920ec16ceb2a6bdf4cbdae65aa40ee07f73f52e7000000000000000000000000000000000000000000000000000000000000094c000000000000000000000000481a61fb7c9eaddd5069fe2f6134b22ab8ee648900000000000000000000000000000000000000000000000000000000000007bc",
          "blockHash": "0x6b131b0ccb48195e16ab85a18ce7cc383c3208f1845c70e71751c50ff2040b30",
          "blockNumber": "0x581a05",
          "transactionHash": "0xc3f09b2d4ad927302fa5901d45aeaef4b2bfb20d5ad126deeb996184180cf739",
          "transactionIndex": "0x54",
          "logIndex": "0xa2",
          "removed": false
        },
        {
          "address": "0x920ec16ceb2a6bdf4cbdae65aa40ee07f73f52e7",
          "topics": [
            "0xddf252ad1be2c89b69c2b068fc378daa952ba7f163c4a11628f55a4df523b3ef",
            "0x000000000000000000000000920ec16ceb2a6bdf4cbdae65aa40ee07f73f52e7",
            "0x00000000000000000000000034501ee677d8180522730e78c213fec1b53be5f0"
          ],
          "data": "0x000000000000000000000000000000000000000000000000000000000000000a",
          "blockHash": "0x6b131b0ccb48195e16ab85a18ce7cc383c3208f1845c70e71751c50ff2040b30",
          "blockNumber": "0x581a05",
          "transactionHash": "0xc3f09b2d4ad927302fa5901d45aeaef4b2bfb20d5ad126deeb996184180cf739",
          "transactionIndex": "0x54",
          "logIndex": "0xa3",
          "removed": false
        },
        {
          "address": "0x481a61fb7c9eaddd5069fe2f6134b22ab8ee6489",
          "topics": [
            "0xddf252ad1be2c89b69c2b068fc378daa952ba7f163c4a11628f55a4df523b3ef",
            "0x00000000000000000000000034501ee677d8180522730e78c213fec1b53be5f0",
            "0x000000000000000000000000920ec16ceb2a6bdf4cbdae65aa40ee07f73f52e7"
          ],
          "data": "0x000000000000000000000000000000000000000000000000000000000000000a",
          "blockHash": "0x6b131b0ccb48195e16ab85a18ce7cc383c3208f1845c70e71751c50ff2040b30",
          "blockNumber": "0x581a05",
          "transactionHash": "0xc3f09b2d4ad927302fa5901d45aeaef4b2bfb20d5ad126deeb996184180cf739",
          "transactionIndex": "0x54",
          "logIndex": "0xa4",
          "removed": false
        },
        {
          "address": "0x920ec16ceb2a6bdf4cbdae65aa40ee07f73f52e7",
          "topics": [
            "0xfc5616f01e1c1dbb08a12619251fb851d6b75274ceb88d493e5894a5eea00e68"
          ],
          "data": "0x00000000000000000000000034501ee677d8180522730e78c213fec1b53be5f0000000000000000000000000481a61fb7c9eaddd5069fe2f6134b22ab8ee6489000000000000000000000000000000000000000000000000000000000000000a",
          "blockHash": "0x6b131b0ccb48195e16ab85a18ce7cc383c3208f1845c70e71751c50ff2040b30",
          "blockNumber": "0x581a05",
          "transactionHash": "0xc3f09b2d4ad927302fa5901d45aeaef4b2bfb20d5ad126deeb996184180cf739",
          "transactionIndex": "0x54",
          "logIndex": "0xa5",
          "removed": false
        }
      ],
      "logsBloom": "0x00000000000000000000000000000000000000200000000000000000000000000000002000000020000000000000000000000000000000000000000000000000000000000000000000000008000000000000000000000000000004000000000000000000000000000000000000000000000100000000000000000410000000000000000000000000000000000010000000000000100000000000000000000000000000000000008000040000000000000000000000000000000100000000000000000002000000000000400000000001000040000000000000000000200000000000000000080000000000400000000000800000000000000000000000000000",
      "type": "0x0",
      "transactionHash": "0xc3f09b2d4ad927302fa5901d45aeaef4b2bfb20d5ad126deeb996184180cf739",
      "transactionIndex": "0x54",
      "blockHash": "0x6b131b0ccb48195e16ab85a18ce7cc383c3208f1845c70e71751c50ff2040b30",
      "blockNumber": "0x581a05",
      "gasUsed": "0x16109",
      "effectiveGasPrice": "0x771d4bdc",
      "from": "0x34501ee677d8180522730e78c213fec1b53be5f0",
      "to": "0x920ec16ceb2a6bdf4cbdae65aa40ee07f73f52e7",
      "contractAddress": null
    }
  ],
  "libraries": [],
  "pending": [],
  "returns": {},
  "timestamp": 1714098699,
  "chain": 11155111,
  "commit": "9c02021"
}