{
  "transactions": [
    {
      "hash": "0xbfb71fa9345f3ca444236c6db0854675fb759f0858373999a3856cafcaeb91fd",
      "transactionType": "CALL",
      "contractName": null,
      "contractAddress": "0x481a61fb7c9eaddd5069fe2f6134b22ab8ee6489",
      "function": "mint(address,uint256)",
      "arguments": [
        "0x34501EE677d8180522730e78C213Fec1b53Be5F0",
        "10000000000"
      ],
      "transaction": {
        "from": "0x34501ee677d8180522730e78c213fec1b53be5f0",
        "to": "0x481a61fb7c9eaddd5069fe2f6134b22ab8ee6489",
        "gas": "0xbfe4",
        "value": "0x0",
        "input": "0x40c10f1900000000000000000000000034501ee677d8180522730e78c213fec1b53be5f000000000000000000000000000000000000000000000000000000002540be400",
        "nonce": "0x0",
        "chainId": "0xaa36a7",
        "accessList": null,
        "type": null
      },
      "additionalContracts": [],
      "isFixedGasLimit": false
    },
    {
      "hash": "0xa59d6bb929854bd2202ab5f2501832895f2a192185078b96339fca9f57d27e4c",
      "transactionType": "CALL",
      "contractName": null,
      "contractAddress": "0x481a61fb7c9eaddd5069fe2f6134b22ab8ee6489",
      "function": "approve(address,uint256)",
      "arguments": [
        "0x5803CdB747e1552Be21C5FCa63228aA3D2622873",
        "11000000000"
      ],
      "transaction": {
        "from": "0x34501ee677d8180522730e78c213fec1b53be5f0",
        "to": "0x481a61fb7c9eaddd5069fe2f6134b22ab8ee6489",
        "gas": "0x108c6",
        "value": "0x0",
        "input": "0x095ea7b30000000000000000000000005803cdb747e1552be21c5fca63228aa3d2622873000000000000000000000000000000000000000000000000000000028fa6ae00",
        "nonce": "0x1",
        "chainId": "0xaa36a7",
        "accessList": null,
        "type": null
      },
      "additionalContracts": [],
      "isFixedGasLimit": false
    },
    {
      "hash": "0x98e645a4558807edab4e6a1453ba9515b810b348bf1bdbf6839beff4145a3695",
      "transactionType": "CALL",
      "contractName": null,
      "contractAddress": "0x481a61fb7c9eaddd5069fe2f6134b22ab8ee6489",
      "function": "approve(address,uint256)",
      "arguments": [
        "0xd905d7cf21c771ddbAC9f0A7236ddFd2a7e63726",
        "11000000000"
      ],
      "transaction": {
        "from": "0x34501ee677d8180522730e78c213fec1b53be5f0",
        "to": "0x481a61fb7c9eaddd5069fe2f6134b22ab8ee6489",
        "gas": "0x108c6",
        "value": "0x0",
        "input": "0x095ea7b3000000000000000000000000d905d7cf21c771ddbac9f0a7236ddfd2a7e63726000000000000000000000000000000000000000000000000000000028fa6ae00",
        "nonce": "0x2",
        "chainId": "0xaa36a7",
        "accessList": null,
        "type": null
      },
      "additionalContracts": [],
      "isFixedGasLimit": false
    },
    {
      "hash": "0xe5f1d27fe70478693ac9eb9da47d93f9554d5813ad9850da4b29ba019ba577ca",
      "transactionType": "CALL",
      "contractName": null,
      "contractAddress": "0xd905d7cf21c771ddbac9f0a7236ddfd2a7e63726",
      "function": "deposit(uint256)",
      "arguments": [
        "1000"
      ],
      "transaction": {
        "from": "0x34501ee677d8180522730e78c213fec1b53be5f0",
        "to": "0xd905d7cf21c771ddbac9f0a7236ddfd2a7e63726",
        "gas": "0x3100a",
        "value": "0x0",
        "input": "0xb6b55f2500000000000000000000000000000000000000000000000000000000000003e8",
        "nonce": "0x3",
        "chainId": "0xaa36a7",
        "accessList": null,
        "type": null
      },
      "additionalContracts": [],
      "isFixedGasLimit": false
    }
  ],
  "receipts": [
    {
      "status": "0x1",
      "cumulativeGasUsed": "0x9c2b2a",
      "logs": [
        {
          "address": "0x481a61fb7c9eaddd5069fe2f6134b22ab8ee6489",
          "topics": [
            "0xddf252ad1be2c89b69c2b068fc378daa952ba7f163c4a11628f55a4df523b3ef",
            "0x0000000000000000000000000000000000000000000000000000000000000000",
            "0x00000000000000000000000034501ee677d8180522730e78c213fec1b53be5f0"
          ],
          "data": "0x00000000000000000000000000000000000000000000000000000002540be400",
          "blockHash": "0xb8b0b4c92a824e0f5cda7c31bd4111843f7386b0ca05fa46ad5bd39af4729192",
          "blockNumber": "0x57fef5",
          "transactionHash": "0xbfb71fa9345f3ca444236c6db0854675fb759f0858373999a3856cafcaeb91fd",
          "transactionIndex": "0x4d",
          "logIndex": "0x71",
          "removed": false
        },
        {
          "address": "0x481a61fb7c9eaddd5069fe2f6134b22ab8ee6489",
          "topics": [
            "0x449a52f8290d0f7a93fd114212f0891c4eafca215815e758af65bf6d352a6551"
          ],
          "data": "0x00000000000000000000000034501ee677d8180522730e78c213fec1b53be5f000000000000000000000000000000000000000000000000000000002540be400",
          "blockHash": "0xb8b0b4c92a824e0f5cda7c31bd4111843f7386b0ca05fa46ad5bd39af4729192",
          "blockNumber": "0x57fef5",
          "transactionHash": "0xbfb71fa9345f3ca444236c6db0854675fb759f0858373999a3856cafcaeb91fd",
          "transactionIndex": "0x4d",
          "logIndex": "0x72",
          "removed": false
        }
      ],
      "logsBloom": "0x00000000000000000020000000000000000000200000000000000000000000000000002000000000000000000000000000000000000000000000000000000000000000000000000000000008000000000002000000000000000000000000000000000000020000000000000000000800000100000000000000000410000000000000000000000000000000000000000000000000000000000000000000000000000000000000000200000000000000000000000000000000000000000000000000000002000000000000400000000001000000000000000000000000000020000000000000000000000000000000000000000000000000000000000000000000",
      "type": "0x2",
      "transactionHash": "0xbfb71fa9345f3ca444236c6db0854675fb759f0858373999a3856cafcaeb91fd",
      "transactionIndex": "0x4d",
      "blockHash": "0xb8b0b4c92a824e0f5cda7c31bd4111843f7386b0ca05fa46ad5bd39af4729192",
      "blockNumber": "0x57fef5",
      "gasUsed": "0x8aee",
      "effectiveGasPrice": "0x32fb233d",
      "from": "0x34501ee677d8180522730e78c213fec1b53be5f0",
      "to": "0x481a61fb7c9eaddd5069fe2f6134b22ab8ee6489",
      "contractAddress": null
    },
    {
      "status": "0x1",
      "cumulativeGasUsed": "0x9ce035",
      "logs": [
        {
          "address": "0x481a61fb7c9eaddd5069fe2f6134b22ab8ee6489",
          "topics": [
            "0x8c5be1e5ebec7d5bd14f71427d1e84f3dd0314c0f7b2291e5b200ac8c7c3b925",
            "0x00000000000000000000000034501ee677d8180522730e78c213fec1b53be5f0",
            "0x0000000000000000000000005803cdb747e1552be21c5fca63228aa3d2622873"
          ],
          "data": "0x000000000000000000000000000000000000000000000000000000028fa6ae00",
          "blockHash": "0xb8b0b4c92a824e0f5cda7c31bd4111843f7386b0ca05fa46ad5bd39af4729192",
          "blockNumber": "0x57fef5",
          "transactionHash": "0xa59d6bb929854bd2202ab5f2501832895f2a192185078b96339fca9f57d27e4c",
          "transactionIndex": "0x4e",
          "logIndex": "0x73",
          "removed": false
        }
      ],
      "logsBloom": "0x00000002000000000000000000000000000000200000000000000000000000000000002000000000000000000000000000000000000000000000000000200004000000000000000000000000000000000000000000000000000000000000000000000000000000000000000000000000000100000000000000000400000000000000020000000000000000000000000000000000000000000000000000000000020000000000000000000000000000000000000000000000000000000000000000000000000000000000400000000001000000000000000000000000000000000010000000000000000000000000000000000000000000000000000000000000",
      "type": "0x2",
      "transactionHash": "0xa59d6bb929854bd2202ab5f2501832895f2a192185078b96339fca9f57d27e4c",
      "transactionIndex": "0x4e",
      "blockHash": "0xb8b0b4c92a824e0f5cda7c31bd4111843f7386b0ca05fa46ad5bd39af4729192",
      "blockNumber": "0x57fef5",
      "gasUsed": "0xb50b",
      "effectiveGasPrice": "0x32fb233d",
      "from": "0x34501ee677d8180522730e78c213fec1b53be5f0",
      "to": "0x481a61fb7c9eaddd5069fe2f6134b22ab8ee6489",
      "contractAddress": null
    },
    {
      "status": "0x1",
      "cumulativeGasUsed": "0x9d9540",
      "logs": [
        {
          "address": "0x481a61fb7c9eaddd5069fe2f6134b22ab8ee6489",
          "topics": [
            "0x8c5be1e5ebec7d5bd14f71427d1e84f3dd0314c0f7b2291e5b200ac8c7c3b925",
            "0x00000000000000000000000034501ee677d8180522730e78c213fec1b53be5f0",
            "0x000000000000000000000000d905d7cf21c771ddbac9f0a7236ddfd2a7e63726"
          ],
          "data": "0x000000000000000000000000000000000000000000000000000000028fa6ae00",
          "blockHash": "0xb8b0b4c92a824e0f5cda7c31bd4111843f7386b0ca05fa46ad5bd39af4729192",
          "blockNumber": "0x57fef5",
          "transactionHash": "0x98e645a4558807edab4e6a1453ba9515b810b348bf1bdbf6839beff4145a3695",
          "transactionIndex": "0x4f",
          "logIndex": "0x74",
          "removed": false
        }
      ],
      "logsBloom": "0x00000000000000000000000000000000000000200000000000000000000000000000002000000000000000000000000000000000000000000000000000200000000000000000000000000000000000000000000000000000000000000000000000000000000000000002000000000000000100000000000000000400000000000000000000000000000000000000000000000000000000000000000000000000020000000000000000000000000000000000000000000000000000000000000000000000020000000000400000000001000000000000000000000000000000000010000000000000000004000000000000000000000000000000000000000000",
      "type": "0x2",
      "transactionHash": "0x98e645a4558807edab4e6a1453ba9515b810b348bf1bdbf6839beff4145a3695",
      "transactionIndex": "0x4f",
      "blockHash": "0xb8b0b4c92a824e0f5cda7c31bd4111843f7386b0ca05fa46ad5bd39af4729192",
      "blockNumber": "0x57fef5",
      "gasUsed": "0xb50b",
      "effectiveGasPrice": "0x32fb233d",
      "from": "0x34501ee677d8180522730e78c213fec1b53be5f0",
      "to": "0x481a61fb7c9eaddd5069fe2f6134b22ab8ee6489",
      "contractAddress": null
    },
    {
      "status": "0x1",
      "cumulativeGasUsed": "0x9fad59",
      "logs": [
        {
          "address": "0x481a61fb7c9eaddd5069fe2f6134b22ab8ee6489",
          "topics": [
            "0xddf252ad1be2c89b69c2b068fc378daa952ba7f163c4a11628f55a4df523b3ef",
            "0x00000000000000000000000034501ee677d8180522730e78c213fec1b53be5f0",
            "0x000000000000000000000000d905d7cf21c771ddbac9f0a7236ddfd2a7e63726"
          ],
          "data": "0x00000000000000000000000000000000000000000000000000000000000003e8",
          "blockHash": "0xb8b0b4c92a824e0f5cda7c31bd4111843f7386b0ca05fa46ad5bd39af4729192",
          "blockNumber": "0x57fef5",
          "transactionHash": "0xe5f1d27fe70478693ac9eb9da47d93f9554d5813ad9850da4b29ba019ba577ca",
          "transactionIndex": "0x50",
          "logIndex": "0x75",
          "removed": false
        },
        {
          "address": "0xd905d7cf21c771ddbac9f0a7236ddfd2a7e63726",
          "topics": [
            "0xddf252ad1be2c89b69c2b068fc378daa952ba7f163c4a11628f55a4df523b3ef",
            "0x0000000000000000000000000000000000000000000000000000000000000000",
            "0x00000000000000000000000034501ee677d8180522730e78c213fec1b53be5f0"
          ],
          "data": "0x000000000000063917877cec0556b21269d695bdcbf7a87a9fffffffffffdcd8",
          "blockHash": "0xb8b0b4c92a824e0f5cda7c31bd4111843f7386b0ca05fa46ad5bd39af4729192",
          "blockNumber": "0x57fef5",
          "transactionHash": "0xe5f1d27fe70478693ac9eb9da47d93f9554d5813ad9850da4b29ba019ba577ca",
          "transactionIndex": "0x50",
          "logIndex": "0x76",
          "removed": false
        },
        {
          "address": "0xd905d7cf21c771ddbac9f0a7236ddfd2a7e63726",
          "topics": [
            "0xffaad6a51867cde4125cd8ca83b3ebe39a412938c5be43e149bad7e431112ba2",
            "0x00000000000000000000000034501ee677d8180522730e78c213fec1b53be5f0"
          ],
          "data": "0x00000000000000000000000000000000000000000000000000000000000003e8",
          "blockHash": "0xb8b0b4c92a824e0f5cda7c31bd4111843f7386b0ca05fa46ad5bd39af4729192",
          "blockNumber": "0x57fef5",
          "transactionHash": "0xe5f1d27fe70478693ac9eb9da47d93f9554d5813ad9850da4b29ba019ba577ca",
          "transactionIndex": "0x50",
          "logIndex": "0x77",
          "removed": false
        }
      ],
      "logsBloom": "0x00000000000000008000000000000000000000200000000000000000000000000000002000000000000000000000000000000000000000000000000001000010000000000000000000000008000000000000000000000000000000000000000000000000020000000002000000000800000100000000000000000410000000000000000000000000000000000000000000000000000000000000100000000000000000080000000000000000000000000000000000000000000000000000000000000002020000000000400000000001000000000000000000000000000020000000000000000000000004100000000000000000000000000000000000000000",
      "type": "0x2",
      "transactionHash": "0xe5f1d27fe70478693ac9eb9da47d93f9554d5813ad9850da4b29ba019ba577ca",
      "transactionIndex": "0x50",
      "blockHash": "0xb8b0b4c92a824e0f5cda7c31bd4111843f7386b0ca05fa46ad5bd39af4729192",
      "blockNumber": "0x57fef5",
      "gasUsed": "0x21819",
      "effectiveGasPrice": "0x32fb233d",
      "from": "0x34501ee677d8180522730e78c213fec1b53be5f0",
      "to": "0xd905d7cf21c771ddbac9f0a7236ddfd2a7e63726",
      "contractAddress": null
    }
  ],
  "libraries": [],
  "pending": [],
  "returns": {},
  "timestamp": 1714015061,
  "chain": 11155111,
  "commit": "9c02021"
}