{
  "transactions": [
    {
      "hash": "0x23cd85c0cc1bef440bf50ee23baaadf574be397ccdf7c2ced844d9977f418487",
      "transactionType": "CALL",
      "contractName": null,
      "contractAddress": "0xddc3c94ec1c98c5b3eb1bfa5bb75294d0c436875",
      "function": "tryLiquidation(address)",
      "arguments": [
        "0x34501EE677d8180522730e78C213Fec1b53Be5F0"
      ],
      "transaction": {
        "from": "0x34501ee677d8180522730e78c213fec1b53be5f0",
        "to": "0xddc3c94ec1c98c5b3eb1bfa5bb75294d0c436875",
        "gas": "0x1936f",
        "value": "0x0",
        "input": "0x8e4cb77700000000000000000000000034501ee677d8180522730e78c213fec1b53be5f0",
        "nonce": "0x3b",
        "chainId": "0xaa36a7",
        "accessList": null,
        "type": null
      },
      "additionalContracts": [],
      "isFixedGasLimit": false
    },
    {
      "hash": "0x31bf7b515b29c6bb541b2c8c52b1f0027cd662baf11f63bb0aca7bf148794912",
      "transactionType": "CALL",
      "contractName": null,
      "contractAddress": "0x481a61fb7c9eaddd5069fe2f6134b22ab8ee6489",
      "function": "approve(address,uint256)",
      "arguments": [
        "0xDdc3c94eC1C98c5b3eb1bfa5Bb75294D0C436875",
        "1"
      ],
      "transaction": {
        "from": "0x34501ee677d8180522730e78c213fec1b53be5f0",
        "to": "0x481a61fb7c9eaddd5069fe2f6134b22ab8ee6489",
        "gas": "0xf9de",
        "value": "0x0",
        "input": "0x095ea7b3000000000000000000000000ddc3c94ec1c98c5b3eb1bfa5bb75294d0c4368750000000000000000000000000000000000000000000000000000000000000001",
        "nonce": "0x3c",
        "chainId": "0xaa36a7",
        "accessList": null,
        "type": null
      },
      "additionalContracts": [],
      "isFixedGasLimit": false
    },
    {
      "hash": "0xcec447809ceb6d5777819e54ca5f6edf1808c7e84f41501973802f9a0d860fb1",
      "transactionType": "CALL",
      "contractName": null,
      "contractAddress": "0xddc3c94ec1c98c5b3eb1bfa5bb75294d0c436875",
      "function": "buyLiquidationAsset(address,uint256,address,uint256)",
      "arguments": [
        "0x481A61fB7c9EAdDD5069Fe2F6134b22AB8EE6489",
        "1",
        "0xDdc3c94eC1C98c5b3eb1bfa5Bb75294D0C436875",
        "100"
      ],
      "transaction": {
        "from": "0x34501ee677d8180522730e78c213fec1b53be5f0",
        "to": "0xddc3c94ec1c98c5b3eb1bfa5bb75294d0c436875",
        "gas": "0x18033",
        "value": "0x0",
        "input": "0xfc3ebcde000000000000000000000000481a61fb7c9eaddd5069fe2f6134b22ab8ee64890000000000000000000000000000000000000000000000000000000000000001000000000000000000000000ddc3c94ec1c98c5b3eb1bfa5bb75294d0c4368750000000000000000000000000000000000000000000000000000000000000064",
        "nonce": "0x3d",
        "chainId": "0xaa36a7",
        "accessList": null,
        "type": null
      },
      "additionalContracts": [],
      "isFixedGasLimit": false
    }
  ],
  "receipts": [
    {
      "status": "0x1",
      "cumulativeGasUsed": "0x15f608c",
      "logs": [
        {
          "address": "0xddc3c94ec1c98c5b3eb1bfa5bb75294d0c436875",
          "topics": [
            "0x917339971270efa613532e29b99bbea26c2f07382698f0815d019fe4242018ec",
            "0x00000000000000000000000034501ee677d8180522730e78c213fec1b53be5f0",
            "0x000000000000000000000000ddc3c94ec1c98c5b3eb1bfa5bb75294d0c436875"
          ],
          "data": "0x00000000000000000000000000000000000000000000000000000000000004a6",
          "blockHash": "0x47d12e8f09deae07d76341eeb74cd9de6857a40f23e3f462bd8bb608c775a804",
          "blockNumber": "0x581a18",
          "transactionHash": "0x23cd85c0cc1bef440bf50ee23baaadf574be397ccdf7c2ced844d9977f418487",
          "transactionIndex": "0x95",
          "logIndex": "0xd2",
          "removed": false
        },
        {
          "address": "0xddc3c94ec1c98c5b3eb1bfa5bb75294d0c436875",
          "topics": [
            "0x10e6ffbf70ea11db87f1498a9f8c54026213877a9f5beb696c705b476ddc053c",
            "0x00000000000000000000000034501ee677d8180522730e78c213fec1b53be5f0"
          ],
          "data": "0x0000000000000000000000000000000000000000000000000000000000000000000000000000000000000000000000000000000000000000000000000000000000000000000000000000000000000000000000000000000000000000000000000000000000000000000000000000000000000000000000000000000000000000",
          "blockHash": "0x47d12e8f09deae07d76341eeb74cd9de6857a40f23e3f462bd8bb608c775a804",
          "blockNumber": "0x581a18",
          "transactionHash": "0x23cd85c0cc1bef440bf50ee23baaadf574be397ccdf7c2ced844d9977f418487",
          "transactionIndex": "0x95",
          "logIndex": "0xd3",
          "removed": false
        }
      ],
      "logsBloom": "0x00000000000000001000000000000000000000200000002000000000000000000000000000000000000000000000000000000000000000000000000400000000000010000000000000000000000000000000000000000000000000000000000000000000000000000000000000000000000100000000000000000000000000000000000000000000000000000000000000000000100000000000000000000000000000000000008000000008000000000000000000000000000000000000000000000000000000000001000002000001000040000000000000000000000000000000000000100000000000000000000000000008000000000000000000000000",
      "type": "0x0",
      "transactionHash": "0x23cd85c0cc1bef440bf50ee23baaadf574be397ccdf7c2ced844d9977f418487",
      "transactionIndex": "0x95",
      "blockHash": "0x47d12e8f09deae07d76341eeb74cd9de6857a40f23e3f462bd8bb608c775a804",
      "blockNumber": "0x581a18",
      "gasUsed": "0x113db",
      "effectiveGasPrice": "0x75a3d5c0",
      "from": "0x34501ee677d8180522730e78c213fec1b53be5f0",
      "to": "0xddc3c94ec1c98c5b3eb1bfa5bb75294d0c436875",
      "contractAddress": null
    },
    {
      "status": "0x1",
      "cumulativeGasUsed": "0x1601573",
      "logs": [
        {
          "address": "0x481a61fb7c9eaddd5069fe2f6134b22ab8ee6489",
          "topics": [
            "0x8c5be1e5ebec7d5bd14f71427d1e84f3dd0314c0f7b2291e5b200ac8c7c3b925",
            "0x00000000000000000000000034501ee677d8180522730e78c213fec1b53be5f0",
            "0x000000000000000000000000ddc3c94ec1c98c5b3eb1bfa5bb75294d0c436875"
          ],
          "data": "0x0000000000000000000000000000000000000000000000000000000000000001",
          "blockHash": "0x47d12e8f09deae07d76341eeb74cd9de6857a40f23e3f462bd8bb608c775a804",
          "blockNumber": "0x581a18",
          "transactionHash": "0x31bf7b515b29c6bb541b2c8c52b1f0027cd662baf11f63bb0aca7bf148794912",
          "transactionIndex": "0x96",
          "logIndex": "0xd4",
          "removed": false
        }
      ],
      "logsBloom": "0x00000000000000001000000000000000000000200000000000000000000000000000002000000000000000000000000000000000000000000000000400200000000010000000000000000000000000000000000000000000000000000000000000000000000000000000000000000000000100000000000000000400000000000000000000000000000000000000000000000000000000000000000000000000020000000000000000000000000000000000000000000000000000000000000000000000000000000000400000000001000000000000000000000000000000000010000000000000000000000000000000000000000000000000000000000000",
      "type": "0x0",
      "transactionHash": "0x31bf7b515b29c6bb541b2c8c52b1f0027cd662baf11f63bb0aca7bf148794912",
      "transactionIndex": "0x96",
      "blockHash": "0x47d12e8f09deae07d76341eeb74cd9de6857a40f23e3f462bd8bb608c775a804",
      "blockNumber": "0x581a18",
      "gasUsed": "0xb4e7",
      "effectiveGasPrice": "0x75a3d5c0",
      "from": "0x34501ee677d8180522730e78c213fec1b53be5f0",
      "to": "0x481a61fb7c9eaddd5069fe2f6134b22ab8ee6489",
      "contractAddress": null
    },
    {
      "status": "0x1",
      "cumulativeGasUsed": "0x1612b9b",
      "logs": [
        {
          "address": "0x481a61fb7c9eaddd5069fe2f6134b22ab8ee6489",
          "topics": [
            "0xddf252ad1be2c89b69c2b068fc378daa952ba7f163c4a11628f55a4df523b3ef",
            "0x00000000000000000000000034501ee677d8180522730e78c213fec1b53be5f0",
            "0x000000000000000000000000ddc3c94ec1c98c5b3eb1bfa5bb75294d0c436875"
          ],
          "data": "0x0000000000000000000000000000000000000000000000000000000000000001",
          "blockHash": "0x47d12e8f09deae07d76341eeb74cd9de6857a40f23e3f462bd8bb608c775a804",
          "blockNumber": "0x581a18",
          "transactionHash": "0xcec447809ceb6d5777819e54ca5f6edf1808c7e84f41501973802f9a0d860fb1",
          "transactionIndex": "0x97",
          "logIndex": "0xd5",
          "removed": false
        },
        {
          "address": "0xddc3c94ec1c98c5b3eb1bfa5bb75294d0c436875",
          "topics": [
            "0xddf252ad1be2c89b69c2b068fc378daa952ba7f163c4a11628f55a4df523b3ef",
            "0x000000000000000000000000ddc3c94ec1c98c5b3eb1bfa5bb75294d0c436875",
            "0x00000000000000000000000034501ee677d8180522730e78c213fec1b53be5f0"
          ],
          "data": "0x0000000000000000000000000000000000000000000000000000000000000064",
          "blockHash": "0x47d12e8f09deae07d76341eeb74cd9de6857a40f23e3f462bd8bb608c775a804",
          "blockNumber": "0x581a18",
          "transactionHash": "0xcec447809ceb6d5777819e54ca5f6edf1808c7e84f41501973802f9a0d860fb1",
          "transactionIndex": "0x97",
          "logIndex": "0xd6",
          "removed": false
        }
      ],
      "logsBloom": "0x00000000000000001000000000000000000000200000000000000000000000000000002000000000000000000000000000000000000000000000000400000000000010000000000000000008000000000000000000000000000000000000000000000000000000000000000000000000000100000000000000000410000000000000000000000000000000000000000000000000000000000000000000000000000000000000000000000000000000000000000000000000000000000000000000000002000000000001400002000001000000000000000000000000000000000000000000000000000000000000000000000008000000000000000000000000",
      "type": "0x0",
      "transactionHash": "0xcec447809ceb6d5777819e54ca5f6edf1808c7e84f41501973802f9a0d860fb1",
      "transactionIndex": "0x97",
      "blockHash": "0x47d12e8f09deae07d76341eeb74cd9de6857a40f23e3f462bd8bb608c775a804",
      "blockNumber": "0x581a18",
      "gasUsed": "0x11628",
      "effectiveGasPrice": "0x75a3d5c0",
      "from": "0x34501ee677d8180522730e78c213fec1b53be5f0",
      "to": "0xddc3c94ec1c98c5b3eb1bfa5bb75294d0c436875",
      "contractAddress": null
    }
  ],
  "libraries": [],
  "pending": [],
  "returns": {},
  "timestamp": 1714098927,
  "chain": 11155111,
  "commit": "9c02021"
}