{
  "transactions": [
    {
      "hash": "0x06e86c9a233e8869683200937e47b26847fb77be7d2c77158b4e61f8272d4422",
      "transactionType": "CALL",
      "contractName": null,
      "contractAddress": "0x481a61fb7c9eaddd5069fe2f6134b22ab8ee6489",
      "function": "mint(address,uint256)",
      "arguments": [
        "0x34501EE677d8180522730e78C213Fec1b53Be5F0",
        "10000000000"
      ],
      "transaction": {
        "from": "0x34501ee677d8180522730e78c213fec1b53be5f0",
        "to": "0x481a61fb7c9eaddd5069fe2f6134b22ab8ee6489",
        "gas": "0xbfe4",
        "value": "0x0",
        "input": "0x40c10f1900000000000000000000000034501ee677d8180522730e78c213fec1b53be5f000000000000000000000000000000000000000000000000000000002540be400",
        "nonce": "0x33",
        "chainId": "0xaa36a7",
        "accessList": null,
        "type": null
      },
      "additionalContracts": [],
      "isFixedGasLimit": false
    },
    {
      "hash": "0xed58a04b3929d06279c199d8c01271ca9467fa3182db53ecbeb66a1e062f038e",
      "transactionType": "CALL",
      "contractName": null,
      "contractAddress": "0x481a61fb7c9eaddd5069fe2f6134b22ab8ee6489",
      "function": "approve(address,uint256)",
      "arguments": [
        "0x5803CdB747e1552Be21C5FCa63228aA3D2622873",
        "80999993950"
      ],
      "transaction": {
        "from": "0x34501ee677d8180522730e78c213fec1b53be5f0",
        "to": "0x481a61fb7c9eaddd5069fe2f6134b22ab8ee6489",
        "gas": "0xa726",
        "value": "0x0",
        "input": "0x095ea7b30000000000000000000000005803cdb747e1552be21c5fca63228aa3d262287300000000000000000000000000000000000000000000000000000012dbf9d25e",
        "nonce": "0x34",
        "chainId": "0xaa36a7",
        "accessList": null,
        "type": null
      },
      "additionalContracts": [],
      "isFixedGasLimit": false
    },
    {
      "hash": "0x8821dfb6d13fa305e894273fc1469b09599b4ed47022e9f8dbd65d3384ffdea4",
      "transactionType": "CALL",
      "contractName": null,
      "contractAddress": "0x481a61fb7c9eaddd5069fe2f6134b22ab8ee6489",
      "function": "approve(address,uint256)",
      "arguments": [
        "0xDdc3c94eC1C98c5b3eb1bfa5Bb75294D0C436875",
        "80999993950"
      ],
      "transaction": {
        "from": "0x34501ee677d8180522730e78c213fec1b53be5f0",
        "to": "0x481a61fb7c9eaddd5069fe2f6134b22ab8ee6489",
        "gas": "0xfa20",
        "value": "0x0",
        "input": "0x095ea7b3000000000000000000000000ddc3c94ec1c98c5b3eb1bfa5bb75294d0c43687500000000000000000000000000000000000000000000000000000012dbf9d25e",
        "nonce": "0x35",
        "chainId": "0xaa36a7",
        "accessList": null,
        "type": null
      },
      "additionalContracts": [],
      "isFixedGasLimit": false
    },
    {
      "hash": "0x88aa11d45159b9558c793f283c5e7d9c2603132d65f3ca1776a2979ef4091c13",
      "transactionType": "CALL",
      "contractName": null,
      "contractAddress": "0xddc3c94ec1c98c5b3eb1bfa5bb75294d0c436875",
      "function": "deposit(uint256)",
      "arguments": [
        "2000"
      ],
      "transaction": {
        "from": "0x34501ee677d8180522730e78c213fec1b53be5f0",
        "to": "0xddc3c94ec1c98c5b3eb1bfa5bb75294d0c436875",
        "gas": "0x3100a",
        "value": "0x0",
        "input": "0xb6b55f2500000000000000000000000000000000000000000000000000000000000007d0",
        "nonce": "0x36",
        "chainId": "0xaa36a7",
        "accessList": null,
        "type": null
      },
      "additionalContracts": [],
      "isFixedGasLimit": false
    },
    {
      "hash": "0xad55776fd1693262e58e799fc27f841fd3f8abc31771b38b758279f5a3147c05",
      "transactionType": "CALL",
      "contractName": null,
      "contractAddress": "0xddc3c94ec1c98c5b3eb1bfa5bb75294d0c436875",
      "function": "approve(address,uint256)",
      "arguments": [
        "0xDdc3c94eC1C98c5b3eb1bfa5Bb75294D0C436875",
        "1200"
      ],
      "transaction": {
        "from": "0x34501ee677d8180522730e78c213fec1b53be5f0",
        "to": "0xddc3c94ec1c98c5b3eb1bfa5bb75294d0c436875",
        "gas": "0x108c4",
        "value": "0x0",
        "input": "0x095ea7b3000000000000000000000000ddc3c94ec1c98c5b3eb1bfa5bb75294d0c43687500000000000000000000000000000000000000000000000000000000000004b0",
        "nonce": "0x37",
        "chainId": "0xaa36a7",
        "accessList": null,
        "type": null
      },
      "additionalContracts": [],
      "isFixedGasLimit": false
    },
    {
      "hash": "0xde34415f3471433c440f26f3e1f2b12eef8d9c47c0c807e0eab987c11d62cc9f",
      "transactionType": "CALL",
      "contractName": null,
      "contractAddress": "0xddc3c94ec1c98c5b3eb1bfa5bb75294d0c436875",
      "function": "borrow(address,uint256,address,uint256)",
      "arguments": [
        "0xDdc3c94eC1C98c5b3eb1bfa5Bb75294D0C436875",
        "1200",
        "0x481A61fB7c9EAdDD5069Fe2F6134b22AB8EE6489",
        "1000"
      ],
      "transaction": {
        "from": "0x34501ee677d8180522730e78c213fec1b53be5f0",
        "to": "0xddc3c94ec1c98c5b3eb1bfa5bb75294d0c436875",
        "gas": "0x3cd59",
        "value": "0x0",
        "input": "0xd0280539000000000000000000000000ddc3c94ec1c98c5b3eb1bfa5bb75294d0c43687500000000000000000000000000000000000000000000000000000000000004b0000000000000000000000000481a61fb7c9eaddd5069fe2f6134b22ab8ee648900000000000000000000000000000000000000000000000000000000000003e8",
        "nonce": "0x38",
        "chainId": "0xaa36a7",
        "accessList": null,
        "type": null
      },
      "additionalContracts": [],
      "isFixedGasLimit": false
    },
    {
      "hash": "0x12b4deef00bfab13e9c5cd17eb82919bec82b0a8010eed5391fe92399375c05a",
      "transactionType": "CALL",
      "contractName": null,
      "contractAddress": "0x481a61fb7c9eaddd5069fe2f6134b22ab8ee6489",
      "function": "approve(address,uint256)",
      "arguments": [
        "0xDdc3c94eC1C98c5b3eb1bfa5Bb75294D0C436875",
        "10"
      ],
      "transaction": {
        "from": "0x34501ee677d8180522730e78c213fec1b53be5f0",
        "to": "0x481a61fb7c9eaddd5069fe2f6134b22ab8ee6489",
        "gas": "0xa6e0",
        "value": "0x0",
        "input": "0x095ea7b3000000000000000000000000ddc3c94ec1c98c5b3eb1bfa5bb75294d0c436875000000000000000000000000000000000000000000000000000000000000000a",
        "nonce": "0x39",
        "chainId": "0xaa36a7",
        "accessList": null,
        "type": null
      },
      "additionalContracts": [],
      "isFixedGasLimit": false
    },
    {
      "hash": "0x57d32bea8bf16e2bbd493784487c88deeac651be927e16d4daa65ed93d4c7980",
      "transactionType": "CALL",
      "contractName": null,
      "contractAddress": "0xddc3c94ec1c98c5b3eb1bfa5bb75294d0c436875",
      "function": "repayment(address,uint256,address,uint256)",
      "arguments": [
        "0xDdc3c94eC1C98c5b3eb1bfa5Bb75294D0C436875",
        "10",
        "0x481A61fB7c9EAdDD5069Fe2F6134b22AB8EE6489",
        "10"
      ],
      "transaction": {
        "from": "0x34501ee677d8180522730e78c213fec1b53be5f0",
        "to": "0xddc3c94ec1c98c5b3eb1bfa5bb75294d0c436875",
        "gas": "0x203f3",
        "value": "0x0",
        "input": "0x6cca3c2f000000000000000000000000ddc3c94ec1c98c5b3eb1bfa5bb75294d0c436875000000000000000000000000000000000000000000000000000000000000000a000000000000000000000000481a61fb7c9eaddd5069fe2f6134b22ab8ee6489000000000000000000000000000000000000000000000000000000000000000a",
        "nonce": "0x3a",
        "chainId": "0xaa36a7",
        "accessList": null,
        "type": null
      },
      "additionalContracts": [],
      "isFixedGasLimit": false
    }
  ],
  "receipts": [
    {
      "status": "0x1",
      "cumulativeGasUsed": "0xc1c09b",
      "logs": [
        {
          "address": "0x481a61fb7c9eaddd5069fe2f6134b22ab8ee6489",
          "topics": [
            "0xddf252ad1be2c89b69c2b068fc378daa952ba7f163c4a11628f55a4df523b3ef",
            "0x0000000000000000000000000000000000000000000000000000000000000000",
            "0x00000000000000000000000034501ee677d8180522730e78c213fec1b53be5f0"
          ],
          "data": "0x00000000000000000000000000000000000000000000000000000002540be400",
          "blockHash": "0x0f532661702c14a3e177e00f0aa3eb81bb7b69a1fc1069e78fb58dc22294ecef",
          "blockNumber": "0x581a0b",
          "transactionHash": "0x06e86c9a233e8869683200937e47b26847fb77be7d2c77158b4e61f8272d4422",
          "transactionIndex": "0x84",
          "logIndex": "0x9c",
          "removed": false
        },
        {
          "address": "0x481a61fb7c9eaddd5069fe2f6134b22ab8ee6489",
          "topics": [
            "0x449a52f8290d0f7a93fd114212f0891c4eafca215815e758af65bf6d352a6551"
          ],
          "data": "0x00000000000000000000000034501ee677d8180522730e78c213fec1b53be5f000000000000000000000000000000000000000000000000000000002540be400",
          "blockHash": "0x0f532661702c14a3e177e00f0aa3eb81bb7b69a1fc1069e78fb58dc22294ecef",
          "blockNumber": "0x581a0b",
          "transactionHash": "0x06e86c9a233e8869683200937e47b26847fb77be7d2c77158b4e61f8272d4422",
          "transactionIndex": "0x84",
          "logIndex": "0x9d",
          "removed": false
        }
      ],
      "logsBloom": "0x00000000000000000020000000000000000000200000000000000000000000000000002000000000000000000000000000000000000000000000000000000000000000000000000000000008000000000002000000000000000000000000000000000000020000000000000000000800000100000000000000000410000000000000000000000000000000000000000000000000000000000000000000000000000000000000000200000000000000000000000000000000000000000000000000000002000000000000400000000001000000000000000000000000000020000000000000000000000000000000000000000000000000000000000000000000",
      "type": "0x0",
      "transactionHash": "0x06e86c9a233e8869683200937e47b26847fb77be7d2c77158b4e61f8272d4422",
      "transactionIndex": "0x84",
      "blockHash": "0x0f532661702c14a3e177e00f0aa3eb81bb7b69a1fc1069e78fb58dc22294ecef",
      "blockNumber": "0x581a0b",
      "gasUsed": "0x8aee",
      "effectiveGasPrice": "0x71bd6ff0",
      "from": "0x34501ee677d8180522730e78c213fec1b53be5f0",
      "to": "0x481a61fb7c9eaddd5069fe2f6134b22ab8ee6489",
      "contractAddress": null
    },
    {
      "status": "0x1",
      "cumulativeGasUsed": "0xc232e6",
      "logs": [
        {
          "address": "0x481a61fb7c9eaddd5069fe2f6134b22ab8ee6489",
          "topics": [
            "0x8c5be1e5ebec7d5bd14f71427d1e84f3dd0314c0f7b2291e5b200ac8c7c3b925",
            "0x00000000000000000000000034501ee677d8180522730e78c213fec1b53be5f0",
            "0x0000000000000000000000005803cdb747e1552be21c5fca63228aa3d2622873"
          ],
          "data": "0x00000000000000000000000000000000000000000000000000000012dbf9d25e",
          "blockHash": "0x0f532661702c14a3e177e00f0aa3eb81bb7b69a1fc1069e78fb58dc22294ecef",
          "blockNumber": "0x581a0b",
          "transactionHash": "0xed58a04b3929d06279c199d8c01271ca9467fa3182db53ecbeb66a1e062f038e",
          "transactionIndex": "0x85",
          "logIndex": "0x9e",
          "removed": false
        }
      ],
      "logsBloom": "0x00000002000000000000000000000000000000200000000000000000000000000000002000000000000000000000000000000000000000000000000000200004000000000000000000000000000000000000000000000000000000000000000000000000000000000000000000000000000100000000000000000400000000000000020000000000000000000000000000000000000000000000000000000000020000000000000000000000000000000000000000000000000000000000000000000000000000000000400000000001000000000000000000000000000000000010000000000000000000000000000000000000000000000000000000000000",
      "type": "0x0",
      "transactionHash": "0xed58a04b3929d06279c199d8c01271ca9467fa3182db53ecbeb66a1e062f038e",
      "transactionIndex": "0x85",
      "blockHash": "0x0f532661702c14a3e177e00f0aa3eb81bb7b69a1fc1069e78fb58dc22294ecef",
      "blockNumber": "0x581a0b",
      "gasUsed": "0x724b",
      "effectiveGasPrice": "0x71bd6ff0",
      "from": "0x34501ee677d8180522730e78c213fec1b53be5f0",
      "to": "0x481a61fb7c9eaddd5069fe2f6134b22ab8ee6489",
      "contractAddress": null
    },
    {
      "status": "0x1",
      "cumulativeGasUsed": "0xc2e7fd",
      "logs": [
        {
          "address": "0x481a61fb7c9eaddd5069fe2f6134b22ab8ee6489",
          "topics": [
            "0x8c5be1e5ebec7d5bd14f71427d1e84f3dd0314c0f7b2291e5b200ac8c7c3b925",
            "0x00000000000000000000000034501ee677d8180522730e78c213fec1b53be5f0",
            "0x000000000000000000000000ddc3c94ec1c98c5b3eb1bfa5bb75294d0c436875"
          ],
          "data": "0x00000000000000000000000000000000000000000000000000000012dbf9d25e",
          "blockHash": "0x0f532661702c14a3e177e00f0aa3eb81bb7b69a1fc1069e78fb58dc22294ecef",
          "blockNumber": "0x581a0b",
          "transactionHash": "0x8821dfb6d13fa305e894273fc1469b09599b4ed47022e9f8dbd65d3384ffdea4",
          "transactionIndex": "0x86",
          "logIndex": "0x9f",
          "removed": false
        }
      ],
      "logsBloom": "0x00000000000000001000000000000000000000200000000000000000000000000000002000000000000000000000000000000000000000000000000400200000000010000000000000000000000000000000000000000000000000000000000000000000000000000000000000000000000100000000000000000400000000000000000000000000000000000000000000000000000000000000000000000000020000000000000000000000000000000000000000000000000000000000000000000000000000000000400000000001000000000000000000000000000000000010000000000000000000000000000000000000000000000000000000000000",
      "type": "0x0",
      "transactionHash": "0x8821dfb6d13fa305e894273fc1469b09599b4ed47022e9f8dbd65d3384ffdea4",
      "transactionIndex": "0x86",
      "blockHash": "0x0f532661702c14a3e177e00f0aa3eb81bb7b69a1fc1069e78fb58dc22294ecef",
      "blockNumber": "0x581a0b",
      "gasUsed": "0xb517",
      "effectiveGasPrice": "0x71bd6ff0",
      "from": "0x34501ee677d8180522730e78c213fec1b53be5f0",
      "to": "0x481a61fb7c9eaddd5069fe2f6134b22ab8ee6489",
      "contractAddress": null
    },
    {
      "status": "0x1",
      "cumulativeGasUsed": "0xc50016",
      "logs": [
        {
          "address": "0x481a61fb7c9eaddd5069fe2f6134b22ab8ee6489",
          "topics": [
            "0xddf252ad1be2c89b69c2b068fc378daa952ba7f163c4a11628f55a4df523b3ef",
            "0x00000000000000000000000034501ee677d8180522730e78c213fec1b53be5f0",
            "0x000000000000000000000000ddc3c94ec1c98c5b3eb1bfa5bb75294d0c436875"
          ],
          "data": "0x00000000000000000000000000000000000000000000000000000000000007d0",
          "blockHash": "0x0f532661702c14a3e177e00f0aa3eb81bb7b69a1fc1069e78fb58dc22294ecef",
          "blockNumber": "0x581a0b",
          "transactionHash": "0x88aa11d45159b9558c793f283c5e7d9c2603132d65f3ca1776a2979ef4091c13",
          "transactionIndex": "0x87",
          "logIndex": "0xa0",
          "removed": false
        },
        {
          "address": "0xddc3c94ec1c98c5b3eb1bfa5bb75294d0c436875",
          "topics": [
            "0xddf252ad1be2c89b69c2b068fc378daa952ba7f163c4a11628f55a4df523b3ef",
            "0x0000000000000000000000000000000000000000000000000000000000000000",
            "0x00000000000000000000000034501ee677d8180522730e78c213fec1b53be5f0"
          ],
          "data": "0x0000000000000000000000000000000000000000000000000000002e90ed89b0",
          "blockHash": "0x0f532661702c14a3e177e00f0aa3eb81bb7b69a1fc1069e78fb58dc22294ecef",
          "blockNumber": "0x581a0b",
          "transactionHash": "0x88aa11d45159b9558c793f283c5e7d9c2603132d65f3ca1776a2979ef4091c13",
          "transactionIndex": "0x87",
          "logIndex": "0xa1",
          "removed": false
        },
        {
          "address": "0xddc3c94ec1c98c5b3eb1bfa5bb75294d0c436875",
          "topics": [
            "0xffaad6a51867cde4125cd8ca83b3ebe39a412938c5be43e149bad7e431112ba2",
            "0x00000000000000000000000034501ee677d8180522730e78c213fec1b53be5f0"
          ],
          "data": "0x00000000000000000000000000000000000000000000000000000000000007d0",
          "blockHash": "0x0f532661702c14a3e177e00f0aa3eb81bb7b69a1fc1069e78fb58dc22294ecef",
          "blockNumber": "0x581a0b",
          "transactionHash": "0x88aa11d45159b9558c793f283c5e7d9c2603132d65f3ca1776a2979ef4091c13",
          "transactionIndex": "0x87",
          "logIndex": "0xa2",
          "removed": false
        }
      ],
      "logsBloom": "0x00000000000000009000000000000000000000200000000000000000000000000000002000000000000000000000000000000000000000000000000400000010000010000000000000000008000000000000000000000000000000000000000000000000020000000000000000000800000100000000000000000410000000000000000000000000000000000000000000000000000000000000000000000000000000080000000000000000000000000000000000000000000000000000000000000002000000000001400002000001000000000000000000000000000020000000000000000000000000000000000000000008000000000000000000000000",
      "type": "0x0",
      "transactionHash": "0x88aa11d45159b9558c793f283c5e7d9c2603132d65f3ca1776a2979ef4091c13",
      "transactionIndex": "0x87",
      "blockHash": "0x0f532661702c14a3e177e00f0aa3eb81bb7b69a1fc1069e78fb58dc22294ecef",
      "blockNumber": "0x581a0b",
      "gasUsed": "0x21819",
      "effectiveGasPrice": "0x71bd6ff0",
      "from": "0x34501ee677d8180522730e78c213fec1b53be5f0",
      "to": "0xddc3c94ec1c98c5b3eb1bfa5bb75294d0c436875",
      "contractAddress": null
    },
    {
      "status": "0x1",
      "cumulativeGasUsed": "0xc5b520",
      "logs": [
        {
          "address": "0xddc3c94ec1c98c5b3eb1bfa5bb75294d0c436875",
          "topics": [
            "0x8c5be1e5ebec7d5bd14f71427d1e84f3dd0314c0f7b2291e5b200ac8c7c3b925",
            "0x00000000000000000000000034501ee677d8180522730e78c213fec1b53be5f0",
            "0x000000000000000000000000ddc3c94ec1c98c5b3eb1bfa5bb75294d0c436875"
          ],
          "data": "0x00000000000000000000000000000000000000000000000000000000000004b0",
          "blockHash": "0x0f532661702c14a3e177e00f0aa3eb81bb7b69a1fc1069e78fb58dc22294ecef",
          "blockNumber": "0x581a0b",
          "transactionHash": "0xad55776fd1693262e58e799fc27f841fd3f8abc31771b38b758279f5a3147c05",
          "transactionIndex": "0x88",
          "logIndex": "0xa3",
          "removed": false
        }
      ],
      "logsBloom": "0x00000000000000001000000000000000000000200000000000000000000000000000000000000000000000000000000000000000000000000000000400200000000010000000000000000000000000000000000000000000000000000000000000000000000000000000000000000000000100000000000000000000000000000000000000000000000000000000000000000000000000000000000000000000020000000000000000000000000000000000000000000000000000000000000000000000000000000001000002000001000000000000000000000000000000000010000000000000000000000000000000000008000000000000000000000000",
      "type": "0x0",
      "transactionHash": "0xad55776fd1693262e58e799fc27f841fd3f8abc31771b38b758279f5a3147c05",
      "transactionIndex": "0x88",
      "blockHash": "0x0f532661702c14a3e177e00f0aa3eb81bb7b69a1fc1069e78fb58dc22294ecef",
      "blockNumber": "0x581a0b",
      "gasUsed": "0xb50a",
      "effectiveGasPrice": "0x71bd6ff0",
      "from": "0x34501ee677d8180522730e78c213fec1b53be5f0",
      "to": "0xddc3c94ec1c98c5b3eb1bfa5bb75294d0c436875",
      "contractAddress": null
    },
    {
      "status": "0x1",
      "cumulativeGasUsed": "0xc875d0",
      "logs": [
        {
          "address": "0xddc3c94ec1c98c5b3eb1bfa5bb75294d0c436875",
          "topics": [
            "0x10e6ffbf70ea11db87f1498a9f8c54026213877a9f5beb696c705b476ddc053c",
            "0x00000000000000000000000034501ee677d8180522730e78c213fec1b53be5f0"
          ],
          "data": "0x000000000000000000000000ddc3c94ec1c98c5b3eb1bfa5bb75294d0c43687500000000000000000000000000000000000000000000000000000000000004b0000000000000000000000000481a61fb7c9eaddd5069fe2f6134b22ab8ee648900000000000000000000000000000000000000000000000000000000000003e8",
          "blockHash": "0x0f532661702c14a3e177e00f0aa3eb81bb7b69a1fc1069e78fb58dc22294ecef",
          "blockNumber": "0x581a0b",
          "transactionHash": "0xde34415f3471433c440f26f3e1f2b12eef8d9c47c0c807e0eab987c11d62cc9f",
          "transactionIndex": "0x89",
          "logIndex": "0xa4",
          "removed": false
        },
        {
          "address": "0xddc3c94ec1c98c5b3eb1bfa5bb75294d0c436875",
          "topics": [
            "0xddf252ad1be2c89b69c2b068fc378daa952ba7f163c4a11628f55a4df523b3ef",
            "0x00000000000000000000000034501ee677d8180522730e78c213fec1b53be5f0",
            "0x000000000000000000000000ddc3c94ec1c98c5b3eb1bfa5bb75294d0c436875"
          ],
          "data": "0x00000000000000000000000000000000000000000000000000000000000004b0",
          "blockHash": "0x0f532661702c14a3e177e00f0aa3eb81bb7b69a1fc1069e78fb58dc22294ecef",
          "blockNumber": "0x581a0b",
          "transactionHash": "0xde34415f3471433c440f26f3e1f2b12eef8d9c47c0c807e0eab987c11d62cc9f",
          "transactionIndex": "0x89",
          "logIndex": "0xa5",
          "removed": false
        },
        {
          "address": "0x481a61fb7c9eaddd5069fe2f6134b22ab8ee6489",
          "topics": [
            "0xddf252ad1be2c89b69c2b068fc378daa952ba7f163c4a11628f55a4df523b3ef",
            "0x000000000000000000000000ddc3c94ec1c98c5b3eb1bfa5bb75294d0c436875",
            "0x00000000000000000000000034501ee677d8180522730e78c213fec1b53be5f0"
          ],
          "data": "0x00000000000000000000000000000000000000000000000000000000000003e8",
          "blockHash": "0x0f532661702c14a3e177e00f0aa3eb81bb7b69a1fc1069e78fb58dc22294ecef",
          "blockNumber": "0x581a0b",
          "transactionHash": "0xde34415f3471433c440f26f3e1f2b12eef8d9c47c0c807e0eab987c11d62cc9f",
          "transactionIndex": "0x89",
          "logIndex": "0xa6",
          "removed": false
        },
        {
          "address": "0xddc3c94ec1c98c5b3eb1bfa5bb75294d0c436875",
          "topics": [
            "0x3515b35de5139187b5f1cfc0684ee199a130937eae5916c3fb3d73124ae0c949",
            "0x00000000000000000000000034501ee677d8180522730e78c213fec1b53be5f0"
          ],
          "data": "0x000000000000000000000000481a61fb7c9eaddd5069fe2f6134b22ab8ee648900000000000000000000000000000000000000000000000000000000000003e8",
          "blockHash": "0x0f532661702c14a3e177e00f0aa3eb81bb7b69a1fc1069e78fb58dc22294ecef",
          "blockNumber": "0x581a0b",
          "transactionHash": "0xde34415f3471433c440f26f3e1f2b12eef8d9c47c0c807e0eab987c11d62cc9f",
          "transactionIndex": "0x89",
          "logIndex": "0xa7",
          "removed": false
        }
      ],
      "logsBloom": "0x00000000000000001000000000000000000000200000000000000000000000000000002000040000000000000000000000000040000000000000000400000000000010000000000000000008000000000000000000000000000000000000000000000000000000000000000000000000000100000000000000000410000000000000000000000000000000000000000000000000100000000000000000000000000000000000008000000000000000000000000000000000000000000000000000000002000000000001400002000001000040000000000004000000000000000000000000000000000000000000000000000008000000000000000000000000",
      "type": "0x0",
      "transactionHash": "0xde34415f3471433c440f26f3e1f2b12eef8d9c47c0c807e0eab987c11d62cc9f",
      "transactionIndex": "0x89",
      "blockHash": "0x0f532661702c14a3e177e00f0aa3eb81bb7b69a1fc1069e78fb58dc22294ecef",
      "blockNumber": "0x581a0b",
      "gasUsed": "0x2c0b0",
      "effectiveGasPrice": "0x71bd6ff0",
      "from": "0x34501ee677d8180522730e78c213fec1b53be5f0",
      "to": "0xddc3c94ec1c98c5b3eb1bfa5bb75294d0c436875",
      "contractAddress": null
    },
    {
      "status": "0x1",
      "cumulativeGasUsed": "0xc8e7eb",
      "logs": [
        {
          "address": "0x481a61fb7c9eaddd5069fe2f6134b22ab8ee6489",
          "topics": [
            "0x8c5be1e5ebec7d5bd14f71427d1e84f3dd0314c0f7b2291e5b200ac8c7c3b925",
            "0x00000000000000000000000034501ee677d8180522730e78c213fec1b53be5f0",
            "0x000000000000000000000000ddc3c94ec1c98c5b3eb1bfa5bb75294d0c436875"
          ],
          "data": "0x000000000000000000000000000000000000000000000000000000000000000a",
          "blockHash": "0x0f532661702c14a3e177e00f0aa3eb81bb7b69a1fc1069e78fb58dc22294ecef",
          "blockNumber": "0x581a0b",
          "transactionHash": "0x12b4deef00bfab13e9c5cd17eb82919bec82b0a8010eed5391fe92399375c05a",
          "transactionIndex": "0x8a",
          "logIndex": "0xa8",
          "removed": false
        }
      ],
      "logsBloom": "0x00000000000000001000000000000000000000200000000000000000000000000000002000000000000000000000000000000000000000000000000400200000000010000000000000000000000000000000000000000000000000000000000000000000000000000000000000000000000100000000000000000400000000000000000000000000000000000000000000000000000000000000000000000000020000000000000000000000000000000000000000000000000000000000000000000000000000000000400000000001000000000000000000000000000000000010000000000000000000000000000000000000000000000000000000000000",
      "type": "0x0",
      "transactionHash": "0x12b4deef00bfab13e9c5cd17eb82919bec82b0a8010eed5391fe92399375c05a",
      "transactionIndex": "0x8a",
      "blockHash": "0x0f532661702c14a3e177e00f0aa3eb81bb7b69a1fc1069e78fb58dc22294ecef",
      "blockNumber": "0x581a0b",
      "gasUsed": "0x721b",
      "effectiveGasPrice": "0x71bd6ff0",
      "from": "0x34501ee677d8180522730e78c213fec1b53be5f0",
      "to": "0x481a61fb7c9eaddd5069fe2f6134b22ab8ee6489",
      "contractAddress": null
    },
    {
      "status": "0x1",
      "cumulativeGasUsed": "0xca48b5",
      "logs": [
        {
          "address": "0xddc3c94ec1c98c5b3eb1bfa5bb75294d0c436875",
          "topics": [
            "0x10e6ffbf70ea11db87f1498a9f8c54026213877a9f5beb696c705b476ddc053c",
            "0x00000000000000000000000034501ee677d8180522730e78c213fec1b53be5f0"
          ],
          "data": "0x000000000000000000000000ddc3c94ec1c98c5b3eb1bfa5bb75294d0c43687500000000000000000000000000000000000000000000000000000000000004a6000000000000000000000000481a61fb7c9eaddd5069fe2f6134b22ab8ee648900000000000000000000000000000000000000000000000000000000000003de",
          "blockHash": "0x0f532661702c14a3e177e00f0aa3eb81bb7b69a1fc1069e78fb58dc22294ecef",
          "blockNumber": "0x581a0b",
          "transactionHash": "0x57d32bea8bf16e2bbd493784487c88deeac651be927e16d4daa65ed93d4c7980",
          "transactionIndex": "0x8b",
          "logIndex": "0xa9",
          "removed": false
        },
        {
          "address": "0xddc3c94ec1c98c5b3eb1bfa5bb75294d0c436875",
          "topics": [
            "0xddf252ad1be2c89b69c2b068fc378daa952ba7f163c4a11628f55a4df523b3ef",
            "0x000000000000000000000000ddc3c94ec1c98c5b3eb1bfa5bb75294d0c436875",
            "0x00000000000000000000000034501ee677d8180522730e78c213fec1b53be5f0"
          ],
          "data": "0x000000000000000000000000000000000000000000000000000000000000000a",
          "blockHash": "0x0f532661702c14a3e177e00f0aa3eb81bb7b69a1fc1069e78fb58dc22294ecef",
          "blockNumber": "0x581a0b",
          "transactionHash": "0x57d32bea8bf16e2bbd493784487c88deeac651be927e16d4daa65ed93d4c7980",
          "transactionIndex": "0x8b",
          "logIndex": "0xaa",
          "removed": false
        },
        {
          "address": "0x481a61fb7c9eaddd5069fe2f6134b22ab8ee6489",
          "topics": [
            "0xddf252ad1be2c89b69c2b068fc378daa952ba7f163c4a11628f55a4df523b3ef",
            "0x00000000000000000000000034501ee677d8180522730e78c213fec1b53be5f0",
            "0x000000000000000000000000ddc3c94ec1c98c5b3eb1bfa5bb75294d0c436875"
          ],
          "data": "0x000000000000000000000000000000000000000000000000000000000000000a",
          "blockHash": "0x0f532661702c14a3e177e00f0aa3eb81bb7b69a1fc1069e78fb58dc22294ecef",
          "blockNumber": "0x581a0b",
          "transactionHash": "0x57d32bea8bf16e2bbd493784487c88deeac651be927e16d4daa65ed93d4c7980",
          "transactionIndex": "0x8b",
          "logIndex": "0xab",
          "removed": false
        },
        {
          "address": "0xddc3c94ec1c98c5b3eb1bfa5bb75294d0c436875",
          "topics": [
            "0xfc5616f01e1c1dbb08a12619251fb851d6b75274ceb88d493e5894a5eea00e68"
          ],
          "data": "0x00000000000000000000000034501ee677d8180522730e78c213fec1b53be5f0000000000000000000000000481a61fb7c9eaddd5069fe2f6134b22ab8ee6489000000000000000000000000000000000000000000000000000000000000000a",
          "blockHash": "0x0f532661702c14a3e177e00f0aa3eb81bb7b69a1fc1069e78fb58dc22294ecef",
          "blockNumber": "0x581a0b",
          "transactionHash": "0x57d32bea8bf16e2bbd493784487c88deeac651be927e16d4daa65ed93d4c7980",
          "transactionIndex": "0x8b",
          "logIndex": "0xac",
          "removed": false
        }
      ],
      "logsBloom": "0x00000000000000001000000000000000000000200000000000000000000000000000002000000000000000000000000000000000000000000000000400000000000010000000000000000008000000000000000000000000000004000000000000000000000000000000000000000000000100000000000000000410000000000000000000000000000000000000000000000000100000000000000000000000000000000000008000000000000000000000000000000000000000000000000000000002000000000001400002000001000040000000000000000000000000000000000000000000000000400000000000800008000000000000000000000000",
      "type": "0x0",
      "transactionHash": "0x57d32bea8bf16e2bbd493784487c88deeac651be927e16d4daa65ed93d4c7980",
      "transactionIndex": "0x8b",
      "blockHash": "0x0f532661702c14a3e177e00f0aa3eb81bb7b69a1fc1069e78fb58dc22294ecef",
      "blockNumber": "0x581a0b",
      "gasUsed": "0x160ca",
      "effectiveGasPrice": "0x71bd6ff0",
      "from": "0x34501ee677d8180522730e78c213fec1b53be5f0",
      "to": "0xddc3c94ec1c98c5b3eb1bfa5bb75294d0c436875",
      "contractAddress": null
    }
  ],
  "libraries": [],
  "pending": [],
  "returns": {},
  "timestamp": 1714098766,
  "chain": 11155111,
  "commit": "9c02021"
}