{
  "transactions": [
    {
      "hash": "0xbcb281947e1650499bd5713cd68b1c2a4a128693718fd33a0d3198ccdd8c3c0e",
      "transactionType": "CALL",
      "contractName": null,
      "contractAddress": "0x481a61fb7c9eaddd5069fe2f6134b22ab8ee6489",
      "function": "mint(address,uint256)",
      "arguments": [
        "0x34501EE677d8180522730e78C213Fec1b53Be5F0",
        "10000000000"
      ],
      "transaction": {
        "from": "0x34501ee677d8180522730e78c213fec1b53be5f0",
        "to": "0x481a61fb7c9eaddd5069fe2f6134b22ab8ee6489",
        "gas": "0xbfe4",
        "value": "0x0",
        "input": "0x40c10f1900000000000000000000000034501ee677d8180522730e78c213fec1b53be5f000000000000000000000000000000000000000000000000000000002540be400",
        "nonce": "0x12",
        "chainId": "0xaa36a7",
        "accessList": null,
        "type": null
      },
      "additionalContracts": [],
      "isFixedGasLimit": false
    },
    {
      "hash": "0x57c345f24b667b4dfce293a90bf5af3b773d9544558b58fb6d5d9fe6b517208c",
      "transactionType": "CALL",
      "contractName": null,
      "contractAddress": "0x481a61fb7c9eaddd5069fe2f6134b22ab8ee6489",
      "function": "approve(address,uint256)",
      "arguments": [
        "0x5803CdB747e1552Be21C5FCa63228aA3D2622873",
        "40999997990"
      ],
      "transaction": {
        "from": "0x34501ee677d8180522730e78c213fec1b53be5f0",
        "to": "0x481a61fb7c9eaddd5069fe2f6134b22ab8ee6489",
        "gas": "0xa726",
        "value": "0x0",
        "input": "0x095ea7b30000000000000000000000005803cdb747e1552be21c5fca63228aa3d2622873000000000000000000000000000000000000000000000000000000098bca5226",
        "nonce": "0x13",
        "chainId": "0xaa36a7",
        "accessList": null,
        "type": null
      },
      "additionalContracts": [],
      "isFixedGasLimit": false
    },
    {
      "hash": "0x884c286d604e47f74f26ddddd9be607117eb80018c8e8b3fbf081f81e697c914",
      "transactionType": "CALL",
      "contractName": null,
      "contractAddress": "0x481a61fb7c9eaddd5069fe2f6134b22ab8ee6489",
      "function": "approve(address,uint256)",
      "arguments": [
        "0x87A0E260Ed9C18bfb95eAfE1a1e6fc07f0C3B16C",
        "40999997990"
      ],
      "transaction": {
        "from": "0x34501ee677d8180522730e78c213fec1b53be5f0",
        "to": "0x481a61fb7c9eaddd5069fe2f6134b22ab8ee6489",
        "gas": "0xfa20",
        "value": "0x0",
        "input": "0x095ea7b300000000000000000000000087a0e260ed9c18bfb95eafe1a1e6fc07f0c3b16c000000000000000000000000000000000000000000000000000000098bca5226",
        "nonce": "0x14",
        "chainId": "0xaa36a7",
        "accessList": null,
        "type": null
      },
      "additionalContracts": [],
      "isFixedGasLimit": false
    },
    {
      "hash": "0x1856538c7e2a137e710788c18227cb9e05865ec8f92ae350569d63fcc9906a4b",
      "transactionType": "CALL",
      "contractName": null,
      "contractAddress": "0x87a0e260ed9c18bfb95eafe1a1e6fc07f0c3b16c",
      "function": "deposit(uint256)",
      "arguments": [
        "2000"
      ],
      "transaction": {
        "from": "0x34501ee677d8180522730e78c213fec1b53be5f0",
        "to": "0x87a0e260ed9c18bfb95eafe1a1e6fc07f0c3b16c",
        "gas": "0x30fea",
        "value": "0x0",
        "input": "0xb6b55f2500000000000000000000000000000000000000000000000000000000000007d0",
        "nonce": "0x15",
        "chainId": "0xaa36a7",
        "accessList": null,
        "type": null
      },
      "additionalContracts": [],
      "isFixedGasLimit": false
    },
    {
      "hash": "0x8dc0ea7c070e2ee861cca46f67e7ea07afd7e0a7b33be3802d086e0e2ef17675",
      "transactionType": "CALL",
      "contractName": null,
      "contractAddress": "0x87a0e260ed9c18bfb95eafe1a1e6fc07f0c3b16c",
      "function": "approve(address,uint256)",
      "arguments": [
        "0x87A0E260Ed9C18bfb95eAfE1a1e6fc07f0C3B16C",
        "1200"
      ],
      "transaction": {
        "from": "0x34501ee677d8180522730e78c213fec1b53be5f0",
        "to": "0x87a0e260ed9c18bfb95eafe1a1e6fc07f0c3b16c",
        "gas": "0x108c4",
        "value": "0x0",
        "input": "0x095ea7b300000000000000000000000087a0e260ed9c18bfb95eafe1a1e6fc07f0c3b16c00000000000000000000000000000000000000000000000000000000000004b0",
        "nonce": "0x16",
        "chainId": "0xaa36a7",
        "accessList": null,
        "type": null
      },
      "additionalContracts": [],
      "isFixedGasLimit": false
    },
    {
      "hash": "0x910a5190b9a563e3b6c2eac817033a472ebe45fecee43f1a2d0d9111fba3b630",
      "transactionType": "CALL",
      "contractName": null,
      "contractAddress": "0x87a0e260ed9c18bfb95eafe1a1e6fc07f0c3b16c",
      "function": "borrow(address,uint256,address,uint256)",
      "arguments": [
        "0x87A0E260Ed9C18bfb95eAfE1a1e6fc07f0C3B16C",
        "1200",
        "0x481A61fB7c9EAdDD5069Fe2F6134b22AB8EE6489",
        "1000"
      ],
      "transaction": {
        "from": "0x34501ee677d8180522730e78c213fec1b53be5f0",
        "to": "0x87a0e260ed9c18bfb95eafe1a1e6fc07f0c3b16c",
        "gas": "0x43be6",
        "value": "0x0",
        "input": "0xd028053900000000000000000000000087a0e260ed9c18bfb95eafe1a1e6fc07f0c3b16c00000000000000000000000000000000000000000000000000000000000004b0000000000000000000000000481a61fb7c9eaddd5069fe2f6134b22ab8ee648900000000000000000000000000000000000000000000000000000000000003e8",
        "nonce": "0x17",
        "chainId": "0xaa36a7",
        "accessList": null,
        "type": null
      },
      "additionalContracts": [],
      "isFixedGasLimit": false
    },
    {
      "hash": "0x6d03804ace5d34a32b1b273be15d65ba6013dda567bed6a2719664c56e7b5a9f",
      "transactionType": "CALL",
      "contractName": null,
      "contractAddress": "0x481a61fb7c9eaddd5069fe2f6134b22ab8ee6489",
      "function": "approve(address,uint256)",
      "arguments": [
        "0x87A0E260Ed9C18bfb95eAfE1a1e6fc07f0C3B16C",
        "10"
      ],
      "transaction": {
        "from": "0x34501ee677d8180522730e78c213fec1b53be5f0",
        "to": "0x481a61fb7c9eaddd5069fe2f6134b22ab8ee6489",
        "gas": "0xa6e0",
        "value": "0x0",
        "input": "0x095ea7b300000000000000000000000087a0e260ed9c18bfb95eafe1a1e6fc07f0c3b16c000000000000000000000000000000000000000000000000000000000000000a",
        "nonce": "0x18",
        "chainId": "0xaa36a7",
        "accessList": null,
        "type": null
      },
      "additionalContracts": [],
      "isFixedGasLimit": false
    },
    {
      "hash": "0x2f9fad623e5a92cade38092f133f81b265ee6557791892806888af3e237ae417",
      "transactionType": "CALL",
      "contractName": null,
      "contractAddress": "0x87a0e260ed9c18bfb95eafe1a1e6fc07f0c3b16c",
      "function": "repayment(address,uint256,address,uint256)",
      "arguments": [
        "0x87A0E260Ed9C18bfb95eAfE1a1e6fc07f0C3B16C",
        "10",
        "0x481A61fB7c9EAdDD5069Fe2F6134b22AB8EE6489",
        "10"
      ],
      "transaction": {
        "from": "0x34501ee677d8180522730e78c213fec1b53be5f0",
        "to": "0x87a0e260ed9c18bfb95eafe1a1e6fc07f0c3b16c",
        "gas": "0x22ca0",
        "value": "0x0",
        "input": "0x6cca3c2f00000000000000000000000087a0e260ed9c18bfb95eafe1a1e6fc07f0c3b16c000000000000000000000000000000000000000000000000000000000000000a000000000000000000000000481a61fb7c9eaddd5069fe2f6134b22ab8ee6489000000000000000000000000000000000000000000000000000000000000000a",
        "nonce": "0x19",
        "chainId": "0xaa36a7",
        "accessList": null,
        "type": null
      },
      "additionalContracts": [],
      "isFixedGasLimit": false
    }
  ],
  "receipts": [
    {
      "status": "0x1",
      "cumulativeGasUsed": "0x16f5afc",
      "logs": [
        {
          "address": "0x481a61fb7c9eaddd5069fe2f6134b22ab8ee6489",
          "topics": [
            "0xddf252ad1be2c89b69c2b068fc378daa952ba7f163c4a11628f55a4df523b3ef",
            "0x0000000000000000000000000000000000000000000000000000000000000000",
            "0x00000000000000000000000034501ee677d8180522730e78c213fec1b53be5f0"
          ],
          "data": "0x00000000000000000000000000000000000000000000000000000002540be400",
          "blockHash": "0x8137b2da6b711ea1f3812bf0224b583f28b8078566a1dbd8426700d3ab8137c2",
          "blockNumber": "0x581810",
          "transactionHash": "0xbcb281947e1650499bd5713cd68b1c2a4a128693718fd33a0d3198ccdd8c3c0e",
          "transactionIndex": "0xa5",
          "logIndex": "0xfd",
          "removed": false
        },
        {
          "address": "0x481a61fb7c9eaddd5069fe2f6134b22ab8ee6489",
          "topics": [
            "0x449a52f8290d0f7a93fd114212f0891c4eafca215815e758af65bf6d352a6551"
          ],
          "data": "0x00000000000000000000000034501ee677d8180522730e78c213fec1b53be5f000000000000000000000000000000000000000000000000000000002540be400",
          "blockHash": "0x8137b2da6b711ea1f3812bf0224b583f28b8078566a1dbd8426700d3ab8137c2",
          "blockNumber": "0x581810",
          "transactionHash": "0xbcb281947e1650499bd5713cd68b1c2a4a128693718fd33a0d3198ccdd8c3c0e",
          "transactionIndex": "0xa5",
          "logIndex": "0xfe",
          "removed": false
        }
      ],
      "logsBloom": "0x00000000000000000020000000000000000000200000000000000000000000000000002000000000000000000000000000000000000000000000000000000000000000000000000000000008000000000002000000000000000000000000000000000000020000000000000000000800000100000000000000000410000000000000000000000000000000000000000000000000000000000000000000000000000000000000000200000000000000000000000000000000000000000000000000000002000000000000400000000001000000000000000000000000000020000000000000000000000000000000000000000000000000000000000000000000",
      "type": "0x0",
      "transactionHash": "0xbcb281947e1650499bd5713cd68b1c2a4a128693718fd33a0d3198ccdd8c3c0e",
      "transactionIndex": "0xa5",
      "blockHash": "0x8137b2da6b711ea1f3812bf0224b583f28b8078566a1dbd8426700d3ab8137c2",
      "blockNumber": "0x581810",
      "gasUsed": "0x8aee",
      "effectiveGasPrice": "0xd40ed721",
      "from": "0x34501ee677d8180522730e78c213fec1b53be5f0",
      "to": "0x481a61fb7c9eaddd5069fe2f6134b22ab8ee6489",
      "contractAddress": null
    },
    {
      "status": "0x1",
      "cumulativeGasUsed": "0x16fcd47",
      "logs": [
        {
          "address": "0x481a61fb7c9eaddd5069fe2f6134b22ab8ee6489",
          "topics": [
            "0x8c5be1e5ebec7d5bd14f71427d1e84f3dd0314c0f7b2291e5b200ac8c7c3b925",
            "0x00000000000000000000000034501ee677d8180522730e78c213fec1b53be5f0",
            "0x0000000000000000000000005803cdb747e1552be21c5fca63228aa3d2622873"
          ],
          "data": "0x000000000000000000000000000000000000000000000000000000098bca5226",
          "blockHash": "0x8137b2da6b711ea1f3812bf0224b583f28b8078566a1dbd8426700d3ab8137c2",
          "blockNumber": "0x581810",
          "transactionHash": "0x57c345f24b667b4dfce293a90bf5af3b773d9544558b58fb6d5d9fe6b517208c",
          "transactionIndex": "0xa6",
          "logIndex": "0xff",
          "removed": false
        }
      ],
      "logsBloom": "0x00000002000000000000000000000000000000200000000000000000000000000000002000000000000000000000000000000000000000000000000000200004000000000000000000000000000000000000000000000000000000000000000000000000000000000000000000000000000100000000000000000400000000000000020000000000000000000000000000000000000000000000000000000000020000000000000000000000000000000000000000000000000000000000000000000000000000000000400000000001000000000000000000000000000000000010000000000000000000000000000000000000000000000000000000000000",
      "type": "0x0",
      "transactionHash": "0x57c345f24b667b4dfce293a90bf5af3b773d9544558b58fb6d5d9fe6b517208c",
      "transactionIndex": "0xa6",
      "blockHash": "0x8137b2da6b711ea1f3812bf0224b583f28b8078566a1dbd8426700d3ab8137c2",
      "blockNumber": "0x581810",
      "gasUsed": "0x724b",
      "effectiveGasPrice": "0xd40ed721",
      "from": "0x34501ee677d8180522730e78c213fec1b53be5f0",
      "to": "0x481a61fb7c9eaddd5069fe2f6134b22ab8ee6489",
      "contractAddress": null
    },
    {
      "status": "0x1",
      "cumulativeGasUsed": "0x170825e",
      "logs": [
        {
          "address": "0x481a61fb7c9eaddd5069fe2f6134b22ab8ee6489",
          "topics": [
            "0x8c5be1e5ebec7d5bd14f71427d1e84f3dd0314c0f7b2291e5b200ac8c7c3b925",
            "0x00000000000000000000000034501ee677d8180522730e78c213fec1b53be5f0",
            "0x00000000000000000000000087a0e260ed9c18bfb95eafe1a1e6fc07f0c3b16c"
          ],
          "data": "0x000000000000000000000000000000000000000000000000000000098bca5226",
          "blockHash": "0x8137b2da6b711ea1f3812bf0224b583f28b8078566a1dbd8426700d3ab8137c2",
          "blockNumber": "0x581810",
          "transactionHash": "0x884c286d604e47f74f26ddddd9be607117eb80018c8e8b3fbf081f81e697c914",
          "transactionIndex": "0xa7",
          "logIndex": "0x100",
          "removed": false
        }
      ],
      "logsBloom": "0x00000000000000000000000000000000000000200000000000000000000008000000002000000000000000000000000000000000040000000000000000200000000800000000000000000000000000000000000000000000000000000000000000000000000000000000000000000000000100000000000000000400000000000000000000000000000000000000000000000000000000000000000000000000020000000000000000000000000000000000000000000000000000000000000000000000000000000000400000000001000000000000000000000000000000000010000000000000000000000000000000000000000000000000000000000000",
      "type": "0x0",
      "transactionHash": "0x884c286d604e47f74f26ddddd9be607117eb80018c8e8b3fbf081f81e697c914",
      "transactionIndex": "0xa7",
      "blockHash": "0x8137b2da6b711ea1f3812bf0224b583f28b8078566a1dbd8426700d3ab8137c2",
      "blockNumber": "0x581810",
      "gasUsed": "0xb517",
      "effectiveGasPrice": "0xd40ed721",
      "from": "0x34501ee677d8180522730e78c213fec1b53be5f0",
      "to": "0x481a61fb7c9eaddd5069fe2f6134b22ab8ee6489",
      "contractAddress": null
    },
    {
      "status": "0x1",
      "cumulativeGasUsed": "0x1729a61",
      "logs": [
        {
          "address": "0x481a61fb7c9eaddd5069fe2f6134b22ab8ee6489",
          "topics": [
            "0xddf252ad1be2c89b69c2b068fc378daa952ba7f163c4a11628f55a4df523b3ef",
            "0x00000000000000000000000034501ee677d8180522730e78c213fec1b53be5f0",
            "0x00000000000000000000000087a0e260ed9c18bfb95eafe1a1e6fc07f0c3b16c"
          ],
          "data": "0x00000000000000000000000000000000000000000000000000000000000007d0",
          "blockHash": "0x8137b2da6b711ea1f3812bf0224b583f28b8078566a1dbd8426700d3ab8137c2",
          "blockNumber": "0x581810",
          "transactionHash": "0x1856538c7e2a137e710788c18227cb9e05865ec8f92ae350569d63fcc9906a4b",
          "transactionIndex": "0xa8",
          "logIndex": "0x101",
          "removed": false
        },
        {
          "address": "0x87a0e260ed9c18bfb95eafe1a1e6fc07f0c3b16c",
          "topics": [
            "0xddf252ad1be2c89b69c2b068fc378daa952ba7f163c4a11628f55a4df523b3ef",
            "0x0000000000000000000000000000000000000000000000000000000000000000",
            "0x00000000000000000000000034501ee677d8180522730e78c213fec1b53be5f0"
          ],
          "data": "0x0000000000000000000000000000000000000000000000000000002e90ed89b0",
          "blockHash": "0x8137b2da6b711ea1f3812bf0224b583f28b8078566a1dbd8426700d3ab8137c2",
          "blockNumber": "0x581810",
          "transactionHash": "0x1856538c7e2a137e710788c18227cb9e05865ec8f92ae350569d63fcc9906a4b",
          "transactionIndex": "0xa8",
          "logIndex": "0x102",
          "removed": false
        },
        {
          "address": "0x87a0e260ed9c18bfb95eafe1a1e6fc07f0c3b16c",
          "topics": [
            "0xffaad6a51867cde4125cd8ca83b3ebe39a412938c5be43e149bad7e431112ba2",
            "0x00000000000000000000000034501ee677d8180522730e78c213fec1b53be5f0"
          ],
          "data": "0x00000000000000000000000000000000000000000000000000000000000007d0",
          "blockHash": "0x8137b2da6b711ea1f3812bf0224b583f28b8078566a1dbd8426700d3ab8137c2",
          "blockNumber": "0x581810",
          "transactionHash": "0x1856538c7e2a137e710788c18227cb9e05865ec8f92ae350569d63fcc9906a4b",
          "transactionIndex": "0xa8",
          "logIndex": "0x103",
          "removed": false
        }
      ],
      "logsBloom": "0x00000000000000008000000000000000000000200000000000000000000008000000002000000000000000000000000000000000040000000000000000000010000800000000000000000008000000000000000000000000000000000000000000000000020000000000000000000800000100000000000000800410000000000000000100000000000000000000000000000000000000000000000000008000000000080000000000000000000000000000000000000000000000000000000000000002000000000000400000000001000000000000000000000000000020000000000000000000000000000000000000000000000000000000000000000000",
      "type": "0x0",
      "transactionHash": "0x1856538c7e2a137e710788c18227cb9e05865ec8f92ae350569d63fcc9906a4b",
      "transactionIndex": "0xa8",
      "blockHash": "0x8137b2da6b711ea1f3812bf0224b583f28b8078566a1dbd8426700d3ab8137c2",
      "blockNumber": "0x581810",
      "gasUsed": "0x21803",
      "effectiveGasPrice": "0xd40ed721",
      "from": "0x34501ee677d8180522730e78c213fec1b53be5f0",
      "to": "0x87a0e260ed9c18bfb95eafe1a1e6fc07f0c3b16c",
      "contractAddress": null
    },
    {
      "status": "0x1",
      "cumulativeGasUsed": "0x1734f6b",
      "logs": [
        {
          "address": "0x87a0e260ed9c18bfb95eafe1a1e6fc07f0c3b16c",
          "topics": [
            "0x8c5be1e5ebec7d5bd14f71427d1e84f3dd0314c0f7b2291e5b200ac8c7c3b925",
            "0x00000000000000000000000034501ee677d8180522730e78c213fec1b53be5f0",
            "0x00000000000000000000000087a0e260ed9c18bfb95eafe1a1e6fc07f0c3b16c"
          ],
          "data": "0x00000000000000000000000000000000000000000000000000000000000004b0",
          "blockHash": "0x8137b2da6b711ea1f3812bf0224b583f28b8078566a1dbd8426700d3ab8137c2",
          "blockNumber": "0x581810",
          "transactionHash": "0x8dc0ea7c070e2ee861cca46f67e7ea07afd7e0a7b33be3802d086e0e2ef17675",
          "transactionIndex": "0xa9",
          "logIndex": "0x104",
          "removed": false
        }
      ],
      "logsBloom": "0x00000000000000000000000000000000000000200000000000000000000008000000000000000000000000000000000000000000040000000000000000200000000800000000000000000000000000000000000000000000000000000000000000000000000000000000000000000000000100000000000000800000000000000000000100000000000000000000000000000000000000000000000000008000020000000000000000000000000000000000000000000000000000000000000000000000000000000000000000000001000000000000000000000000000000000010000000000000000000000000000000000000000000000000000000000000",
      "type": "0x0",
      "transactionHash": "0x8dc0ea7c070e2ee861cca46f67e7ea07afd7e0a7b33be3802d086e0e2ef17675",
      "transactionIndex": "0xa9",
      "blockHash": "0x8137b2da6b711ea1f3812bf0224b583f28b8078566a1dbd8426700d3ab8137c2",
      "blockNumber": "0x581810",
      "gasUsed": "0xb50a",
      "effectiveGasPrice": "0xd40ed721",
      "from": "0x34501ee677d8180522730e78c213fec1b53be5f0",
      "to": "0x87a0e260ed9c18bfb95eafe1a1e6fc07f0c3b16c",
      "contractAddress": null
    },
    {
      "status": "0x1",
      "cumulativeGasUsed": "0x176348c",
      "logs": [
        {
          "address": "0x87a0e260ed9c18bfb95eafe1a1e6fc07f0c3b16c",
          "topics": [
            "0x10e6ffbf70ea11db87f1498a9f8c54026213877a9f5beb696c705b476ddc053c",
            "0x00000000000000000000000034501ee677d8180522730e78c213fec1b53be5f0"
          ],
          "data": "0x00000000000000000000000087a0e260ed9c18bfb95eafe1a1e6fc07f0c3b16c00000000000000000000000000000000000000000000000000000000000004b0000000000000000000000000481a61fb7c9eaddd5069fe2f6134b22ab8ee648900000000000000000000000000000000000000000000000000000000000003e8",
          "blockHash": "0x8137b2da6b711ea1f3812bf0224b583f28b8078566a1dbd8426700d3ab8137c2",
          "blockNumber": "0x581810",
          "transactionHash": "0x910a5190b9a563e3b6c2eac817033a472ebe45fecee43f1a2d0d9111fba3b630",
          "transactionIndex": "0xaa",
          "logIndex": "0x105",
          "removed": false
        },
        {
          "address": "0x87a0e260ed9c18bfb95eafe1a1e6fc07f0c3b16c",
          "topics": [
            "0xddf252ad1be2c89b69c2b068fc378daa952ba7f163c4a11628f55a4df523b3ef",
            "0x00000000000000000000000034501ee677d8180522730e78c213fec1b53be5f0",
            "0x00000000000000000000000087a0e260ed9c18bfb95eafe1a1e6fc07f0c3b16c"
          ],
          "data": "0x00000000000000000000000000000000000000000000000000000000000004b0",
          "blockHash": "0x8137b2da6b711ea1f3812bf0224b583f28b8078566a1dbd8426700d3ab8137c2",
          "blockNumber": "0x581810",
          "transactionHash": "0x910a5190b9a563e3b6c2eac817033a472ebe45fecee43f1a2d0d9111fba3b630",
          "transactionIndex": "0xaa",
          "logIndex": "0x106",
          "removed": false
        },
        {
          "address": "0x481a61fb7c9eaddd5069fe2f6134b22ab8ee6489",
          "topics": [
            "0x8c5be1e5ebec7d5bd14f71427d1e84f3dd0314c0f7b2291e5b200ac8c7c3b925",
            "0x00000000000000000000000087a0e260ed9c18bfb95eafe1a1e6fc07f0c3b16c",
            "0x00000000000000000000000087a0e260ed9c18bfb95eafe1a1e6fc07f0c3b16c"
          ],
          "data": "0x00000000000000000000000000000000000000000000000000000000000003e8",
          "blockHash": "0x8137b2da6b711ea1f3812bf0224b583f28b8078566a1dbd8426700d3ab8137c2",
          "blockNumber": "0x581810",
          "transactionHash": "0x910a5190b9a563e3b6c2eac817033a472ebe45fecee43f1a2d0d9111fba3b630",
          "transactionIndex": "0xaa",
          "logIndex": "0x107",
          "removed": false
        },
        {
          "address": "0x481a61fb7c9eaddd5069fe2f6134b22ab8ee6489",
          "topics": [
            "0xddf252ad1be2c89b69c2b068fc378daa952ba7f163c4a11628f55a4df523b3ef",
            "0x00000000000000000000000087a0e260ed9c18bfb95eafe1a1e6fc07f0c3b16c",
            "0x00000000000000000000000034501ee677d8180522730e78c213fec1b53be5f0"
          ],
          "data": "0x00000000000000000000000000000000000000000000000000000000000003e8",
          "blockHash": "0x8137b2da6b711ea1f3812bf0224b583f28b8078566a1dbd8426700d3ab8137c2",
          "blockNumber": "0x581810",
          "transactionHash": "0x910a5190b9a563e3b6c2eac817033a472ebe45fecee43f1a2d0d9111fba3b630",
          "transactionIndex": "0xaa",
          "logIndex": "0x108",
          "removed": false
        },
        {
          "address": "0x87a0e260ed9c18bfb95eafe1a1e6fc07f0c3b16c",
          "topics": [
            "0x3515b35de5139187b5f1cfc0684ee199a130937eae5916c3fb3d73124ae0c949",
            "0x00000000000000000000000034501ee677d8180522730e78c213fec1b53be5f0"
          ],
          "data": "0x000000000000000000000000481a61fb7c9eaddd5069fe2f6134b22ab8ee648900000000000000000000000000000000000000000000000000000000000003e8",
          "blockHash": "0x8137b2da6b711ea1f3812bf0224b583f28b8078566a1dbd8426700d3ab8137c2",
          "blockNumber": "0x581810",
          "transactionHash": "0x910a5190b9a563e3b6c2eac817033a472ebe45fecee43f1a2d0d9111fba3b630",
          "transactionIndex": "0xaa",
          "logIndex": "0x109",
          "removed": false
        }
      ],
      "logsBloom": "0x00000000000000000000000000000000000000200000000000000000000008000000002000040000000000000000000000000040040000000000000000200000000800000000000000000008000000000000000000000000000000000000000000000000000000000000000000000000000100000000000000800410000000000000000100000000000000000000000000000000100000000000000000008000020000000000008000000000000000000000000000000000000000000000000000000002000000000000400000000001000040000000000004000000000000000010000000000000000000000000000000000000000000000000000000000000",
      "type": "0x0",
      "transactionHash": "0x910a5190b9a563e3b6c2eac817033a472ebe45fecee43f1a2d0d9111fba3b630",
      "transactionIndex": "0xaa",
      "blockHash": "0x8137b2da6b711ea1f3812bf0224b583f28b8078566a1dbd8426700d3ab8137c2",
      "blockNumber": "0x581810",
      "gasUsed": "0x2e521",
      "effectiveGasPrice": "0xd40ed721",
      "from": "0x34501ee677d8180522730e78c213fec1b53be5f0",
      "to": "0x87a0e260ed9c18bfb95eafe1a1e6fc07f0c3b16c",
      "contractAddress": null
    },
    {
      "status": "0x1",
      "cumulativeGasUsed": "0x176a6a7",
      "logs": [
        {
          "address": "0x481a61fb7c9eaddd5069fe2f6134b22ab8ee6489",
          "topics": [
            "0x8c5be1e5ebec7d5bd14f71427d1e84f3dd0314c0f7b2291e5b200ac8c7c3b925",
            "0x00000000000000000000000034501ee677d8180522730e78c213fec1b53be5f0",
            "0x00000000000000000000000087a0e260ed9c18bfb95eafe1a1e6fc07f0c3b16c"
          ],
          "data": "0x000000000000000000000000000000000000000000000000000000000000000a",
          "blockHash": "0x8137b2da6b711ea1f3812bf0224b583f28b8078566a1dbd8426700d3ab8137c2",
          "blockNumber": "0x581810",
          "transactionHash": "0x6d03804ace5d34a32b1b273be15d65ba6013dda567bed6a2719664c56e7b5a9f",
          "transactionIndex": "0xab",
          "logIndex": "0x10a",
          "removed": false
        }
      ],
      "logsBloom": "0x00000000000000000000000000000000000000200000000000000000000008000000002000000000000000000000000000000000040000000000000000200000000800000000000000000000000000000000000000000000000000000000000000000000000000000000000000000000000100000000000000000400000000000000000000000000000000000000000000000000000000000000000000000000020000000000000000000000000000000000000000000000000000000000000000000000000000000000400000000001000000000000000000000000000000000010000000000000000000000000000000000000000000000000000000000000",
      "type": "0x0",
      "transactionHash": "0x6d03804ace5d34a32b1b273be15d65ba6013dda567bed6a2719664c56e7b5a9f",
      "transactionIndex": "0xab",
      "blockHash": "0x8137b2da6b711ea1f3812bf0224b583f28b8078566a1dbd8426700d3ab8137c2",
      "blockNumber": "0x581810",
      "gasUsed": "0x721b",
      "effectiveGasPrice": "0xd40ed721",
      "from": "0x34501ee677d8180522730e78c213fec1b53be5f0",
      "to": "0x481a61fb7c9eaddd5069fe2f6134b22ab8ee6489",
      "contractAddress": null
    },
    {
      "status": "0x1",
      "cumulativeGasUsed": "0x1782341",
      "logs": [
        {
          "address": "0x87a0e260ed9c18bfb95eafe1a1e6fc07f0c3b16c",
          "topics": [
            "0x10e6ffbf70ea11db87f1498a9f8c54026213877a9f5beb696c705b476ddc053c",
            "0x00000000000000000000000034501ee677d8180522730e78c213fec1b53be5f0"
          ],
          "data": "0x00000000000000000000000087a0e260ed9c18bfb95eafe1a1e6fc07f0c3b16c00000000000000000000000000000000000000000000000000000000000004a6000000000000000000000000481a61fb7c9eaddd5069fe2f6134b22ab8ee648900000000000000000000000000000000000000000000000000000000000003de",
          "blockHash": "0x8137b2da6b711ea1f3812bf0224b583f28b8078566a1dbd8426700d3ab8137c2",
          "blockNumber": "0x581810",
          "transactionHash": "0x2f9fad623e5a92cade38092f133f81b265ee6557791892806888af3e237ae417",
          "transactionIndex": "0xac",
          "logIndex": "0x10b",
          "removed": false
        },
        {
          "address": "0x87a0e260ed9c18bfb95eafe1a1e6fc07f0c3b16c",
          "topics": [
            "0x8c5be1e5ebec7d5bd14f71427d1e84f3dd0314c0f7b2291e5b200ac8c7c3b925",
            "0x00000000000000000000000087a0e260ed9c18bfb95eafe1a1e6fc07f0c3b16c",
            "0x00000000000000000000000087a0e260ed9c18bfb95eafe1a1e6fc07f0c3b16c"
          ],
          "data": "0x000000000000000000000000000000000000000000000000000000000000000a",
          "blockHash": "0x8137b2da6b711ea1f3812bf0224b583f28b8078566a1dbd8426700d3ab8137c2",
          "blockNumber": "0x581810",
          "transactionHash": "0x2f9fad623e5a92cade38092f133f81b265ee6557791892806888af3e237ae417",
          "transactionIndex": "0xac",
          "logIndex": "0x10c",
          "removed": false
        },
        {
          "address": "0x87a0e260ed9c18bfb95eafe1a1e6fc07f0c3b16c",
          "topics": [
            "0xddf252ad1be2c89b69c2b068fc378daa952ba7f163c4a11628f55a4df523b3ef",
            "0x00000000000000000000000087a0e260ed9c18bfb95eafe1a1e6fc07f0c3b16c",
            "0x00000000000000000000000034501ee677d8180522730e78c213fec1b53be5f0"
          ],
          "data": "0x000000000000000000000000000000000000000000000000000000000000000a",
          "blockHash": "0x8137b2da6b711ea1f3812bf0224b583f28b8078566a1dbd8426700d3ab8137c2",
          "blockNumber": "0x581810",
          "transactionHash": "0x2f9fad623e5a92cade38092f133f81b265ee6557791892806888af3e237ae417",
          "transactionIndex": "0xac",
          "logIndex": "0x10d",
          "removed": false
        },
        {
          "address": "0x481a61fb7c9eaddd5069fe2f6134b22ab8ee6489",
          "topics": [
            "0xddf252ad1be2c89b69c2b068fc378daa952ba7f163c4a11628f55a4df523b3ef",
            "0x00000000000000000000000034501ee677d8180522730e78c213fec1b53be5f0",
            "0x00000000000000000000000087a0e260ed9c18bfb95eafe1a1e6fc07f0c3b16c"
          ],
          "data": "0x000000000000000000000000000000000000000000000000000000000000000a",
          "blockHash": "0x8137b2da6b711ea1f3812bf0224b583f28b8078566a1dbd8426700d3ab8137c2",
          "blockNumber": "0x581810",
          "transactionHash": "0x2f9fad623e5a92cade38092f133f81b265ee6557791892806888af3e237ae417",
          "transactionIndex": "0xac",
          "logIndex": "0x10e",
          "removed": false
        },
        {
          "address": "0x87a0e260ed9c18bfb95eafe1a1e6fc07f0c3b16c",
          "topics": [
            "0xfc5616f01e1c1dbb08a12619251fb851d6b75274ceb88d493e5894a5eea00e68"
          ],
          "data": "0x00000000000000000000000034501ee677d8180522730e78c213fec1b53be5f0000000000000000000000000481a61fb7c9eaddd5069fe2f6134b22ab8ee6489000000000000000000000000000000000000000000000000000000000000000a",
          "blockHash": "0x8137b2da6b711ea1f3812bf0224b583f28b8078566a1dbd8426700d3ab8137c2",
          "blockNumber": "0x581810",
          "transactionHash": "0x2f9fad623e5a92cade38092f133f81b265ee6557791892806888af3e237ae417",
          "transactionIndex": "0xac",
          "logIndex": "0x10f",
          "removed": false
        }
      ],
      "logsBloom": "0x00000000000000000000000000000000000000200000000000000000000008000000002000000000000000000000000000000000040000000000000000200000000800000000000000000008000000000000000000000000000004000000000000000000000000000000000000000000000100000000000000800410000000000000000100000000000000000000000000000000100000000000000000008000020000000000008000000000000000000000000000000000000000000000000000000002000000000000400000000001000040000000000000000000000000000010000000000000000000400000000000800000000000000000000000000000",
      "type": "0x0",
      "transactionHash": "0x2f9fad623e5a92cade38092f133f81b265ee6557791892806888af3e237ae417",
      "transactionIndex": "0xac",
      "blockHash": "0x8137b2da6b711ea1f3812bf0224b583f28b8078566a1dbd8426700d3ab8137c2",
      "blockNumber": "0x581810",
      "gasUsed": "0x17c9a",
      "effectiveGasPrice": "0xd40ed721",
      "from": "0x34501ee677d8180522730e78c213fec1b53be5f0",
      "to": "0x87a0e260ed9c18bfb95eafe1a1e6fc07f0c3b16c",
      "contractAddress": null
    }
  ],
  "libraries": [],
  "pending": [],
  "returns": {},
  "timestamp": 1714092602,
  "chain": 11155111,
  "commit": "9c02021"
}