{
  "transactions": [
    {
      "hash": "0x960ca6fa951962e78b4f118bcabdaafa7e40fda0854ac9f256e5d20b6d68ad66",
      "transactionType": "CALL",
      "contractName": null,
      "contractAddress": "0x50c6120c66457338551f725befa694d76c2f0436",
      "function": "tryLiquidation(address)",
      "arguments": [
        "0x34501EE677d8180522730e78C213Fec1b53Be5F0"
      ],
      "transaction": {
        "from": "0x34501ee677d8180522730e78c213fec1b53be5f0",
        "to": "0x50c6120c66457338551f725befa694d76c2f0436",
        "gas": "0x1936f",
        "value": "0x0",
        "input": "0x8e4cb77700000000000000000000000034501ee677d8180522730e78c213fec1b53be5f0",
        "nonce": "0x22",
        "chainId": "0xaa36a7",
        "accessList": null,
        "type": null
      },
      "additionalContracts": [],
      "isFixedGasLimit": false
    }
  ],
  "receipts": [
    {
      "status": "0x1",
      "cumulativeGasUsed": "0xb8cfd9",
      "logs": [
        {
          "address": "0x50c6120c66457338551f725befa694d76c2f0436",
          "topics": [
            "0x917339971270efa613532e29b99bbea26c2f07382698f0815d019fe4242018ec",
            "0x00000000000000000000000034501ee677d8180522730e78c213fec1b53be5f0",
            "0x00000000000000000000000050c6120c66457338551f725befa694d76c2f0436"
          ],
          "data": "0x00000000000000000000000000000000000000000000000000000000000004a6",
          "blockHash": "0x87cf66b5cfcaa7af8e60933d4aafe6eb74daafa0368831c13c760f2f410ac94d",
          "blockNumber": "0x581990",
          "transactionHash": "0x960ca6fa951962e78b4f118bcabdaafa7e40fda0854ac9f256e5d20b6d68ad66",
          "transactionIndex": "0x6e",
          "logIndex": "0x8e",
          "removed": false
        },
        {
          "address": "0x50c6120c66457338551f725befa694d76c2f0436",
          "topics": [
            "0x10e6ffbf70ea11db87f1498a9f8c54026213877a9f5beb696c705b476ddc053c",
            "0x00000000000000000000000034501ee677d8180522730e78c213fec1b53be5f0"
          ],
          "data": "0x0000000000000000000000000000000000000000000000000000000000000000000000000000000000000000000000000000000000000000000000000000000000000000000000000000000000000000000000000000000000000000000000000000000000000000000000000000000000000000000000000000000000000000",
          "blockHash": "0x87cf66b5cfcaa7af8e60933d4aafe6eb74daafa0368831c13c760f2f410ac94d",
          "blockNumber": "0x581990",
          "transactionHash": "0x960ca6fa951962e78b4f118bcabdaafa7e40fda0854ac9f256e5d20b6d68ad66",
          "transactionIndex": "0x6e",
          "logIndex": "0x8f",
          "removed": false
        }
      ],
      "logsBloom": "0x00000000000000000000000000000000000000200000002000000000000000000000000000000000000000000000000000000000000000200000000000000000000000080000000001000000000000000000000000000000000000000000000000000000000000000000000000000000000100000000000000000000000000000000000000000000000000000000000000000000100000000000080000000000000010000000008000000008000000000000000000000000000000000000000000000000000000000000000000000001000040000000000000000000000000000000000002100000000000000000000000000000000000000000000000000000",
      "type": "0x0",
      "transactionHash": "0x960ca6fa951962e78b4f118bcabdaafa7e40fda0854ac9f256e5d20b6d68ad66",
      "transactionIndex": "0x6e",
      "blockHash": "0x87cf66b5cfcaa7af8e60933d4aafe6eb74daafa0368831c13c760f2f410ac94d",
      "blockNumber": "0x581990",
      "gasUsed": "0x113db",
      "effectiveGasPrice": "0x7dca99bb",
      "from": "0x34501ee677d8180522730e78c213fec1b53be5f0",
      "to": "0x50c6120c66457338551f725befa694d76c2f0436",
      "contractAddress": null
    }
  ],
  "libraries": [],
  "pending": [],
  "returns": {},
  "timestamp": 1714097281,
  "chain": 11155111,
  "commit": "9c02021"
}