{
  "transactions": [
    {
      "hash": "0x036a2b9fbd0951e76d638996c4c87bf95b84373c015be9fe1957d4783e8a4b20",
      "transactionType": "CALL",
      "contractName": null,
      "contractAddress": "0x481a61fb7c9eaddd5069fe2f6134b22ab8ee6489",
      "function": "mint(address,uint256)",
      "arguments": [
        "0x34501EE677d8180522730e78C213Fec1b53Be5F0",
        "10000000000"
      ],
      "transaction": {
        "from": "0x34501ee677d8180522730e78c213fec1b53be5f0",
        "to": "0x481a61fb7c9eaddd5069fe2f6134b22ab8ee6489",
        "gas": "0xbfe4",
        "value": "0x0",
        "input": "0x40c10f1900000000000000000000000034501ee677d8180522730e78c213fec1b53be5f000000000000000000000000000000000000000000000000000000002540be400",
        "nonce": "0xa",
        "chainId": "0xaa36a7",
        "accessList": null,
        "type": null
      },
      "additionalContracts": [],
      "isFixedGasLimit": false
    },
    {
      "hash": "0xf8046853339e86785b965f4cc06649d2a4797f7f8df378e37e89abbdb58f10c9",
      "transactionType": "CALL",
      "contractName": null,
      "contractAddress": "0x481a61fb7c9eaddd5069fe2f6134b22ab8ee6489",
      "function": "approve(address,uint256)",
      "arguments": [
        "0x5803CdB747e1552Be21C5FCa63228aA3D2622873",
        "30999999000"
      ],
      "transaction": {
        "from": "0x34501ee677d8180522730e78c213fec1b53be5f0",
        "to": "0x481a61fb7c9eaddd5069fe2f6134b22ab8ee6489",
        "gas": "0xa726",
        "value": "0x0",
        "input": "0x095ea7b30000000000000000000000005803cdb747e1552be21c5fca63228aa3d26228730000000000000000000000000000000000000000000000000000000737be7218",
        "nonce": "0xb",
        "chainId": "0xaa36a7",
        "accessList": null,
        "type": null
      },
      "additionalContracts": [],
      "isFixedGasLimit": false
    },
    {
      "hash": "0x02741733105571d2de6292029e6a9ec3575f6775ee3fb2d266ec35e33f1a4b67",
      "transactionType": "CALL",
      "contractName": null,
      "contractAddress": "0x481a61fb7c9eaddd5069fe2f6134b22ab8ee6489",
      "function": "approve(address,uint256)",
      "arguments": [
        "0xCAE9f149286de9a4e444CEa77c2Ad1C12F7D47d5",
        "30999999000"
      ],
      "transaction": {
        "from": "0x34501ee677d8180522730e78c213fec1b53be5f0",
        "to": "0x481a61fb7c9eaddd5069fe2f6134b22ab8ee6489",
        "gas": "0xfa20",
        "value": "0x0",
        "input": "0x095ea7b3000000000000000000000000cae9f149286de9a4e444cea77c2ad1c12f7d47d50000000000000000000000000000000000000000000000000000000737be7218",
        "nonce": "0xc",
        "chainId": "0xaa36a7",
        "accessList": null,
        "type": null
      },
      "additionalContracts": [],
      "isFixedGasLimit": false
    },
    {
      "hash": "0x8b0e89ec49eb93d82c4059063016fcc9ee3d5fead297b5a20f8c5cce19c1f201",
      "transactionType": "CALL",
      "contractName": null,
      "contractAddress": "0xcae9f149286de9a4e444cea77c2ad1c12f7d47d5",
      "function": "deposit(uint256)",
      "arguments": [
        "2000"
      ],
      "transaction": {
        "from": "0x34501ee677d8180522730e78c213fec1b53be5f0",
        "to": "0xcae9f149286de9a4e444cea77c2ad1c12f7d47d5",
        "gas": "0x3100a",
        "value": "0x0",
        "input": "0xb6b55f2500000000000000000000000000000000000000000000000000000000000007d0",
        "nonce": "0xd",
        "chainId": "0xaa36a7",
        "accessList": null,
        "type": null
      },
      "additionalContracts": [],
      "isFixedGasLimit": false
    },
    {
      "hash": "0x40abd356085f1c63b4cf709787454393219e9f61df64a1487759229642969ed1",
      "transactionType": "CALL",
      "contractName": null,
      "contractAddress": "0xcae9f149286de9a4e444cea77c2ad1c12f7d47d5",
      "function": "approve(address,uint256)",
      "arguments": [
        "0xCAE9f149286de9a4e444CEa77c2Ad1C12F7D47d5",
        "1200"
      ],
      "transaction": {
        "from": "0x34501ee677d8180522730e78c213fec1b53be5f0",
        "to": "0xcae9f149286de9a4e444cea77c2ad1c12f7d47d5",
        "gas": "0x108c4",
        "value": "0x0",
        "input": "0x095ea7b3000000000000000000000000cae9f149286de9a4e444cea77c2ad1c12f7d47d500000000000000000000000000000000000000000000000000000000000004b0",
        "nonce": "0xe",
        "chainId": "0xaa36a7",
        "accessList": null,
        "type": null
      },
      "additionalContracts": [],
      "isFixedGasLimit": false
    },
    {
      "hash": "0x1fe6d2b26c12842e2a08bc1efb8affc28393cf26d0e8a8d9dd8f7ef1c16a19a5",
      "transactionType": "CALL",
      "contractName": null,
      "contractAddress": "0xcae9f149286de9a4e444cea77c2ad1c12f7d47d5",
      "function": "borrow(address,uint256,address,uint256)",
      "arguments": [
        "0xCAE9f149286de9a4e444CEa77c2Ad1C12F7D47d5",
        "1200",
        "0x481A61fB7c9EAdDD5069Fe2F6134b22AB8EE6489",
        "1000"
      ],
      "transaction": {
        "from": "0x34501ee677d8180522730e78c213fec1b53be5f0",
        "to": "0xcae9f149286de9a4e444cea77c2ad1c12f7d47d5",
        "gas": "0x3ff51",
        "value": "0x0",
        "input": "0xd0280539000000000000000000000000cae9f149286de9a4e444cea77c2ad1c12f7d47d500000000000000000000000000000000000000000000000000000000000004b0000000000000000000000000481a61fb7c9eaddd5069fe2f6134b22ab8ee648900000000000000000000000000000000000000000000000000000000000003e8",
        "nonce": "0xf",
        "chainId": "0xaa36a7",
        "accessList": null,
        "type": null
      },
      "additionalContracts": [],
      "isFixedGasLimit": false
    },
    {
      "hash": "0x79cc59315e925d9c76e06fcbc3c54216214c03f7fb67ae3b8dc97a9cba3d328c",
      "transactionType": "CALL",
      "contractName": null,
      "contractAddress": "0x481a61fb7c9eaddd5069fe2f6134b22ab8ee6489",
      "function": "approve(address,uint256)",
      "arguments": [
        "0xCAE9f149286de9a4e444CEa77c2Ad1C12F7D47d5",
        "10"
      ],
      "transaction": {
        "from": "0x34501ee677d8180522730e78c213fec1b53be5f0",
        "to": "0x481a61fb7c9eaddd5069fe2f6134b22ab8ee6489",
        "gas": "0xa6e0",
        "value": "0x0",
        "input": "0x095ea7b3000000000000000000000000cae9f149286de9a4e444cea77c2ad1c12f7d47d5000000000000000000000000000000000000000000000000000000000000000a",
        "nonce": "0x10",
        "chainId": "0xaa36a7",
        "accessList": null,
        "type": null
      },
      "additionalContracts": [],
      "isFixedGasLimit": false
    },
    {
      "hash": "0xdecb845faa9ba5795b6af28dfd263a69c4b14be2e9538a1ff3c0f7b0a8ab18fb",
      "transactionType": "CALL",
      "contractName": null,
      "contractAddress": "0xcae9f149286de9a4e444cea77c2ad1c12f7d47d5",
      "function": "repayment(address,uint256,address,uint256)",
      "arguments": [
        "0xCAE9f149286de9a4e444CEa77c2Ad1C12F7D47d5",
        "10",
        "0x481A61fB7c9EAdDD5069Fe2F6134b22AB8EE6489",
        "10"
      ],
      "transaction": {
        "from": "0x34501ee677d8180522730e78c213fec1b53be5f0",
        "to": "0xcae9f149286de9a4e444cea77c2ad1c12f7d47d5",
        "gas": "0x22ca0",
        "value": "0x0",
        "input": "0x6cca3c2f000000000000000000000000cae9f149286de9a4e444cea77c2ad1c12f7d47d5000000000000000000000000000000000000000000000000000000000000000a000000000000000000000000481a61fb7c9eaddd5069fe2f6134b22ab8ee6489000000000000000000000000000000000000000000000000000000000000000a",
        "nonce": "0x11",
        "chainId": "0xaa36a7",
        "accessList": null,
        "type": null
      },
      "additionalContracts": [],
      "isFixedGasLimit": false
    }
  ],
  "receipts": [
    {
      "status": "0x1",
      "cumulativeGasUsed": "0x793467",
      "logs": [
        {
          "address": "0x481a61fb7c9eaddd5069fe2f6134b22ab8ee6489",
          "topics": [
            "0xddf252ad1be2c89b69c2b068fc378daa952ba7f163c4a11628f55a4df523b3ef",
            "0x0000000000000000000000000000000000000000000000000000000000000000",
            "0x00000000000000000000000034501ee677d8180522730e78c213fec1b53be5f0"
          ],
          "data": "0x00000000000000000000000000000000000000000000000000000002540be400",
          "blockHash": "0xe8152f755d6516089473e76f2b2cb3805d828232d91dddcab82435266593713e",
          "blockNumber": "0x5817ac",
          "transactionHash": "0x036a2b9fbd0951e76d638996c4c87bf95b84373c015be9fe1957d4783e8a4b20",
          "transactionIndex": "0x4e",
          "logIndex": "0x75",
          "removed": false
        },
        {
          "address": "0x481a61fb7c9eaddd5069fe2f6134b22ab8ee6489",
          "topics": [
            "0x449a52f8290d0f7a93fd114212f0891c4eafca215815e758af65bf6d352a6551"
          ],
          "data": "0x00000000000000000000000034501ee677d8180522730e78c213fec1b53be5f000000000000000000000000000000000000000000000000000000002540be400",
          "blockHash": "0xe8152f755d6516089473e76f2b2cb3805d828232d91dddcab82435266593713e",
          "blockNumber": "0x5817ac",
          "transactionHash": "0x036a2b9fbd0951e76d638996c4c87bf95b84373c015be9fe1957d4783e8a4b20",
          "transactionIndex": "0x4e",
          "logIndex": "0x76",
          "removed": false
        }
      ],
      "logsBloom": "0x00000000000000000020000000000000000000200000000000000000000000000000002000000000000000000000000000000000000000000000000000000000000000000000000000000008000000000002000000000000000000000000000000000000020000000000000000000800000100000000000000000410000000000000000000000000000000000000000000000000000000000000000000000000000000000000000200000000000000000000000000000000000000000000000000000002000000000000400000000001000000000000000000000000000020000000000000000000000000000000000000000000000000000000000000000000",
      "type": "0x0",
      "transactionHash": "0x036a2b9fbd0951e76d638996c4c87bf95b84373c015be9fe1957d4783e8a4b20",
      "transactionIndex": "0x4e",
      "blockHash": "0xe8152f755d6516089473e76f2b2cb3805d828232d91dddcab82435266593713e",
      "blockNumber": "0x5817ac",
      "gasUsed": "0x8aee",
      "effectiveGasPrice": "0x9646af30",
      "from": "0x34501ee677d8180522730e78c213fec1b53be5f0",
      "to": "0x481a61fb7c9eaddd5069fe2f6134b22ab8ee6489",
      "contractAddress": null
    },
    {
      "status": "0x1",
      "cumulativeGasUsed": "0x79a6b2",
      "logs": [
        {
          "address": "0x481a61fb7c9eaddd5069fe2f6134b22ab8ee6489",
          "topics": [
            "0x8c5be1e5ebec7d5bd14f71427d1e84f3dd0314c0f7b2291e5b200ac8c7c3b925",
            "0x00000000000000000000000034501ee677d8180522730e78c213fec1b53be5f0",
            "0x0000000000000000000000005803cdb747e1552be21c5fca63228aa3d2622873"
          ],
          "data": "0x0000000000000000000000000000000000000000000000000000000737be7218",
          "blockHash": "0xe8152f755d6516089473e76f2b2cb3805d828232d91dddcab82435266593713e",
          "blockNumber": "0x5817ac",
          "transactionHash": "0xf8046853339e86785b965f4cc06649d2a4797f7f8df378e37e89abbdb58f10c9",
          "transactionIndex": "0x4f",
          "logIndex": "0x77",
          "removed": false
        }
      ],
      "logsBloom": "0x00000002000000000000000000000000000000200000000000000000000000000000002000000000000000000000000000000000000000000000000000200004000000000000000000000000000000000000000000000000000000000000000000000000000000000000000000000000000100000000000000000400000000000000020000000000000000000000000000000000000000000000000000000000020000000000000000000000000000000000000000000000000000000000000000000000000000000000400000000001000000000000000000000000000000000010000000000000000000000000000000000000000000000000000000000000",
      "type": "0x0",
      "transactionHash": "0xf8046853339e86785b965f4cc06649d2a4797f7f8df378e37e89abbdb58f10c9",
      "transactionIndex": "0x4f",
      "blockHash": "0xe8152f755d6516089473e76f2b2cb3805d828232d91dddcab82435266593713e",
      "blockNumber": "0x5817ac",
      "gasUsed": "0x724b",
      "effectiveGasPrice": "0x9646af30",
      "from": "0x34501ee677d8180522730e78c213fec1b53be5f0",
      "to": "0x481a61fb7c9eaddd5069fe2f6134b22ab8ee6489",
      "contractAddress": null
    },
    {
      "status": "0x1",
      "cumulativeGasUsed": "0x7a5bc9",
      "logs": [
        {
          "address": "0x481a61fb7c9eaddd5069fe2f6134b22ab8ee6489",
          "topics": [
            "0x8c5be1e5ebec7d5bd14f71427d1e84f3dd0314c0f7b2291e5b200ac8c7c3b925",
            "0x00000000000000000000000034501ee677d8180522730e78c213fec1b53be5f0",
            "0x000000000000000000000000cae9f149286de9a4e444cea77c2ad1c12f7d47d5"
          ],
          "data": "0x0000000000000000000000000000000000000000000000000000000737be7218",
          "blockHash": "0xe8152f755d6516089473e76f2b2cb3805d828232d91dddcab82435266593713e",
          "blockNumber": "0x5817ac",
          "transactionHash": "0x02741733105571d2de6292029e6a9ec3575f6775ee3fb2d266ec35e33f1a4b67",
          "transactionIndex": "0x50",
          "logIndex": "0x78",
          "removed": false
        }
      ],
      "logsBloom": "0x00000000000000000000000000000000000000200000000000000000000000000000002000000000000000000000000000001000000000000000000000200000000000000000000000000000000000000000000200000000000000000000000000000000000000000000000000000000000100000000000000000400000000000000000000000000000000000000000000000000000000000000000000000000020000000000000000000000000000000000000000000000000000000000000000000000000000000000400000000001000000000000000000000000000000000110000000000000000000000000000000000000000000000000000000000000",
      "type": "0x0",
      "transactionHash": "0x02741733105571d2de6292029e6a9ec3575f6775ee3fb2d266ec35e33f1a4b67",
      "transactionIndex": "0x50",
      "blockHash": "0xe8152f755d6516089473e76f2b2cb3805d828232d91dddcab82435266593713e",
      "blockNumber": "0x5817ac",
      "gasUsed": "0xb517",
      "effectiveGasPrice": "0x9646af30",
      "from": "0x34501ee677d8180522730e78c213fec1b53be5f0",
      "to": "0x481a61fb7c9eaddd5069fe2f6134b22ab8ee6489",
      "contractAddress": null
    },
    {
      "status": "0x1",
      "cumulativeGasUsed": "0x7c73e2",
      "logs": [
        {
          "address": "0x481a61fb7c9eaddd5069fe2f6134b22ab8ee6489",
          "topics": [
            "0xddf252ad1be2c89b69c2b068fc378daa952ba7f163c4a11628f55a4df523b3ef",
            "0x00000000000000000000000034501ee677d8180522730e78c213fec1b53be5f0",
            "0x000000000000000000000000cae9f149286de9a4e444cea77c2ad1c12f7d47d5"
          ],
          "data": "0x00000000000000000000000000000000000000000000000000000000000007d0",
          "blockHash": "0xe8152f755d6516089473e76f2b2cb3805d828232d91dddcab82435266593713e",
          "blockNumber": "0x5817ac",
          "transactionHash": "0x8b0e89ec49eb93d82c4059063016fcc9ee3d5fead297b5a20f8c5cce19c1f201",
          "transactionIndex": "0x51",
          "logIndex": "0x79",
          "removed": false
        },
        {
          "address": "0xcae9f149286de9a4e444cea77c2ad1c12f7d47d5",
          "topics": [
            "0xddf252ad1be2c89b69c2b068fc378daa952ba7f163c4a11628f55a4df523b3ef",
            "0x0000000000000000000000000000000000000000000000000000000000000000",
            "0x00000000000000000000000034501ee677d8180522730e78c213fec1b53be5f0"
          ],
          "data": "0x0000000000000000000000000000000000000000000000000000002e90ed89b0",
          "blockHash": "0xe8152f755d6516089473e76f2b2cb3805d828232d91dddcab82435266593713e",
          "blockNumber": "0x5817ac",
          "transactionHash": "0x8b0e89ec49eb93d82c4059063016fcc9ee3d5fead297b5a20f8c5cce19c1f201",
          "transactionIndex": "0x51",
          "logIndex": "0x7a",
          "removed": false
        },
        {
          "address": "0xcae9f149286de9a4e444cea77c2ad1c12f7d47d5",
          "topics": [
            "0xffaad6a51867cde4125cd8ca83b3ebe39a412938c5be43e149bad7e431112ba2",
            "0x00000000000000000000000034501ee677d8180522730e78c213fec1b53be5f0"
          ],
          "data": "0x00000000000000000000000000000000000000000000000000000000000007d0",
          "blockHash": "0xe8152f755d6516089473e76f2b2cb3805d828232d91dddcab82435266593713e",
          "blockNumber": "0x5817ac",
          "transactionHash": "0x8b0e89ec49eb93d82c4059063016fcc9ee3d5fead297b5a20f8c5cce19c1f201",
          "transactionIndex": "0x51",
          "logIndex": "0x7b",
          "removed": false
        }
      ],
      "logsBloom": "0x00000000000000008000000000000000000000200000000000000000000000000000002000000000000000000000000000001000000000000000000000000010000000000000000000000008000000000000000200000000000000000000000000000000020000000000000000002800000100000000000000000410000000000000000000000000000000000000000000000000000000000000000000004000000000080000000000000000000000000000000000000000020000000000000000000002000000000000400000000001000000000000000000000000000020000100000000000000000000000000000000000000000000000000000000000000",
      "type": "0x0",
      "transactionHash": "0x8b0e89ec49eb93d82c4059063016fcc9ee3d5fead297b5a20f8c5cce19c1f201",
      "transactionIndex": "0x51",
      "blockHash": "0xe8152f755d6516089473e76f2b2cb3805d828232d91dddcab82435266593713e",
      "blockNumber": "0x5817ac",
      "gasUsed": "0x21819",
      "effectiveGasPrice": "0x9646af30",
      "from": "0x34501ee677d8180522730e78c213fec1b53be5f0",
      "to": "0xcae9f149286de9a4e444cea77c2ad1c12f7d47d5",
      "contractAddress": null
    },
    {
      "status": "0x1",
      "cumulativeGasUsed": "0x7d28ec",
      "logs": [
        {
          "address": "0xcae9f149286de9a4e444cea77c2ad1c12f7d47d5",
          "topics": [
            "0x8c5be1e5ebec7d5bd14f71427d1e84f3dd0314c0f7b2291e5b200ac8c7c3b925",
            "0x00000000000000000000000034501ee677d8180522730e78c213fec1b53be5f0",
            "0x000000000000000000000000cae9f149286de9a4e444cea77c2ad1c12f7d47d5"
          ],
          "data": "0x00000000000000000000000000000000000000000000000000000000000004b0",
          "blockHash": "0xe8152f755d6516089473e76f2b2cb3805d828232d91dddcab82435266593713e",
          "blockNumber": "0x5817ac",
          "transactionHash": "0x40abd356085f1c63b4cf709787454393219e9f61df64a1487759229642969ed1",
          "transactionIndex": "0x52",
          "logIndex": "0x7c",
          "removed": false
        }
      ],
      "logsBloom": "0x00000000000000000000000000000000000000200000000000000000000000000000000000000000000000000000000000001000000000000000000000200000000000000000000000000000000000000000000200000000000000000000000000000000000000000000000000002000000100000000000000000000000000000000000000000000000000000000000000000000000000000000000000004000020000000000000000000000000000000000000000000000020000000000000000000000000000000000000000000001000000000000000000000000000000000110000000000000000000000000000000000000000000000000000000000000",
      "type": "0x0",
      "transactionHash": "0x40abd356085f1c63b4cf709787454393219e9f61df64a1487759229642969ed1",
      "transactionIndex": "0x52",
      "blockHash": "0xe8152f755d6516089473e76f2b2cb3805d828232d91dddcab82435266593713e",
      "blockNumber": "0x5817ac",
      "gasUsed": "0xb50a",
      "effectiveGasPrice": "0x9646af30",
      "from": "0x34501ee677d8180522730e78c213fec1b53be5f0",
      "to": "0xcae9f149286de9a4e444cea77c2ad1c12f7d47d5",
      "contractAddress": null
    },
    {
      "status": "0x1",
      "cumulativeGasUsed": "0x800dca",
      "logs": [
        {
          "address": "0xcae9f149286de9a4e444cea77c2ad1c12f7d47d5",
          "topics": [
            "0x10e6ffbf70ea11db87f1498a9f8c54026213877a9f5beb696c705b476ddc053c",
            "0x00000000000000000000000034501ee677d8180522730e78c213fec1b53be5f0"
          ],
          "data": "0x000000000000000000000000cae9f149286de9a4e444cea77c2ad1c12f7d47d500000000000000000000000000000000000000000000000000000000000004b0000000000000000000000000481a61fb7c9eaddd5069fe2f6134b22ab8ee648900000000000000000000000000000000000000000000000000000000000003e8",
          "blockHash": "0xe8152f755d6516089473e76f2b2cb3805d828232d91dddcab82435266593713e",
          "blockNumber": "0x5817ac",
          "transactionHash": "0x1fe6d2b26c12842e2a08bc1efb8affc28393cf26d0e8a8d9dd8f7ef1c16a19a5",
          "transactionIndex": "0x53",
          "logIndex": "0x7d",
          "removed": false
        },
        {
          "address": "0xcae9f149286de9a4e444cea77c2ad1c12f7d47d5",
          "topics": [
            "0xddf252ad1be2c89b69c2b068fc378daa952ba7f163c4a11628f55a4df523b3ef",
            "0x00000000000000000000000034501ee677d8180522730e78c213fec1b53be5f0",
            "0x000000000000000000000000cae9f149286de9a4e444cea77c2ad1c12f7d47d5"
          ],
          "data": "0x00000000000000000000000000000000000000000000000000000000000004b0",
          "blockHash": "0xe8152f755d6516089473e76f2b2cb3805d828232d91dddcab82435266593713e",
          "blockNumber": "0x5817ac",
          "transactionHash": "0x1fe6d2b26c12842e2a08bc1efb8affc28393cf26d0e8a8d9dd8f7ef1c16a19a5",
          "transactionIndex": "0x53",
          "logIndex": "0x7e",
          "removed": false
        },
        {
          "address": "0x481a61fb7c9eaddd5069fe2f6134b22ab8ee6489",
          "topics": [
            "0x8c5be1e5ebec7d5bd14f71427d1e84f3dd0314c0f7b2291e5b200ac8c7c3b925",
            "0x000000000000000000000000cae9f149286de9a4e444cea77c2ad1c12f7d47d5",
            "0x000000000000000000000000cae9f149286de9a4e444cea77c2ad1c12f7d47d5"
          ],
          "data": "0x00000000000000000000000000000000000000000000000000000000000003e8",
          "blockHash": "0xe8152f755d6516089473e76f2b2cb3805d828232d91dddcab82435266593713e",
          "blockNumber": "0x5817ac",
          "transactionHash": "0x1fe6d2b26c12842e2a08bc1efb8affc28393cf26d0e8a8d9dd8f7ef1c16a19a5",
          "transactionIndex": "0x53",
          "logIndex": "0x7f",
          "removed": false
        },
        {
          "address": "0x481a61fb7c9eaddd5069fe2f6134b22ab8ee6489",
          "topics": [
            "0xddf252ad1be2c89b69c2b068fc378daa952ba7f163c4a11628f55a4df523b3ef",
            "0x000000000000000000000000cae9f149286de9a4e444cea77c2ad1c12f7d47d5",
            "0x00000000000000000000000034501ee677d8180522730e78c213fec1b53be5f0"
          ],
          "data": "0x00000000000000000000000000000000000000000000000000000000000003e8",
          "blockHash": "0xe8152f755d6516089473e76f2b2cb3805d828232d91dddcab82435266593713e",
          "blockNumber": "0x5817ac",
          "transactionHash": "0x1fe6d2b26c12842e2a08bc1efb8affc28393cf26d0e8a8d9dd8f7ef1c16a19a5",
          "transactionIndex": "0x53",
          "logIndex": "0x80",
          "removed": false
        },
        {
          "address": "0xcae9f149286de9a4e444cea77c2ad1c12f7d47d5",
          "topics": [
            "0x3515b35de5139187b5f1cfc0684ee199a130937eae5916c3fb3d73124ae0c949",
            "0x00000000000000000000000034501ee677d8180522730e78c213fec1b53be5f0"
          ],
          "data": "0x000000000000000000000000481a61fb7c9eaddd5069fe2f6134b22ab8ee648900000000000000000000000000000000000000000000000000000000000003e8",
          "blockHash": "0xe8152f755d6516089473e76f2b2cb3805d828232d91dddcab82435266593713e",
          "blockNumber": "0x5817ac",
          "transactionHash": "0x1fe6d2b26c12842e2a08bc1efb8affc28393cf26d0e8a8d9dd8f7ef1c16a19a5",
          "transactionIndex": "0x53",
          "logIndex": "0x81",
          "removed": false
        }
      ],
      "logsBloom": "0x00000000000000000000000000000000000000200000000000000000000000000000002000040000000000000000000000001040000000000000000000200000000000000000000000000008000000000000000200000000000000000000000000000000000000000000000000002000000100000000000000000410000000000000000000000000000000000000000000000000100000000000000000004000020000000000008000000000000000000000000000000000020000000000000000000002000000000000400000000001000040000000000004000000000000000110000000000000000000000000000000000000000000000000000000000000",
      "type": "0x0",
      "transactionHash": "0x1fe6d2b26c12842e2a08bc1efb8affc28393cf26d0e8a8d9dd8f7ef1c16a19a5",
      "transactionIndex": "0x53",
      "blockHash": "0xe8152f755d6516089473e76f2b2cb3805d828232d91dddcab82435266593713e",
      "blockNumber": "0x5817ac",
      "gasUsed": "0x2e4de",
      "effectiveGasPrice": "0x9646af30",
      "from": "0x34501ee677d8180522730e78c213fec1b53be5f0",
      "to": "0xcae9f149286de9a4e444cea77c2ad1c12f7d47d5",
      "contractAddress": null
    },
    {
      "status": "0x1",
      "cumulativeGasUsed": "0x807fe5",
      "logs": [
        {
          "address": "0x481a61fb7c9eaddd5069fe2f6134b22ab8ee6489",
          "topics": [
            "0x8c5be1e5ebec7d5bd14f71427d1e84f3dd0314c0f7b2291e5b200ac8c7c3b925",
            "0x00000000000000000000000034501ee677d8180522730e78c213fec1b53be5f0",
            "0x000000000000000000000000cae9f149286de9a4e444cea77c2ad1c12f7d47d5"
          ],
          "data": "0x000000000000000000000000000000000000000000000000000000000000000a",
          "blockHash": "0xe8152f755d6516089473e76f2b2cb3805d828232d91dddcab82435266593713e",
          "blockNumber": "0x5817ac",
          "transactionHash": "0x79cc59315e925d9c76e06fcbc3c54216214c03f7fb67ae3b8dc97a9cba3d328c",
          "transactionIndex": "0x54",
          "logIndex": "0x82",
          "removed": false
        }
      ],
      "logsBloom": "0x00000000000000000000000000000000000000200000000000000000000000000000002000000000000000000000000000001000000000000000000000200000000000000000000000000000000000000000000200000000000000000000000000000000000000000000000000000000000100000000000000000400000000000000000000000000000000000000000000000000000000000000000000000000020000000000000000000000000000000000000000000000000000000000000000000000000000000000400000000001000000000000000000000000000000000110000000000000000000000000000000000000000000000000000000000000",
      "type": "0x0",
      "transactionHash": "0x79cc59315e925d9c76e06fcbc3c54216214c03f7fb67ae3b8dc97a9cba3d328c",
      "transactionIndex": "0x54",
      "blockHash": "0xe8152f755d6516089473e76f2b2cb3805d828232d91dddcab82435266593713e",
      "blockNumber": "0x5817ac",
      "gasUsed": "0x721b",
      "effectiveGasPrice": "0x9646af30",
      "from": "0x34501ee677d8180522730e78c213fec1b53be5f0",
      "to": "0x481a61fb7c9eaddd5069fe2f6134b22ab8ee6489",
      "contractAddress": null
    },
    {
      "status": "0x1",
      "cumulativeGasUsed": "0x81fc7f",
      "logs": [
        {
          "address": "0xcae9f149286de9a4e444cea77c2ad1c12f7d47d5",
          "topics": [
            "0x10e6ffbf70ea11db87f1498a9f8c54026213877a9f5beb696c705b476ddc053c",
            "0x00000000000000000000000034501ee677d8180522730e78c213fec1b53be5f0"
          ],
          "data": "0x000000000000000000000000cae9f149286de9a4e444cea77c2ad1c12f7d47d500000000000000000000000000000000000000000000000000000000000004a6000000000000000000000000481a61fb7c9eaddd5069fe2f6134b22ab8ee648900000000000000000000000000000000000000000000000000000000000003de",
          "blockHash": "0xe8152f755d6516089473e76f2b2cb3805d828232d91dddcab82435266593713e",
          "blockNumber": "0x5817ac",
          "transactionHash": "0xdecb845faa9ba5795b6af28dfd263a69c4b14be2e9538a1ff3c0f7b0a8ab18fb",
          "transactionIndex": "0x55",
          "logIndex": "0x83",
          "removed": false
        },
        {
          "address": "0xcae9f149286de9a4e444cea77c2ad1c12f7d47d5",
          "topics": [
            "0x8c5be1e5ebec7d5bd14f71427d1e84f3dd0314c0f7b2291e5b200ac8c7c3b925",
            "0x000000000000000000000000cae9f149286de9a4e444cea77c2ad1c12f7d47d5",
            "0x000000000000000000000000cae9f149286de9a4e444cea77c2ad1c12f7d47d5"
          ],
          "data": "0x000000000000000000000000000000000000000000000000000000000000000a",
          "blockHash": "0xe8152f755d6516089473e76f2b2cb3805d828232d91dddcab82435266593713e",
          "blockNumber": "0x5817ac",
          "transactionHash": "0xdecb845faa9ba5795b6af28dfd263a69c4b14be2e9538a1ff3c0f7b0a8ab18fb",
          "transactionIndex": "0x55",
          "logIndex": "0x84",
          "removed": false
        },
        {
          "address": "0xcae9f149286de9a4e444cea77c2ad1c12f7d47d5",
          "topics": [
            "0xddf252ad1be2c89b69c2b068fc378daa952ba7f163c4a11628f55a4df523b3ef",
            "0x000000000000000000000000cae9f149286de9a4e444cea77c2ad1c12f7d47d5",
            "0x00000000000000000000000034501ee677d8180522730e78c213fec1b53be5f0"
          ],
          "data": "0x000000000000000000000000000000000000000000000000000000000000000a",
          "blockHash": "0xe8152f755d6516089473e76f2b2cb3805d828232d91dddcab82435266593713e",
          "blockNumber": "0x5817ac",
          "transactionHash": "0xdecb845faa9ba5795b6af28dfd263a69c4b14be2e9538a1ff3c0f7b0a8ab18fb",
          "transactionIndex": "0x55",
          "logIndex": "0x85",
          "removed": false
        },
        {
          "address": "0x481a61fb7c9eaddd5069fe2f6134b22ab8ee6489",
          "topics": [
            "0xddf252ad1be2c89b69c2b068fc378daa952ba7f163c4a11628f55a4df523b3ef",
            "0x00000000000000000000000034501ee677d8180522730e78c213fec1b53be5f0",
            "0x000000000000000000000000cae9f149286de9a4e444cea77c2ad1c12f7d47d5"
          ],
          "data": "0x000000000000000000000000000000000000000000000000000000000000000a",
          "blockHash": "0xe8152f755d6516089473e76f2b2cb3805d828232d91dddcab82435266593713e",
          "blockNumber": "0x5817ac",
          "transactionHash": "0xdecb845faa9ba5795b6af28dfd263a69c4b14be2e9538a1ff3c0f7b0a8ab18fb",
          "transactionIndex": "0x55",
          "logIndex": "0x86",
          "removed": false
        },
        {
          "address": "0xcae9f149286de9a4e444cea77c2ad1c12f7d47d5",
          "topics": [
            "0xfc5616f01e1c1dbb08a12619251fb851d6b75274ceb88d493e5894a5eea00e68"
          ],
          "data": "0x00000000000000000000000034501ee677d8180522730e78c213fec1b53be5f0000000000000000000000000481a61fb7c9eaddd5069fe2f6134b22ab8ee6489000000000000000000000000000000000000000000000000000000000000000a",
          "blockHash": "0xe8152f755d6516089473e76f2b2cb3805d828232d91dddcab82435266593713e",
          "blockNumber": "0x5817ac",
          "transactionHash": "0xdecb845faa9ba5795b6af28dfd263a69c4b14be2e9538a1ff3c0f7b0a8ab18fb",
          "transactionIndex": "0x55",
          "logIndex": "0x87",
          "removed": false
        }
      ],
      "logsBloom": "0x00000000000000000000000000000000000000200000000000000000000000000000002000000000000000000000000000001000000000000000000000200000000000000000000000000008000000000000000200000000000004000000000000000000000000000000000000002000000100000000000000000410000000000000000000000000000000000000000000000000100000000000000000004000020000000000008000000000000000000000000000000000020000000000000000000002000000000000400000000001000040000000000000000000000000000110000000000000000000400000000000800000000000000000000000000000",
      "type": "0x0",
      "transactionHash": "0xdecb845faa9ba5795b6af28dfd263a69c4b14be2e9538a1ff3c0f7b0a8ab18fb",
      "transactionIndex": "0x55",
      "blockHash": "0xe8152f755d6516089473e76f2b2cb3805d828232d91dddcab82435266593713e",
      "blockNumber": "0x5817ac",
      "gasUsed": "0x17c9a",
      "effectiveGasPrice": "0x9646af30",
      "from": "0x34501ee677d8180522730e78c213fec1b53be5f0",
      "to": "0xcae9f149286de9a4e444cea77c2ad1c12f7d47d5",
      "contractAddress": null
    }
  ],
  "libraries": [],
  "pending": [],
  "returns": {},
  "timestamp": 1714091402,
  "chain": 11155111,
  "commit": "9c02021"
}