{
  "transactions": [
    {
      "hash": "0x6116ba029e370cefe8c8546ed35c9133a9d64b71165e94169b45674f232bcf08",
      "transactionType": "CALL",
      "contractName": null,
      "contractAddress": "0x481a61fb7c9eaddd5069fe2f6134b22ab8ee6489",
      "function": "mint(address,uint256)",
      "arguments": [
        "0x34501EE677d8180522730e78C213Fec1b53Be5F0",
        "10000000000"
      ],
      "transaction": {
        "from": "0x34501ee677d8180522730e78c213fec1b53be5f0",
        "to": "0x481a61fb7c9eaddd5069fe2f6134b22ab8ee6489",
        "gas": "0xbfe4",
        "value": "0x0",
        "input": "0x40c10f1900000000000000000000000034501ee677d8180522730e78c213fec1b53be5f000000000000000000000000000000000000000000000000000000002540be400",
        "nonce": "0x23",
        "chainId": "0xaa36a7",
        "accessList": null,
        "type": null
      },
      "additionalContracts": [],
      "isFixedGasLimit": false
    },
    {
      "hash": "0x7ff5c083d6f2a1fc8f06abcbef241b32240dac3409ce22d7a8360c3909e530e9",
      "transactionType": "CALL",
      "contractName": null,
      "contractAddress": "0x481a61fb7c9eaddd5069fe2f6134b22ab8ee6489",
      "function": "approve(address,uint256)",
      "arguments": [
        "0x5803CdB747e1552Be21C5FCa63228aA3D2622873",
        "60999995970"
      ],
      "transaction": {
        "from": "0x34501ee677d8180522730e78c213fec1b53be5f0",
        "to": "0x481a61fb7c9eaddd5069fe2f6134b22ab8ee6489",
        "gas": "0xa726",
        "value": "0x0",
        "input": "0x095ea7b30000000000000000000000005803cdb747e1552be21c5fca63228aa3d26228730000000000000000000000000000000000000000000000000000000e33e21242",
        "nonce": "0x24",
        "chainId": "0xaa36a7",
        "accessList": null,
        "type": null
      },
      "additionalContracts": [],
      "isFixedGasLimit": false
    },
    {
      "hash": "0x156c953437073007f6a61d4a338bef634e6fc93f4ef5d87ab86bb72889677a8b",
      "transactionType": "CALL",
      "contractName": null,
      "contractAddress": "0x481a61fb7c9eaddd5069fe2f6134b22ab8ee6489",
      "function": "approve(address,uint256)",
      "arguments": [
        "0x920EC16CeB2A6bDf4cbdAe65Aa40eE07F73f52E7",
        "60999995970"
      ],
      "transaction": {
        "from": "0x34501ee677d8180522730e78c213fec1b53be5f0",
        "to": "0x481a61fb7c9eaddd5069fe2f6134b22ab8ee6489",
        "gas": "0xfa20",
        "value": "0x0",
        "input": "0x095ea7b3000000000000000000000000920ec16ceb2a6bdf4cbdae65aa40ee07f73f52e70000000000000000000000000000000000000000000000000000000e33e21242",
        "nonce": "0x25",
        "chainId": "0xaa36a7",
        "accessList": null,
        "type": null
      },
      "additionalContracts": [],
      "isFixedGasLimit": false
    },
    {
      "hash": "0x2da5858a8051be618e3fe8af5d58f5f25b1b58ffa2ec3c860d92bb3eff8a8dd8",
      "transactionType": "CALL",
      "contractName": null,
      "contractAddress": "0x920ec16ceb2a6bdf4cbdae65aa40ee07f73f52e7",
      "function": "deposit(uint256)",
      "arguments": [
        "2000"
      ],
      "transaction": {
        "from": "0x34501ee677d8180522730e78c213fec1b53be5f0",
        "to": "0x920ec16ceb2a6bdf4cbdae65aa40ee07f73f52e7",
        "gas": "0x3100a",
        "value": "0x0",
        "input": "0xb6b55f2500000000000000000000000000000000000000000000000000000000000007d0",
        "nonce": "0x26",
        "chainId": "0xaa36a7",
        "accessList": null,
        "type": null
      },
      "additionalContracts": [],
      "isFixedGasLimit": false
    },
    {
      "hash": "0x4cbd4512a057b9d8e450956ad9094d401ef8e0ffa6c470ee2180803a70ab11b1",
      "transactionType": "CALL",
      "contractName": null,
      "contractAddress": "0x920ec16ceb2a6bdf4cbdae65aa40ee07f73f52e7",
      "function": "approve(address,uint256)",
      "arguments": [
        "0x920EC16CeB2A6bDf4cbdAe65Aa40eE07F73f52E7",
        "1200"
      ],
      "transaction": {
        "from": "0x34501ee677d8180522730e78c213fec1b53be5f0",
        "to": "0x920ec16ceb2a6bdf4cbdae65aa40ee07f73f52e7",
        "gas": "0x108c4",
        "value": "0x0",
        "input": "0x095ea7b3000000000000000000000000920ec16ceb2a6bdf4cbdae65aa40ee07f73f52e700000000000000000000000000000000000000000000000000000000000004b0",
        "nonce": "0x27",
        "chainId": "0xaa36a7",
        "accessList": null,
        "type": null
      },
      "additionalContracts": [],
      "isFixedGasLimit": false
    },
    {
      "hash": "0x3bf6ba699d900ec8462961ca46aa9aa1293f462375e85b30ea949daca81f8942",
      "transactionType": "CALL",
      "contractName": null,
      "contractAddress": "0x920ec16ceb2a6bdf4cbdae65aa40ee07f73f52e7",
      "function": "borrow(address,uint256,address,uint256)",
      "arguments": [
        "0x920EC16CeB2A6bDf4cbdAe65Aa40eE07F73f52E7",
        "1200",
        "0x481A61fB7c9EAdDD5069Fe2F6134b22AB8EE6489",
        "1000"
      ],
      "transaction": {
        "from": "0x34501ee677d8180522730e78c213fec1b53be5f0",
        "to": "0x920ec16ceb2a6bdf4cbdae65aa40ee07f73f52e7",
        "gas": "0x3cd59",
        "value": "0x0",
        "input": "0xd0280539000000000000000000000000920ec16ceb2a6bdf4cbdae65aa40ee07f73f52e700000000000000000000000000000000000000000000000000000000000004b0000000000000000000000000481a61fb7c9eaddd5069fe2f6134b22ab8ee648900000000000000000000000000000000000000000000000000000000000003e8",
        "nonce": "0x28",
        "chainId": "0xaa36a7",
        "accessList": null,
        "type": null
      },
      "additionalContracts": [],
      "isFixedGasLimit": false
    },
    {
      "hash": "0xccdc6042a2b1a4e417b6b82f235d49fa9a66babd3204bc4aeeb73b7a78aa43b1",
      "transactionType": "CALL",
      "contractName": null,
      "contractAddress": "0x481a61fb7c9eaddd5069fe2f6134b22ab8ee6489",
      "function": "approve(address,uint256)",
      "arguments": [
        "0x920EC16CeB2A6bDf4cbdAe65Aa40eE07F73f52E7",
        "10"
      ],
      "transaction": {
        "from": "0x34501ee677d8180522730e78c213fec1b53be5f0",
        "to": "0x481a61fb7c9eaddd5069fe2f6134b22ab8ee6489",
        "gas": "0xa6e0",
        "value": "0x0",
        "input": "0x095ea7b3000000000000000000000000920ec16ceb2a6bdf4cbdae65aa40ee07f73f52e7000000000000000000000000000000000000000000000000000000000000000a",
        "nonce": "0x29",
        "chainId": "0xaa36a7",
        "accessList": null,
        "type": null
      },
      "additionalContracts": [],
      "isFixedGasLimit": false
    },
    {
      "hash": "0x0bd77fc6ab46b4d38254a76c5acb91b7fc0265006f8abe6f87e6b94db8f2c6a9",
      "transactionType": "CALL",
      "contractName": null,
      "contractAddress": "0x920ec16ceb2a6bdf4cbdae65aa40ee07f73f52e7",
      "function": "repayment(address,uint256,address,uint256)",
      "arguments": [
        "0x920EC16CeB2A6bDf4cbdAe65Aa40eE07F73f52E7",
        "10",
        "0x481A61fB7c9EAdDD5069Fe2F6134b22AB8EE6489",
        "10"
      ],
      "transaction": {
        "from": "0x34501ee677d8180522730e78c213fec1b53be5f0",
        "to": "0x920ec16ceb2a6bdf4cbdae65aa40ee07f73f52e7",
        "gas": "0x203f3",
        "value": "0x0",
        "input": "0x6cca3c2f000000000000000000000000920ec16ceb2a6bdf4cbdae65aa40ee07f73f52e7000000000000000000000000000000000000000000000000000000000000000a000000000000000000000000481a61fb7c9eaddd5069fe2f6134b22ab8ee6489000000000000000000000000000000000000000000000000000000000000000a",
        "nonce": "0x2a",
        "chainId": "0xaa36a7",
        "accessList": null,
        "type": null
      },
      "additionalContracts": [],
      "isFixedGasLimit": false
    }
  ],
  "receipts": [
    {
      "status": "0x1",
      "cumulativeGasUsed": "0xd6a68a",
      "logs": [
        {
          "address": "0x481a61fb7c9eaddd5069fe2f6134b22ab8ee6489",
          "topics": [
            "0xddf252ad1be2c89b69c2b068fc378daa952ba7f163c4a11628f55a4df523b3ef",
            "0x0000000000000000000000000000000000000000000000000000000000000000",
            "0x00000000000000000000000034501ee677d8180522730e78c213fec1b53be5f0"
          ],
          "data": "0x00000000000000000000000000000000000000000000000000000002540be400",
          "blockHash": "0xea9c73a14832ed9d2fbd17b02c66166c944534c99888455a6efb0cbe2b004a44",
          "blockNumber": "0x5819d5",
          "transactionHash": "0x6116ba029e370cefe8c8546ed35c9133a9d64b71165e94169b45674f232bcf08",
          "transactionIndex": "0x84",
          "logIndex": "0xe7",
          "removed": false
        },
        {
          "address": "0x481a61fb7c9eaddd5069fe2f6134b22ab8ee6489",
          "topics": [
            "0x449a52f8290d0f7a93fd114212f0891c4eafca215815e758af65bf6d352a6551"
          ],
          "data": "0x00000000000000000000000034501ee677d8180522730e78c213fec1b53be5f000000000000000000000000000000000000000000000000000000002540be400",
          "blockHash": "0xea9c73a14832ed9d2fbd17b02c66166c944534c99888455a6efb0cbe2b004a44",
          "blockNumber": "0x5819d5",
          "transactionHash": "0x6116ba029e370cefe8c8546ed35c9133a9d64b71165e94169b45674f232bcf08",
          "transactionIndex": "0x84",
          "logIndex": "0xe8",
          "removed": false
        }
      ],
      "logsBloom": "0x00000000000000000020000000000000000000200000000000000000000000000000002000000000000000000000000000000000000000000000000000000000000000000000000000000008000000000002000000000000000000000000000000000000020000000000000000000800000100000000000000000410000000000000000000000000000000000000000000000000000000000000000000000000000000000000000200000000000000000000000000000000000000000000000000000002000000000000400000000001000000000000000000000000000020000000000000000000000000000000000000000000000000000000000000000000",
      "type": "0x0",
      "transactionHash": "0x6116ba029e370cefe8c8546ed35c9133a9d64b71165e94169b45674f232bcf08",
      "transactionIndex": "0x84",
      "blockHash": "0xea9c73a14832ed9d2fbd17b02c66166c944534c99888455a6efb0cbe2b004a44",
      "blockNumber": "0x5819d5",
      "gasUsed": "0x8aee",
      "effectiveGasPrice": "0x7c407bd7",
      "from": "0x34501ee677d8180522730e78c213fec1b53be5f0",
      "to": "0x481a61fb7c9eaddd5069fe2f6134b22ab8ee6489",
      "contractAddress": null
    },
    {
      "status": "0x1",
      "cumulativeGasUsed": "0xd718d5",
      "logs": [
        {
          "address": "0x481a61fb7c9eaddd5069fe2f6134b22ab8ee6489",
          "topics": [
            "0x8c5be1e5ebec7d5bd14f71427d1e84f3dd0314c0f7b2291e5b200ac8c7c3b925",
            "0x00000000000000000000000034501ee677d8180522730e78c213fec1b53be5f0",
            "0x0000000000000000000000005803cdb747e1552be21c5fca63228aa3d2622873"
          ],
          "data": "0x0000000000000000000000000000000000000000000000000000000e33e21242",
          "blockHash": "0xea9c73a14832ed9d2fbd17b02c66166c944534c99888455a6efb0cbe2b004a44",
          "blockNumber": "0x5819d5",
          "transactionHash": "0x7ff5c083d6f2a1fc8f06abcbef241b32240dac3409ce22d7a8360c3909e530e9",
          "transactionIndex": "0x85",
          "logIndex": "0xe9",
          "removed": false
        }
      ],
      "logsBloom": "0x00000002000000000000000000000000000000200000000000000000000000000000002000000000000000000000000000000000000000000000000000200004000000000000000000000000000000000000000000000000000000000000000000000000000000000000000000000000000100000000000000000400000000000000020000000000000000000000000000000000000000000000000000000000020000000000000000000000000000000000000000000000000000000000000000000000000000000000400000000001000000000000000000000000000000000010000000000000000000000000000000000000000000000000000000000000",
      "type": "0x0",
      "transactionHash": "0x7ff5c083d6f2a1fc8f06abcbef241b32240dac3409ce22d7a8360c3909e530e9",
      "transactionIndex": "0x85",
      "blockHash": "0xea9c73a14832ed9d2fbd17b02c66166c944534c99888455a6efb0cbe2b004a44",
      "blockNumber": "0x5819d5",
      "gasUsed": "0x724b",
      "effectiveGasPrice": "0x7c407bd7",
      "from": "0x34501ee677d8180522730e78c213fec1b53be5f0",
      "to": "0x481a61fb7c9eaddd5069fe2f6134b22ab8ee6489",
      "contractAddress": null
    },
    {
      "status": "0x1",
      "cumulativeGasUsed": "0xd7cdec",
      "logs": [
        {
          "address": "0x481a61fb7c9eaddd5069fe2f6134b22ab8ee6489",
          "topics": [
            "0x8c5be1e5ebec7d5bd14f71427d1e84f3dd0314c0f7b2291e5b200ac8c7c3b925",
            "0x00000000000000000000000034501ee677d8180522730e78c213fec1b53be5f0",
            "0x000000000000000000000000920ec16ceb2a6bdf4cbdae65aa40ee07f73f52e7"
          ],
          "data": "0x0000000000000000000000000000000000000000000000000000000e33e21242",
          "blockHash": "0xea9c73a14832ed9d2fbd17b02c66166c944534c99888455a6efb0cbe2b004a44",
          "blockNumber": "0x5819d5",
          "transactionHash": "0x156c953437073007f6a61d4a338bef634e6fc93f4ef5d87ab86bb72889677a8b",
          "transactionIndex": "0x86",
          "logIndex": "0xea",
          "removed": false
        }
      ],
      "logsBloom": "0x00000000000000000000000000000000000000200000000000000000000000000000002000000000000000000000000000000000000000000000000000200000000000000000000000000000000000000000000000000000000000000000000000000000000000000000000000000000000100000000000000000400000000000000000000000000000000000000000000000000000000000000000000000000020000000000000000040000000000000000000000000000000100000000000000000000000000000000400000000001000000000000000000000000200000000010000000000000000000000000000000000000000000000000000000000000",
      "type": "0x0",
      "transactionHash": "0x156c953437073007f6a61d4a338bef634e6fc93f4ef5d87ab86bb72889677a8b",
      "transactionIndex": "0x86",
      "blockHash": "0xea9c73a14832ed9d2fbd17b02c66166c944534c99888455a6efb0cbe2b004a44",
      "blockNumber": "0x5819d5",
      "gasUsed": "0xb517",
      "effectiveGasPrice": "0x7c407bd7",
      "from": "0x34501ee677d8180522730e78c213fec1b53be5f0",
      "to": "0x481a61fb7c9eaddd5069fe2f6134b22ab8ee6489",
      "contractAddress": null
    },
    {
      "status": "0x1",
      "cumulativeGasUsed": "0xd9e605",
      "logs": [
        {
          "address": "0x481a61fb7c9eaddd5069fe2f6134b22ab8ee6489",
          "topics": [
            "0xddf252ad1be2c89b69c2b068fc378daa952ba7f163c4a11628f55a4df523b3ef",
            "0x00000000000000000000000034501ee677d8180522730e78c213fec1b53be5f0",
            "0x000000000000000000000000920ec16ceb2a6bdf4cbdae65aa40ee07f73f52e7"
          ],
          "data": "0x00000000000000000000000000000000000000000000000000000000000007d0",
          "blockHash": "0xea9c73a14832ed9d2fbd17b02c66166c944534c99888455a6efb0cbe2b004a44",
          "blockNumber": "0x5819d5",
          "transactionHash": "0x2da5858a8051be618e3fe8af5d58f5f25b1b58ffa2ec3c860d92bb3eff8a8dd8",
          "transactionIndex": "0x87",
          "logIndex": "0xeb",
          "removed": false
        },
        {
          "address": "0x920ec16ceb2a6bdf4cbdae65aa40ee07f73f52e7",
          "topics": [
            "0xddf252ad1be2c89b69c2b068fc378daa952ba7f163c4a11628f55a4df523b3ef",
            "0x0000000000000000000000000000000000000000000000000000000000000000",
            "0x00000000000000000000000034501ee677d8180522730e78c213fec1b53be5f0"
          ],
          "data": "0x0000000000000000000000000000000000000000000000000000002e90ed89b0",
          "blockHash": "0xea9c73a14832ed9d2fbd17b02c66166c944534c99888455a6efb0cbe2b004a44",
          "blockNumber": "0x5819d5",
          "transactionHash": "0x2da5858a8051be618e3fe8af5d58f5f25b1b58ffa2ec3c860d92bb3eff8a8dd8",
          "transactionIndex": "0x87",
          "logIndex": "0xec",
          "removed": false
        },
        {
          "address": "0x920ec16ceb2a6bdf4cbdae65aa40ee07f73f52e7",
          "topics": [
            "0xffaad6a51867cde4125cd8ca83b3ebe39a412938c5be43e149bad7e431112ba2",
            "0x00000000000000000000000034501ee677d8180522730e78c213fec1b53be5f0"
          ],
          "data": "0x00000000000000000000000000000000000000000000000000000000000007d0",
          "blockHash": "0xea9c73a14832ed9d2fbd17b02c66166c944534c99888455a6efb0cbe2b004a44",
          "blockNumber": "0x5819d5",
          "transactionHash": "0x2da5858a8051be618e3fe8af5d58f5f25b1b58ffa2ec3c860d92bb3eff8a8dd8",
          "transactionIndex": "0x87",
          "logIndex": "0xed",
          "removed": false
        }
      ],
      "logsBloom": "0x00000000000000008000000000000000000000200000000000000000000000000000002000000020000000000000000000000000000000000000000000000010000000000000000000000008000000000000000000000000000000000000000000000000020000000000000000000800000100000000000000000410000000000000000000000000000000000010000000000000000000000000000000000000000000080000000000040000000000000000000000000000000100000000000000000002000000000000400000000001000000000000000000000000200020000000000000080000000000000000000000000000000000000000000000000000",
      "type": "0x0",
      "transactionHash": "0x2da5858a8051be618e3fe8af5d58f5f25b1b58ffa2ec3c860d92bb3eff8a8dd8",
      "transactionIndex": "0x87",
      "blockHash": "0xea9c73a14832ed9d2fbd17b02c66166c944534c99888455a6efb0cbe2b004a44",
      "blockNumber": "0x5819d5",
      "gasUsed": "0x21819",
      "effectiveGasPrice": "0x7c407bd7",
      "from": "0x34501ee677d8180522730e78c213fec1b53be5f0",
      "to": "0x920ec16ceb2a6bdf4cbdae65aa40ee07f73f52e7",
      "contractAddress": null
    },
    {
      "status": "0x1",
      "cumulativeGasUsed": "0xda9b0f",
      "logs": [
        {
          "address": "0x920ec16ceb2a6bdf4cbdae65aa40ee07f73f52e7",
          "topics": [
            "0x8c5be1e5ebec7d5bd14f71427d1e84f3dd0314c0f7b2291e5b200ac8c7c3b925",
            "0x00000000000000000000000034501ee677d8180522730e78c213fec1b53be5f0",
            "0x000000000000000000000000920ec16ceb2a6bdf4cbdae65aa40ee07f73f52e7"
          ],
          "data": "0x00000000000000000000000000000000000000000000000000000000000004b0",
          "blockHash": "0xea9c73a14832ed9d2fbd17b02c66166c944534c99888455a6efb0cbe2b004a44",
          "blockNumber": "0x5819d5",
          "transactionHash": "0x4cbd4512a057b9d8e450956ad9094d401ef8e0ffa6c470ee2180803a70ab11b1",
          "transactionIndex": "0x88",
          "logIndex": "0xee",
          "removed": false
        }
      ],
      "logsBloom": "0x00000000000000000000000000000000000000200000000000000000000000000000000000000020000000000000000000000000000000000000000000200000000000000000000000000000000000000000000000000000000000000000000000000000000000000000000000000000000100000000000000000000000000000000000000000000000000000010000000000000000000000000000000000000020000000000000000040000000000000000000000000000000100000000000000000000000000000000000000000001000000000000000000000000200000000010000000080000000000000000000000000000000000000000000000000000",
      "type": "0x0",
      "transactionHash": "0x4cbd4512a057b9d8e450956ad9094d401ef8e0ffa6c470ee2180803a70ab11b1",
      "transactionIndex": "0x88",
      "blockHash": "0xea9c73a14832ed9d2fbd17b02c66166c944534c99888455a6efb0cbe2b004a44",
      "blockNumber": "0x5819d5",
      "gasUsed": "0xb50a",
      "effectiveGasPrice": "0x7c407bd7",
      "from": "0x34501ee677d8180522730e78c213fec1b53be5f0",
      "to": "0x920ec16ceb2a6bdf4cbdae65aa40ee07f73f52e7",
      "contractAddress": null
    },
    {
      "status": "0x1",
      "cumulativeGasUsed": "0xdd5bbf",
      "logs": [
        {
          "address": "0x920ec16ceb2a6bdf4cbdae65aa40ee07f73f52e7",
          "topics": [
            "0x10e6ffbf70ea11db87f1498a9f8c54026213877a9f5beb696c705b476ddc053c",
            "0x00000000000000000000000034501ee677d8180522730e78c213fec1b53be5f0"
          ],
          "data": "0x000000000000000000000000920ec16ceb2a6bdf4cbdae65aa40ee07f73f52e700000000000000000000000000000000000000000000000000000000000004b0000000000000000000000000481a61fb7c9eaddd5069fe2f6134b22ab8ee648900000000000000000000000000000000000000000000000000000000000003e8",
          "blockHash": "0xea9c73a14832ed9d2fbd17b02c66166c944534c99888455a6efb0cbe2b004a44",
          "blockNumber": "0x5819d5",
          "transactionHash": "0x3bf6ba699d900ec8462961ca46aa9aa1293f462375e85b30ea949daca81f8942",
          "transactionIndex": "0x89",
          "logIndex": "0xef",
          "removed": false
        },
        {
          "address": "0x920ec16ceb2a6bdf4cbdae65aa40ee07f73f52e7",
          "topics": [
            "0xddf252ad1be2c89b69c2b068fc378daa952ba7f163c4a11628f55a4df523b3ef",
            "0x00000000000000000000000034501ee677d8180522730e78c213fec1b53be5f0",
            "0x000000000000000000000000920ec16ceb2a6bdf4cbdae65aa40ee07f73f52e7"
          ],
          "data": "0x00000000000000000000000000000000000000000000000000000000000004b0",
          "blockHash": "0xea9c73a14832ed9d2fbd17b02c66166c944534c99888455a6efb0cbe2b004a44",
          "blockNumber": "0x5819d5",
          "transactionHash": "0x3bf6ba699d900ec8462961ca46aa9aa1293f462375e85b30ea949daca81f8942",
          "transactionIndex": "0x89",
          "logIndex": "0xf0",
          "removed": false
        },
        {
          "address": "0x481a61fb7c9eaddd5069fe2f6134b22ab8ee6489",
          "topics": [
            "0xddf252ad1be2c89b69c2b068fc378daa952ba7f163c4a11628f55a4df523b3ef",
            "0x000000000000000000000000920ec16ceb2a6bdf4cbdae65aa40ee07f73f52e7",
            "0x00000000000000000000000034501ee677d8180522730e78c213fec1b53be5f0"
          ],
          "data": "0x00000000000000000000000000000000000000000000000000000000000003e8",
          "blockHash": "0xea9c73a14832ed9d2fbd17b02c66166c944534c99888455a6efb0cbe2b004a44",
          "blockNumber": "0x5819d5",
          "transactionHash": "0x3bf6ba699d900ec8462961ca46aa9aa1293f462375e85b30ea949daca81f8942",
          "transactionIndex": "0x89",
          "logIndex": "0xf1",
          "removed": false
        },
        {
          "address": "0x920ec16ceb2a6bdf4cbdae65aa40ee07f73f52e7",
          "topics": [
            "0x3515b35de5139187b5f1cfc0684ee199a130937eae5916c3fb3d73124ae0c949",
            "0x00000000000000000000000034501ee677d8180522730e78c213fec1b53be5f0"
          ],
          "data": "0x000000000000000000000000481a61fb7c9eaddd5069fe2f6134b22ab8ee648900000000000000000000000000000000000000000000000000000000000003e8",
          "blockHash": "0xea9c73a14832ed9d2fbd17b02c66166c944534c99888455a6efb0cbe2b004a44",
          "blockNumber": "0x5819d5",
          "transactionHash": "0x3bf6ba699d900ec8462961ca46aa9aa1293f462375e85b30ea949daca81f8942",
          "transactionIndex": "0x89",
          "logIndex": "0xf2",
          "removed": false
        }
      ],
      "logsBloom": "0x00000000000000000000000000000000000000200000000000000000000000000000002000040020000000000000000000000040000000000000000000000000000000000000000000000008000000000000000000000000000000000000000000000000000000000000000000000000000100000000000000000410000000000000000000000000000000000010000000000000100000000000000000000000000000000000008000040000000000000000000000000000000100000000000000000002000000000000400000000001000040000000000004000000200000000000000000080000000000000000000000000000000000000000000000000000",
      "type": "0x0",
      "transactionHash": "0x3bf6ba699d900ec8462961ca46aa9aa1293f462375e85b30ea949daca81f8942",
      "transactionIndex": "0x89",
      "blockHash": "0xea9c73a14832ed9d2fbd17b02c66166c944534c99888455a6efb0cbe2b004a44",
      "blockNumber": "0x5819d5",
      "gasUsed": "0x2c0b0",
      "effectiveGasPrice": "0x7c407bd7",
      "from": "0x34501ee677d8180522730e78c213fec1b53be5f0",
      "to": "0x920ec16ceb2a6bdf4cbdae65aa40ee07f73f52e7",
      "contractAddress": null
    },
    {
      "status": "0x1",
      "cumulativeGasUsed": "0xddcdda",
      "logs": [
        {
          "address": "0x481a61fb7c9eaddd5069fe2f6134b22ab8ee6489",
          "topics": [
            "0x8c5be1e5ebec7d5bd14f71427d1e84f3dd0314c0f7b2291e5b200ac8c7c3b925",
            "0x00000000000000000000000034501ee677d8180522730e78c213fec1b53be5f0",
            "0x000000000000000000000000920ec16ceb2a6bdf4cbdae65aa40ee07f73f52e7"
          ],
          "data": "0x000000000000000000000000000000000000000000000000000000000000000a",
          "blockHash": "0xea9c73a14832ed9d2fbd17b02c66166c944534c99888455a6efb0cbe2b004a44",
          "blockNumber": "0x5819d5",
          "transactionHash": "0xccdc6042a2b1a4e417b6b82f235d49fa9a66babd3204bc4aeeb73b7a78aa43b1",
          "transactionIndex": "0x8a",
          "logIndex": "0xf3",
          "removed": false
        }
      ],
      "logsBloom": "0x00000000000000000000000000000000000000200000000000000000000000000000002000000000000000000000000000000000000000000000000000200000000000000000000000000000000000000000000000000000000000000000000000000000000000000000000000000000000100000000000000000400000000000000000000000000000000000000000000000000000000000000000000000000020000000000000000040000000000000000000000000000000100000000000000000000000000000000400000000001000000000000000000000000200000000010000000000000000000000000000000000000000000000000000000000000",
      "type": "0x0",
      "transactionHash": "0xccdc6042a2b1a4e417b6b82f235d49fa9a66babd3204bc4aeeb73b7a78aa43b1",
      "transactionIndex": "0x8a",
      "blockHash": "0xea9c73a14832ed9d2fbd17b02c66166c944534c99888455a6efb0cbe2b004a44",
      "blockNumber": "0x5819d5",
      "gasUsed": "0x721b",
      "effectiveGasPrice": "0x7c407bd7",
      "from": "0x34501ee677d8180522730e78c213fec1b53be5f0",
      "to": "0x481a61fb7c9eaddd5069fe2f6134b22ab8ee6489",
      "contractAddress": null
    },
    {
      "status": "0x1",
      "cumulativeGasUsed": "0xdf2ea4",
      "logs": [
        {
          "address": "0x920ec16ceb2a6bdf4cbdae65aa40ee07f73f52e7",
          "topics": [
            "0x10e6ffbf70ea11db87f1498a9f8c54026213877a9f5beb696c705b476ddc053c",
            "0x00000000000000000000000034501ee677d8180522730e78c213fec1b53be5f0"
          ],
          "data": "0x000000000000000000000000920ec16ceb2a6bdf4cbdae65aa40ee07f73f52e700000000000000000000000000000000000000000000000000000000000004a6000000000000000000000000481a61fb7c9eaddd5069fe2f6134b22ab8ee648900000000000000000000000000000000000000000000000000000000000003de",
          "blockHash": "0xea9c73a14832ed9d2fbd17b02c66166c944534c99888455a6efb0cbe2b004a44",
          "blockNumber": "0x5819d5",
          "transactionHash": "0x0bd77fc6ab46b4d38254a76c5acb91b7fc0265006f8abe6f87e6b94db8f2c6a9",
          "transactionIndex": "0x8b",
          "logIndex": "0xf4",
          "removed": false
        },
        {
          "address": "0x920ec16ceb2a6bdf4cbdae65aa40ee07f73f52e7",
          "topics": [
            "0xddf252ad1be2c89b69c2b068fc378daa952ba7f163c4a11628f55a4df523b3ef",
            "0x000000000000000000000000920ec16ceb2a6bdf4cbdae65aa40ee07f73f52e7",
            "0x00000000000000000000000034501ee677d8180522730e78c213fec1b53be5f0"
          ],
          "data": "0x000000000000000000000000000000000000000000000000000000000000000a",
          "blockHash": "0xea9c73a14832ed9d2fbd17b02c66166c944534c99888455a6efb0cbe2b004a44",
          "blockNumber": "0x5819d5",
          "transactionHash": "0x0bd77fc6ab46b4d38254a76c5acb91b7fc0265006f8abe6f87e6b94db8f2c6a9",
          "transactionIndex": "0x8b",
          "logIndex": "0xf5",
          "removed": false
        },
        {
          "address": "0x481a61fb7c9eaddd5069fe2f6134b22ab8ee6489",
          "topics": [
            "0xddf252ad1be2c89b69c2b068fc378daa952ba7f163c4a11628f55a4df523b3ef",
            "0x00000000000000000000000034501ee677d8180522730e78c213fec1b53be5f0",
            "0x000000000000000000000000920ec16ceb2a6bdf4cbdae65aa40ee07f73f52e7"
          ],
          "data": "0x000000000000000000000000000000000000000000000000000000000000000a",
          "blockHash": "0xea9c73a14832ed9d2fbd17b02c66166c944534c99888455a6efb0cbe2b004a44",
          "blockNumber": "0x5819d5",
          "transactionHash": "0x0bd77fc6ab46b4d38254a76c5acb91b7fc0265006f8abe6f87e6b94db8f2c6a9",
          "transactionIndex": "0x8b",
          "logIndex": "0xf6",
          "removed": false
        },
        {
          "address": "0x920ec16ceb2a6bdf4cbdae65aa40ee07f73f52e7",
          "topics": [
            "0xfc5616f01e1c1dbb08a12619251fb851d6b75274ceb88d493e5894a5eea00e68"
          ],
          "data": "0x00000000000000000000000034501ee677d8180522730e78c213fec1b53be5f0000000000000000000000000481a61fb7c9eaddd5069fe2f6134b22ab8ee6489000000000000000000000000000000000000000000000000000000000000000a",
          "blockHash": "0xea9c73a14832ed9d2fbd17b02c66166c944534c99888455a6efb0cbe2b004a44",
          "blockNumber": "0x5819d5",
          "transactionHash": "0x0bd77fc6ab46b4d38254a76c5acb91b7fc0265006f8abe6f87e6b94db8f2c6a9",
          "transactionIndex": "0x8b",
          "logIndex": "0xf7",
          "removed": false
        }
      ],
      "logsBloom": "0x00000000000000000000000000000000000000200000000000000000000000000000002000000020000000000000000000000000000000000000000000000000000000000000000000000008000000000000000000000000000004000000000000000000000000000000000000000000000100000000000000000410000000000000000000000000000000000010000000000000100000000000000000000000000000000000008000040000000000000000000000000000000100000000000000000002000000000000400000000001000040000000000000000000200000000000000000080000000000400000000000800000000000000000000000000000",
      "type": "0x0",
      "transactionHash": "0x0bd77fc6ab46b4d38254a76c5acb91b7fc0265006f8abe6f87e6b94db8f2c6a9",
      "transactionIndex": "0x8b",
      "blockHash": "0xea9c73a14832ed9d2fbd17b02c66166c944534c99888455a6efb0cbe2b004a44",
      "blockNumber": "0x5819d5",
      "gasUsed": "0x160ca",
      "effectiveGasPrice": "0x7c407bd7",
      "from": "0x34501ee677d8180522730e78c213fec1b53be5f0",
      "to": "0x920ec16ceb2a6bdf4cbdae65aa40ee07f73f52e7",
      "contractAddress": null
    }
  ],
  "libraries": [],
  "pending": [],
  "returns": {},
  "timestamp": 1714098121,
  "chain": 11155111,
  "commit": "9c02021"
}