{
  "transactions": [
    {
      "hash": "0x801cf619e1c3e8f8ffa77ec1e2af5298a6b2c00b10a36187db4ce1705d79bec1",
      "transactionType": "CALL",
      "contractName": null,
      "contractAddress": "0x481a61fb7c9eaddd5069fe2f6134b22ab8ee6489",
      "function": "mint(address,uint256)",
      "arguments": [
        "0x34501EE677d8180522730e78C213Fec1b53Be5F0",
        "10000000000"
      ],
      "transaction": {
        "from": "0x34501ee677d8180522730e78c213fec1b53be5f0",
        "to": "0x481a61fb7c9eaddd5069fe2f6134b22ab8ee6489",
        "gas": "0xbfe4",
        "value": "0x0",
        "input": "0x40c10f1900000000000000000000000034501ee677d8180522730e78c213fec1b53be5f000000000000000000000000000000000000000000000000000000002540be400",
        "nonce": "0x4",
        "chainId": "0xaa36a7",
        "accessList": null,
        "type": null
      },
      "additionalContracts": [],
      "isFixedGasLimit": false
    },
    {
      "hash": "0x3b1ed460259605d897053163efa49aa7affb939fec451ab9c0ecd3e5700d0d60",
      "transactionType": "CALL",
      "contractName": null,
      "contractAddress": "0x481a61fb7c9eaddd5069fe2f6134b22ab8ee6489",
      "function": "approve(address,uint256)",
      "arguments": [
        "0x5803CdB747e1552Be21C5FCa63228aA3D2622873",
        "20999999000"
      ],
      "transaction": {
        "from": "0x34501ee677d8180522730e78c213fec1b53be5f0",
        "to": "0x481a61fb7c9eaddd5069fe2f6134b22ab8ee6489",
        "gas": "0xa726",
        "value": "0x0",
        "input": "0x095ea7b30000000000000000000000005803cdb747e1552be21c5fca63228aa3d262287300000000000000000000000000000000000000000000000000000004e3b28e18",
        "nonce": "0x5",
        "chainId": "0xaa36a7",
        "accessList": null,
        "type": null
      },
      "additionalContracts": [],
      "isFixedGasLimit": false
    },
    {
      "hash": "0x40bdf64eecbd6cd94cc652ea67f9a2711181e3b08826c481b2326db1edc54aca",
      "transactionType": "CALL",
      "contractName": null,
      "contractAddress": "0x481a61fb7c9eaddd5069fe2f6134b22ab8ee6489",
      "function": "approve(address,uint256)",
      "arguments": [
        "0xdcb29F3C510Af6fEe5512E94CA9ccA4a289f6163",
        "20999999000"
      ],
      "transaction": {
        "from": "0x34501ee677d8180522730e78c213fec1b53be5f0",
        "to": "0x481a61fb7c9eaddd5069fe2f6134b22ab8ee6489",
        "gas": "0xfa20",
        "value": "0x0",
        "input": "0x095ea7b3000000000000000000000000dcb29f3c510af6fee5512e94ca9cca4a289f616300000000000000000000000000000000000000000000000000000004e3b28e18",
        "nonce": "0x6",
        "chainId": "0xaa36a7",
        "accessList": null,
        "type": null
      },
      "additionalContracts": [],
      "isFixedGasLimit": false
    },
    {
      "hash": "0x39bf1cb3b7627a834c17e48e2f25db8ef6f4a8432129e21e41d2c9df6f0805fd",
      "transactionType": "CALL",
      "contractName": null,
      "contractAddress": "0xdcb29f3c510af6fee5512e94ca9cca4a289f6163",
      "function": "deposit(uint256)",
      "arguments": [
        "1000"
      ],
      "transaction": {
        "from": "0x34501ee677d8180522730e78c213fec1b53be5f0",
        "to": "0xdcb29f3c510af6fee5512e94ca9cca4a289f6163",
        "gas": "0x3100a",
        "value": "0x0",
        "input": "0xb6b55f2500000000000000000000000000000000000000000000000000000000000003e8",
        "nonce": "0x7",
        "chainId": "0xaa36a7",
        "accessList": null,
        "type": null
      },
      "additionalContracts": [],
      "isFixedGasLimit": false
    },
    {
      "hash": "0x11c568fd300efcc5fb3b0625123fa3d7b0335a938d55447d1c00d1f968bf23f7",
      "transactionType": "CALL",
      "contractName": null,
      "contractAddress": "0xdcb29f3c510af6fee5512e94ca9cca4a289f6163",
      "function": "approve(address,uint256)",
      "arguments": [
        "0xdcb29F3C510Af6fEe5512E94CA9ccA4a289f6163",
        "1200"
      ],
      "transaction": {
        "from": "0x34501ee677d8180522730e78c213fec1b53be5f0",
        "to": "0xdcb29f3c510af6fee5512e94ca9cca4a289f6163",
        "gas": "0x108c4",
        "value": "0x0",
        "input": "0x095ea7b3000000000000000000000000dcb29f3c510af6fee5512e94ca9cca4a289f616300000000000000000000000000000000000000000000000000000000000004b0",
        "nonce": "0x8",
        "chainId": "0xaa36a7",
        "accessList": null,
        "type": null
      },
      "additionalContracts": [],
      "isFixedGasLimit": false
    },
    {
      "hash": "0x7216840a88e3d7015d9c1e349f46b6c473d878375e2873d642858e279469e27c",
      "transactionType": "CALL",
      "contractName": null,
      "contractAddress": "0xdcb29f3c510af6fee5512e94ca9cca4a289f6163",
      "function": "borrow(address,uint256,address,uint256)",
      "arguments": [
        "0xdcb29F3C510Af6fEe5512E94CA9ccA4a289f6163",
        "1200",
        "0x481A61fB7c9EAdDD5069Fe2F6134b22AB8EE6489",
        "1000"
      ],
      "transaction": {
        "from": "0x34501ee677d8180522730e78c213fec1b53be5f0",
        "to": "0xdcb29f3c510af6fee5512e94ca9cca4a289f6163",
        "gas": "0x3e56b",
        "value": "0x0",
        "input": "0xd0280539000000000000000000000000dcb29f3c510af6fee5512e94ca9cca4a289f616300000000000000000000000000000000000000000000000000000000000004b0000000000000000000000000481a61fb7c9eaddd5069fe2f6134b22ab8ee648900000000000000000000000000000000000000000000000000000000000003e8",
        "nonce": "0x9",
        "chainId": "0xaa36a7",
        "accessList": null,
        "type": null
      },
      "additionalContracts": [],
      "isFixedGasLimit": false
    }
  ],
  "receipts": [
    {
      "status": "0x1",
      "cumulativeGasUsed": "0x80baf3",
      "logs": [
        {
          "address": "0x481a61fb7c9eaddd5069fe2f6134b22ab8ee6489",
          "topics": [
            "0xddf252ad1be2c89b69c2b068fc378daa952ba7f163c4a11628f55a4df523b3ef",
            "0x0000000000000000000000000000000000000000000000000000000000000000",
            "0x00000000000000000000000034501ee677d8180522730e78c213fec1b53be5f0"
          ],
          "data": "0x00000000000000000000000000000000000000000000000000000002540be400",
          "blockHash": "0xf83d0f3c4d67bbbdf9dbb6c20708cdea50057bc5d529b41d8ebb23b450454811",
          "blockNumber": "0x58022a",
          "transactionHash": "0x801cf619e1c3e8f8ffa77ec1e2af5298a6b2c00b10a36187db4ce1705d79bec1",
          "transactionIndex": "0x49",
          "logIndex": "0x46",
          "removed": false
        },
        {
          "address": "0x481a61fb7c9eaddd5069fe2f6134b22ab8ee6489",
          "topics": [
            "0x449a52f8290d0f7a93fd114212f0891c4eafca215815e758af65bf6d352a6551"
          ],
          "data": "0x00000000000000000000000034501ee677d8180522730e78c213fec1b53be5f000000000000000000000000000000000000000000000000000000002540be400",
          "blockHash": "0xf83d0f3c4d67bbbdf9dbb6c20708cdea50057bc5d529b41d8ebb23b450454811",
          "blockNumber": "0x58022a",
          "transactionHash": "0x801cf619e1c3e8f8ffa77ec1e2af5298a6b2c00b10a36187db4ce1705d79bec1",
          "transactionIndex": "0x49",
          "logIndex": "0x47",
          "removed": false
        }
      ],
      "logsBloom": "0x00000000000000000020000000000000000000200000000000000000000000000000002000000000000000000000000000000000000000000000000000000000000000000000000000000008000000000002000000000000000000000000000000000000020000000000000000000800000100000000000000000410000000000000000000000000000000000000000000000000000000000000000000000000000000000000000200000000000000000000000000000000000000000000000000000002000000000000400000000001000000000000000000000000000020000000000000000000000000000000000000000000000000000000000000000000",
      "type": "0x0",
      "transactionHash": "0x801cf619e1c3e8f8ffa77ec1e2af5298a6b2c00b10a36187db4ce1705d79bec1",
      "transactionIndex": "0x49",
      "blockHash": "0xf83d0f3c4d67bbbdf9dbb6c20708cdea50057bc5d529b41d8ebb23b450454811",
      "blockNumber": "0x58022a",
      "gasUsed": "0x8aee",
      "effectiveGasPrice": "0x5fda095e",
      "from": "0x34501ee677d8180522730e78c213fec1b53be5f0",
      "to": "0x481a61fb7c9eaddd5069fe2f6134b22ab8ee6489",
      "contractAddress": null
    },
    {
      "status": "0x1",
      "cumulativeGasUsed": "0x812d3e",
      "logs": [
        {
          "address": "0x481a61fb7c9eaddd5069fe2f6134b22ab8ee6489",
          "topics": [
            "0x8c5be1e5ebec7d5bd14f71427d1e84f3dd0314c0f7b2291e5b200ac8c7c3b925",
            "0x00000000000000000000000034501ee677d8180522730e78c213fec1b53be5f0",
            "0x0000000000000000000000005803cdb747e1552be21c5fca63228aa3d2622873"
          ],
          "data": "0x00000000000000000000000000000000000000000000000000000004e3b28e18",
          "blockHash": "0xf83d0f3c4d67bbbdf9dbb6c20708cdea50057bc5d529b41d8ebb23b450454811",
          "blockNumber": "0x58022a",
          "transactionHash": "0x3b1ed460259605d897053163efa49aa7affb939fec451ab9c0ecd3e5700d0d60",
          "transactionIndex": "0x4a",
          "logIndex": "0x48",
          "removed": false
        }
      ],
      "logsBloom": "0x00000002000000000000000000000000000000200000000000000000000000000000002000000000000000000000000000000000000000000000000000200004000000000000000000000000000000000000000000000000000000000000000000000000000000000000000000000000000100000000000000000400000000000000020000000000000000000000000000000000000000000000000000000000020000000000000000000000000000000000000000000000000000000000000000000000000000000000400000000001000000000000000000000000000000000010000000000000000000000000000000000000000000000000000000000000",
      "type": "0x0",
      "transactionHash": "0x3b1ed460259605d897053163efa49aa7affb939fec451ab9c0ecd3e5700d0d60",
      "transactionIndex": "0x4a",
      "blockHash": "0xf83d0f3c4d67bbbdf9dbb6c20708cdea50057bc5d529b41d8ebb23b450454811",
      "blockNumber": "0x58022a",
      "gasUsed": "0x724b",
      "effectiveGasPrice": "0x5fda095e",
      "from": "0x34501ee677d8180522730e78c213fec1b53be5f0",
      "to": "0x481a61fb7c9eaddd5069fe2f6134b22ab8ee6489",
      "contractAddress": null
    },
    {
      "status": "0x1",
      "cumulativeGasUsed": "0x81e255",
      "logs": [
        {
          "address": "0x481a61fb7c9eaddd5069fe2f6134b22ab8ee6489",
          "topics": [
            "0x8c5be1e5ebec7d5bd14f71427d1e84f3dd0314c0f7b2291e5b200ac8c7c3b925",
            "0x00000000000000000000000034501ee677d8180522730e78c213fec1b53be5f0",
            "0x000000000000000000000000dcb29f3c510af6fee5512e94ca9cca4a289f6163"
          ],
          "data": "0x00000000000000000000000000000000000000000000000000000004e3b28e18",
          "blockHash": "0xf83d0f3c4d67bbbdf9dbb6c20708cdea50057bc5d529b41d8ebb23b450454811",
          "blockNumber": "0x58022a",
          "transactionHash": "0x40bdf64eecbd6cd94cc652ea67f9a2711181e3b08826c481b2326db1edc54aca",
          "transactionIndex": "0x4b",
          "logIndex": "0x49",
          "removed": false
        }
      ],
      "logsBloom": "0x00000000000000008000000000000000000000200000000004000000000000000000002000000000000000000000000000000000000000000000000000200000000000000000000000000000000000000000000000000000000000000000000000000000000000000000000000000000000100000000000000000400000000000000000000000000000000000000000000000000000000000000000000000000020000000000000000000000000000000000000000000000000000000000000000000000000000000000400000002001000000000000000000000000000000000010000000000000000000000000000000000000000000000000000000000000",
      "type": "0x0",
      "transactionHash": "0x40bdf64eecbd6cd94cc652ea67f9a2711181e3b08826c481b2326db1edc54aca",
      "transactionIndex": "0x4b",
      "blockHash": "0xf83d0f3c4d67bbbdf9dbb6c20708cdea50057bc5d529b41d8ebb23b450454811",
      "blockNumber": "0x58022a",
      "gasUsed": "0xb517",
      "effectiveGasPrice": "0x5fda095e",
      "from": "0x34501ee677d8180522730e78c213fec1b53be5f0",
      "to": "0x481a61fb7c9eaddd5069fe2f6134b22ab8ee6489",
      "contractAddress": null
    },
    {
      "status": "0x1",
      "cumulativeGasUsed": "0x83fa6e",
      "logs": [
        {
          "address": "0x481a61fb7c9eaddd5069fe2f6134b22ab8ee6489",
          "topics": [
            "0xddf252ad1be2c89b69c2b068fc378daa952ba7f163c4a11628f55a4df523b3ef",
            "0x00000000000000000000000034501ee677d8180522730e78c213fec1b53be5f0",
            "0x000000000000000000000000dcb29f3c510af6fee5512e94ca9cca4a289f6163"
          ],
          "data": "0x00000000000000000000000000000000000000000000000000000000000003e8",
          "blockHash": "0xf83d0f3c4d67bbbdf9dbb6c20708cdea50057bc5d529b41d8ebb23b450454811",
          "blockNumber": "0x58022a",
          "transactionHash": "0x39bf1cb3b7627a834c17e48e2f25db8ef6f4a8432129e21e41d2c9df6f0805fd",
          "transactionIndex": "0x4c",
          "logIndex": "0x4a",
          "removed": false
        },
        {
          "address": "0xdcb29f3c510af6fee5512e94ca9cca4a289f6163",
          "topics": [
            "0xddf252ad1be2c89b69c2b068fc378daa952ba7f163c4a11628f55a4df523b3ef",
            "0x0000000000000000000000000000000000000000000000000000000000000000",
            "0x00000000000000000000000034501ee677d8180522730e78c213fec1b53be5f0"
          ],
          "data": "0x000000000000000000000000000000000000000000000000000000174876c4d8",
          "blockHash": "0xf83d0f3c4d67bbbdf9dbb6c20708cdea50057bc5d529b41d8ebb23b450454811",
          "blockNumber": "0x58022a",
          "transactionHash": "0x39bf1cb3b7627a834c17e48e2f25db8ef6f4a8432129e21e41d2c9df6f0805fd",
          "transactionIndex": "0x4c",
          "logIndex": "0x4b",
          "removed": false
        },
        {
          "address": "0xdcb29f3c510af6fee5512e94ca9cca4a289f6163",
          "topics": [
            "0xffaad6a51867cde4125cd8ca83b3ebe39a412938c5be43e149bad7e431112ba2",
            "0x00000000000000000000000034501ee677d8180522730e78c213fec1b53be5f0"
          ],
          "data": "0x00000000000000000000000000000000000000000000000000000000000003e8",
          "blockHash": "0xf83d0f3c4d67bbbdf9dbb6c20708cdea50057bc5d529b41d8ebb23b450454811",
          "blockNumber": "0x58022a",
          "transactionHash": "0x39bf1cb3b7627a834c17e48e2f25db8ef6f4a8432129e21e41d2c9df6f0805fd",
          "transactionIndex": "0x4c",
          "logIndex": "0x4c",
          "removed": false
        }
      ],
      "logsBloom": "0x00000000000000008000000000000000000000200000004004000000000000000000002000000000000000000000000000000000000000000000000000000010000000000000000000000008000000000000000000000000000000000000000000000000020000000000000000000800000100000000000000000410010000000000000000000000000000000000000000000000000000000000000000000000000000080000000000000000000000000000000000000000000000000000000000000002000000000001400000002001000000000000000000000000000020000000000000000000000000000000000000000000000000000000000000000000",
      "type": "0x0",
      "transactionHash": "0x39bf1cb3b7627a834c17e48e2f25db8ef6f4a8432129e21e41d2c9df6f0805fd",
      "transactionIndex": "0x4c",
      "blockHash": "0xf83d0f3c4d67bbbdf9dbb6c20708cdea50057bc5d529b41d8ebb23b450454811",
      "blockNumber": "0x58022a",
      "gasUsed": "0x21819",
      "effectiveGasPrice": "0x5fda095e",
      "from": "0x34501ee677d8180522730e78c213fec1b53be5f0",
      "to": "0xdcb29f3c510af6fee5512e94ca9cca4a289f6163",
      "contractAddress": null
    },
    {
      "status": "0x1",
      "cumulativeGasUsed": "0x84af78",
      "logs": [
        {
          "address": "0xdcb29f3c510af6fee5512e94ca9cca4a289f6163",
          "topics": [
            "0x8c5be1e5ebec7d5bd14f71427d1e84f3dd0314c0f7b2291e5b200ac8c7c3b925",
            "0x00000000000000000000000034501ee677d8180522730e78c213fec1b53be5f0",
            "0x000000000000000000000000dcb29f3c510af6fee5512e94ca9cca4a289f6163"
          ],
          "data": "0x00000000000000000000000000000000000000000000000000000000000004b0",
          "blockHash": "0xf83d0f3c4d67bbbdf9dbb6c20708cdea50057bc5d529b41d8ebb23b450454811",
          "blockNumber": "0x58022a",
          "transactionHash": "0x11c568fd300efcc5fb3b0625123fa3d7b0335a938d55447d1c00d1f968bf23f7",
          "transactionIndex": "0x4d",
          "logIndex": "0x4d",
          "removed": false
        }
      ],
      "logsBloom": "0x00000000000000008000000000000000000000200000004004000000000000000000000000000000000000000000000000000000000000000000000000200000000000000000000000000000000000000000000000000000000000000000000000000000000000000000000000000000000100000000000000000000010000000000000000000000000000000000000000000000000000000000000000000000020000000000000000000000000000000000000000000000000000000000000000000000000000000001000000002001000000000000000000000000000000000010000000000000000000000000000000000000000000000000000000000000",
      "type": "0x0",
      "transactionHash": "0x11c568fd300efcc5fb3b0625123fa3d7b0335a938d55447d1c00d1f968bf23f7",
      "transactionIndex": "0x4d",
      "blockHash": "0xf83d0f3c4d67bbbdf9dbb6c20708cdea50057bc5d529b41d8ebb23b450454811",
      "blockNumber": "0x58022a",
      "gasUsed": "0xb50a",
      "effectiveGasPrice": "0x5fda095e",
      "from": "0x34501ee677d8180522730e78c213fec1b53be5f0",
      "to": "0xdcb29f3c510af6fee5512e94ca9cca4a289f6163",
      "contractAddress": null
    },
    {
      "status": "0x1",
      "cumulativeGasUsed": "0x878196",
      "logs": [
        {
          "address": "0xdcb29f3c510af6fee5512e94ca9cca4a289f6163",
          "topics": [
            "0x10e6ffbf70ea11db87f1498a9f8c54026213877a9f5beb696c705b476ddc053c",
            "0x00000000000000000000000034501ee677d8180522730e78c213fec1b53be5f0"
          ],
          "data": "0x000000000000000000000000dcb29f3c510af6fee5512e94ca9cca4a289f616300000000000000000000000000000000000000000000000000000000000004b0000000000000000000000000481a61fb7c9eaddd5069fe2f6134b22ab8ee648900000000000000000000000000000000000000000000000000000000000003e8",
          "blockHash": "0xf83d0f3c4d67bbbdf9dbb6c20708cdea50057bc5d529b41d8ebb23b450454811",
          "blockNumber": "0x58022a",
          "transactionHash": "0x7216840a88e3d7015d9c1e349f46b6c473d878375e2873d642858e279469e27c",
          "transactionIndex": "0x4e",
          "logIndex": "0x4e",
          "removed": false
        },
        {
          "address": "0xdcb29f3c510af6fee5512e94ca9cca4a289f6163",
          "topics": [
            "0xddf252ad1be2c89b69c2b068fc378daa952ba7f163c4a11628f55a4df523b3ef",
            "0x00000000000000000000000034501ee677d8180522730e78c213fec1b53be5f0",
            "0x000000000000000000000000dcb29f3c510af6fee5512e94ca9cca4a289f6163"
          ],
          "data": "0x00000000000000000000000000000000000000000000000000000000000004b0",
          "blockHash": "0xf83d0f3c4d67bbbdf9dbb6c20708cdea50057bc5d529b41d8ebb23b450454811",
          "blockNumber": "0x58022a",
          "transactionHash": "0x7216840a88e3d7015d9c1e349f46b6c473d878375e2873d642858e279469e27c",
          "transactionIndex": "0x4e",
          "logIndex": "0x4f",
          "removed": false
        },
        {
          "address": "0x481a61fb7c9eaddd5069fe2f6134b22ab8ee6489",
          "topics": [
            "0x8c5be1e5ebec7d5bd14f71427d1e84f3dd0314c0f7b2291e5b200ac8c7c3b925",
            "0x000000000000000000000000dcb29f3c510af6fee5512e94ca9cca4a289f6163",
            "0x000000000000000000000000dcb29f3c510af6fee5512e94ca9cca4a289f6163"
          ],
          "data": "0x00000000000000000000000000000000000000000000000000000000000003e8",
          "blockHash": "0xf83d0f3c4d67bbbdf9dbb6c20708cdea50057bc5d529b41d8ebb23b450454811",
          "blockNumber": "0x58022a",
          "transactionHash": "0x7216840a88e3d7015d9c1e349f46b6c473d878375e2873d642858e279469e27c",
          "transactionIndex": "0x4e",
          "logIndex": "0x50",
          "removed": false
        },
        {
          "address": "0x481a61fb7c9eaddd5069fe2f6134b22ab8ee6489",
          "topics": [
            "0xddf252ad1be2c89b69c2b068fc378daa952ba7f163c4a11628f55a4df523b3ef",
            "0x000000000000000000000000dcb29f3c510af6fee5512e94ca9cca4a289f6163",
            "0x00000000000000000000000034501ee677d8180522730e78c213fec1b53be5f0"
          ],
          "data": "0x00000000000000000000000000000000000000000000000000000000000003e8",
          "blockHash": "0xf83d0f3c4d67bbbdf9dbb6c20708cdea50057bc5d529b41d8ebb23b450454811",
          "blockNumber": "0x58022a",
          "transactionHash": "0x7216840a88e3d7015d9c1e349f46b6c473d878375e2873d642858e279469e27c",
          "transactionIndex": "0x4e",
          "logIndex": "0x51",
          "removed": false
        },
        {
          "address": "0xdcb29f3c510af6fee5512e94ca9cca4a289f6163",
          "topics": [
            "0x3515b35de5139187b5f1cfc0684ee199a130937eae5916c3fb3d73124ae0c949",
            "0x00000000000000000000000034501ee677d8180522730e78c213fec1b53be5f0"
          ],
          "data": "0x000000000000000000000000481a61fb7c9eaddd5069fe2f6134b22ab8ee648900000000000000000000000000000000000000000000000000000000000003e8",
          "blockHash": "0xf83d0f3c4d67bbbdf9dbb6c20708cdea50057bc5d529b41d8ebb23b450454811",
          "blockNumber": "0x58022a",
          "transactionHash": "0x7216840a88e3d7015d9c1e349f46b6c473d878375e2873d642858e279469e27c",
          "transactionIndex": "0x4e",
          "logIndex": "0x52",
          "removed": false
        }
      ],
      "logsBloom": "0x00000000000000008000000000000000000000200000004004000000000000000000002000040000000000000000000000000040000000000000000000200000000000000000000000000008000000000000000000000000000000000000000000000000000000000000000000000000000100000000000000000410010000000000000000000000000000000000000000000000100000000000000000000000020000000000008000000000000000000000000000000000000000000000000000000002000000000001400000002001000040000000000004000000000000000010000000000000000000000000000000000000000000000000000000000000",
      "type": "0x0",
      "transactionHash": "0x7216840a88e3d7015d9c1e349f46b6c473d878375e2873d642858e279469e27c",
      "transactionIndex": "0x4e",
      "blockHash": "0xf83d0f3c4d67bbbdf9dbb6c20708cdea50057bc5d529b41d8ebb23b450454811",
      "blockNumber": "0x58022a",
      "gasUsed": "0x2d21e",
      "effectiveGasPrice": "0x5fda095e",
      "from": "0x34501ee677d8180522730e78c213fec1b53be5f0",
      "to": "0xdcb29f3c510af6fee5512e94ca9cca4a289f6163",
      "contractAddress": null
    }
  ],
  "libraries": [],
  "pending": [],
  "returns": {},
  "timestamp": 1714024981,
  "chain": 11155111,
  "commit": "9c02021"
}