{
  "transactions": [
    {
      "hash": "0x6fdb2e710d175afc1b4fa1e399a53638acce9e74c792d1dea7bf602316634dad",
      "transactionType": "CALL",
      "contractName": null,
      "contractAddress": "0x481a61fb7c9eaddd5069fe2f6134b22ab8ee6489",
      "function": "mint(address,uint256)",
      "arguments": [
        "0x34501EE677d8180522730e78C213Fec1b53Be5F0",
        "10000000000"
      ],
      "transaction": {
        "from": "0x34501ee677d8180522730e78c213fec1b53be5f0",
        "to": "0x481a61fb7c9eaddd5069fe2f6134b22ab8ee6489",
        "gas": "0xbfe4",
        "value": "0x0",
        "input": "0x40c10f1900000000000000000000000034501ee677d8180522730e78c213fec1b53be5f000000000000000000000000000000000000000000000000000000002540be400",
        "nonce": "0x1a",
        "chainId": "0xaa36a7",
        "accessList": null,
        "type": null
      },
      "additionalContracts": [],
      "isFixedGasLimit": false
    },
    {
      "hash": "0x49a42fed64514a25b6f9c9ec7053deebcbf8f70dcdcff9729def0e1fad4491c5",
      "transactionType": "CALL",
      "contractName": null,
      "contractAddress": "0x481a61fb7c9eaddd5069fe2f6134b22ab8ee6489",
      "function": "approve(address,uint256)",
      "arguments": [
        "0x5803CdB747e1552Be21C5FCa63228aA3D2622873",
        "50999996980"
      ],
      "transaction": {
        "from": "0x34501ee677d8180522730e78c213fec1b53be5f0",
        "to": "0x481a61fb7c9eaddd5069fe2f6134b22ab8ee6489",
        "gas": "0xa726",
        "value": "0x0",
        "input": "0x095ea7b30000000000000000000000005803cdb747e1552be21c5fca63228aa3d26228730000000000000000000000000000000000000000000000000000000bdfd63234",
        "nonce": "0x1b",
        "chainId": "0xaa36a7",
        "accessList": null,
        "type": null
      },
      "additionalContracts": [],
      "isFixedGasLimit": false
    },
    {
      "hash": "0xc8b4d7cc6a41194e6a12da1c1f1090737db5a94502bd9b537d2660523fe1d0d2",
      "transactionType": "CALL",
      "contractName": null,
      "contractAddress": "0x481a61fb7c9eaddd5069fe2f6134b22ab8ee6489",
      "function": "approve(address,uint256)",
      "arguments": [
        "0x50C6120C66457338551f725bEfa694D76C2F0436",
        "50999996980"
      ],
      "transaction": {
        "from": "0x34501ee677d8180522730e78c213fec1b53be5f0",
        "to": "0x481a61fb7c9eaddd5069fe2f6134b22ab8ee6489",
        "gas": "0xfa20",
        "value": "0x0",
        "input": "0x095ea7b300000000000000000000000050c6120c66457338551f725befa694d76c2f04360000000000000000000000000000000000000000000000000000000bdfd63234",
        "nonce": "0x1c",
        "chainId": "0xaa36a7",
        "accessList": null,
        "type": null
      },
      "additionalContracts": [],
      "isFixedGasLimit": false
    },
    {
      "hash": "0x2fb2c96571b4835f040172a97d1e5c4d399974a8b1c23aabfb5d21065218255f",
      "transactionType": "CALL",
      "contractName": null,
      "contractAddress": "0x50c6120c66457338551f725befa694d76c2f0436",
      "function": "deposit(uint256)",
      "arguments": [
        "2000"
      ],
      "transaction": {
        "from": "0x34501ee677d8180522730e78c213fec1b53be5f0",
        "to": "0x50c6120c66457338551f725befa694d76c2f0436",
        "gas": "0x3100a",
        "value": "0x0",
        "input": "0xb6b55f2500000000000000000000000000000000000000000000000000000000000007d0",
        "nonce": "0x1d",
        "chainId": "0xaa36a7",
        "accessList": null,
        "type": null
      },
      "additionalContracts": [],
      "isFixedGasLimit": false
    },
    {
      "hash": "0x98ad5f08d93857fa33dfe68add46ee1b8e25aa8b68a46b47476f76bf7c3a1c01",
      "transactionType": "CALL",
      "contractName": null,
      "contractAddress": "0x50c6120c66457338551f725befa694d76c2f0436",
      "function": "approve(address,uint256)",
      "arguments": [
        "0x50C6120C66457338551f725bEfa694D76C2F0436",
        "1200"
      ],
      "transaction": {
        "from": "0x34501ee677d8180522730e78c213fec1b53be5f0",
        "to": "0x50c6120c66457338551f725befa694d76c2f0436",
        "gas": "0x108c4",
        "value": "0x0",
        "input": "0x095ea7b300000000000000000000000050c6120c66457338551f725befa694d76c2f043600000000000000000000000000000000000000000000000000000000000004b0",
        "nonce": "0x1e",
        "chainId": "0xaa36a7",
        "accessList": null,
        "type": null
      },
      "additionalContracts": [],
      "isFixedGasLimit": false
    },
    {
      "hash": "0x29b72c91e3dcf418cad13b15a314d4fe4047bde45c705e45f2447ced13a0c834",
      "transactionType": "CALL",
      "contractName": null,
      "contractAddress": "0x50c6120c66457338551f725befa694d76c2f0436",
      "function": "borrow(address,uint256,address,uint256)",
      "arguments": [
        "0x50C6120C66457338551f725bEfa694D76C2F0436",
        "1200",
        "0x481A61fB7c9EAdDD5069Fe2F6134b22AB8EE6489",
        "1000"
      ],
      "transaction": {
        "from": "0x34501ee677d8180522730e78c213fec1b53be5f0",
        "to": "0x50c6120c66457338551f725befa694d76c2f0436",
        "gas": "0x3cd59",
        "value": "0x0",
        "input": "0xd028053900000000000000000000000050c6120c66457338551f725befa694d76c2f043600000000000000000000000000000000000000000000000000000000000004b0000000000000000000000000481a61fb7c9eaddd5069fe2f6134b22ab8ee648900000000000000000000000000000000000000000000000000000000000003e8",
        "nonce": "0x1f",
        "chainId": "0xaa36a7",
        "accessList": null,
        "type": null
      },
      "additionalContracts": [],
      "isFixedGasLimit": false
    },
    {
      "hash": "0x2f24f5ce09b5aa5edcc42fa1c499910f7a24886deeb1791c4445853d11980e9a",
      "transactionType": "CALL",
      "contractName": null,
      "contractAddress": "0x481a61fb7c9eaddd5069fe2f6134b22ab8ee6489",
      "function": "approve(address,uint256)",
      "arguments": [
        "0x50C6120C66457338551f725bEfa694D76C2F0436",
        "10"
      ],
      "transaction": {
        "from": "0x34501ee677d8180522730e78c213fec1b53be5f0",
        "to": "0x481a61fb7c9eaddd5069fe2f6134b22ab8ee6489",
        "gas": "0xa6e0",
        "value": "0x0",
        "input": "0x095ea7b300000000000000000000000050c6120c66457338551f725befa694d76c2f0436000000000000000000000000000000000000000000000000000000000000000a",
        "nonce": "0x20",
        "chainId": "0xaa36a7",
        "accessList": null,
        "type": null
      },
      "additionalContracts": [],
      "isFixedGasLimit": false
    },
    {
      "hash": "0x5e86d8cb83a9fe08d7a94ecbb52e46879caaee219478ac957d410ced009d3b01",
      "transactionType": "CALL",
      "contractName": null,
      "contractAddress": "0x50c6120c66457338551f725befa694d76c2f0436",
      "function": "repayment(address,uint256,address,uint256)",
      "arguments": [
        "0x50C6120C66457338551f725bEfa694D76C2F0436",
        "10",
        "0x481A61fB7c9EAdDD5069Fe2F6134b22AB8EE6489",
        "10"
      ],
      "transaction": {
        "from": "0x34501ee677d8180522730e78c213fec1b53be5f0",
        "to": "0x50c6120c66457338551f725befa694d76c2f0436",
        "gas": "0x203f3",
        "value": "0x0",
        "input": "0x6cca3c2f00000000000000000000000050c6120c66457338551f725befa694d76c2f0436000000000000000000000000000000000000000000000000000000000000000a000000000000000000000000481a61fb7c9eaddd5069fe2f6134b22ab8ee6489000000000000000000000000000000000000000000000000000000000000000a",
        "nonce": "0x21",
        "chainId": "0xaa36a7",
        "accessList": null,
        "type": null
      },
      "additionalContracts": [],
      "isFixedGasLimit": false
    }
  ],
  "receipts": [
    {
      "status": "0x1",
      "cumulativeGasUsed": "0x14f0808",
      "logs": [
        {
          "address": "0x481a61fb7c9eaddd5069fe2f6134b22ab8ee6489",
          "topics": [
            "0xddf252ad1be2c89b69c2b068fc378daa952ba7f163c4a11628f55a4df523b3ef",
            "0x0000000000000000000000000000000000000000000000000000000000000000",
            "0x00000000000000000000000034501ee677d8180522730e78c213fec1b53be5f0"
          ],
          "data": "0x00000000000000000000000000000000000000000000000000000002540be400",
          "blockHash": "0x18458b3220092a3f2996d99a6b867fbc599dbd27ce652dfa61b41071c83f4609",
          "blockNumber": "0x58198c",
          "transactionHash": "0x6fdb2e710d175afc1b4fa1e399a53638acce9e74c792d1dea7bf602316634dad",
          "transactionIndex": "0x8c",
          "logIndex": "0xdb",
          "removed": false
        },
        {
          "address": "0x481a61fb7c9eaddd5069fe2f6134b22ab8ee6489",
          "topics": [
            "0x449a52f8290d0f7a93fd114212f0891c4eafca215815e758af65bf6d352a6551"
          ],
          "data": "0x00000000000000000000000034501ee677d8180522730e78c213fec1b53be5f000000000000000000000000000000000000000000000000000000002540be400",
          "blockHash": "0x18458b3220092a3f2996d99a6b867fbc599dbd27ce652dfa61b41071c83f4609",
          "blockNumber": "0x58198c",
          "transactionHash": "0x6fdb2e710d175afc1b4fa1e399a53638acce9e74c792d1dea7bf602316634dad",
          "transactionIndex": "0x8c",
          "logIndex": "0xdc",
          "removed": false
        }
      ],
      "logsBloom": "0x00000000000000000020000000000000000000200000000000000000000000000000002000000000000000000000000000000000000000000000000000000000000000000000000000000008000000000002000000000000000000000000000000000000020000000000000000000800000100000000000000000410000000000000000000000000000000000000000000000000000000000000000000000000000000000000000200000000000000000000000000000000000000000000000000000002000000000000400000000001000000000000000000000000000020000000000000000000000000000000000000000000000000000000000000000000",
      "type": "0x0",
      "transactionHash": "0x6fdb2e710d175afc1b4fa1e399a53638acce9e74c792d1dea7bf602316634dad",
      "transactionIndex": "0x8c",
      "blockHash": "0x18458b3220092a3f2996d99a6b867fbc599dbd27ce652dfa61b41071c83f4609",
      "blockNumber": "0x58198c",
      "gasUsed": "0x8aee",
      "effectiveGasPrice": "0x88d56ecf",
      "from": "0x34501ee677d8180522730e78c213fec1b53be5f0",
      "to": "0x481a61fb7c9eaddd5069fe2f6134b22ab8ee6489",
      "contractAddress": null
    },
    {
      "status": "0x1",
      "cumulativeGasUsed": "0x155a514",
      "logs": [
        {
          "address": "0x481a61fb7c9eaddd5069fe2f6134b22ab8ee6489",
          "topics": [
            "0x8c5be1e5ebec7d5bd14f71427d1e84f3dd0314c0f7b2291e5b200ac8c7c3b925",
            "0x00000000000000000000000034501ee677d8180522730e78c213fec1b53be5f0",
            "0x0000000000000000000000005803cdb747e1552be21c5fca63228aa3d2622873"
          ],
          "data": "0x0000000000000000000000000000000000000000000000000000000bdfd63234",
          "blockHash": "0x18458b3220092a3f2996d99a6b867fbc599dbd27ce652dfa61b41071c83f4609",
          "blockNumber": "0x58198c",
          "transactionHash": "0x49a42fed64514a25b6f9c9ec7053deebcbf8f70dcdcff9729def0e1fad4491c5",
          "transactionIndex": "0x94",
          "logIndex": "0xe0",
          "removed": false
        }
      ],
      "logsBloom": "0x00000002000000000000000000000000000000200000000000000000000000000000002000000000000000000000000000000000000000000000000000200004000000000000000000000000000000000000000000000000000000000000000000000000000000000000000000000000000100000000000000000400000000000000020000000000000000000000000000000000000000000000000000000000020000000000000000000000000000000000000000000000000000000000000000000000000000000000400000000001000000000000000000000000000000000010000000000000000000000000000000000000000000000000000000000000",
      "type": "0x0",
      "transactionHash": "0x49a42fed64514a25b6f9c9ec7053deebcbf8f70dcdcff9729def0e1fad4491c5",
      "transactionIndex": "0x94",
      "blockHash": "0x18458b3220092a3f2996d99a6b867fbc599dbd27ce652dfa61b41071c83f4609",
      "blockNumber": "0x58198c",
      "gasUsed": "0x724b",
      "effectiveGasPrice": "0x88d56ecf",
      "from": "0x34501ee677d8180522730e78c213fec1b53be5f0",
      "to": "0x481a61fb7c9eaddd5069fe2f6134b22ab8ee6489",
      "contractAddress": null
    },
    {
      "status": "0x1",
      "cumulativeGasUsed": "0x1565a2b",
      "logs": [
        {
          "address": "0x481a61fb7c9eaddd5069fe2f6134b22ab8ee6489",
          "topics": [
            "0x8c5be1e5ebec7d5bd14f71427d1e84f3dd0314c0f7b2291e5b200ac8c7c3b925",
            "0x00000000000000000000000034501ee677d8180522730e78c213fec1b53be5f0",
            "0x00000000000000000000000050c6120c66457338551f725befa694d76c2f0436"
          ],
          "data": "0x0000000000000000000000000000000000000000000000000000000bdfd63234",
          "blockHash": "0x18458b3220092a3f2996d99a6b867fbc599dbd27ce652dfa61b41071c83f4609",
          "blockNumber": "0x58198c",
          "transactionHash": "0xc8b4d7cc6a41194e6a12da1c1f1090737db5a94502bd9b537d2660523fe1d0d2",
          "transactionIndex": "0x95",
          "logIndex": "0xe1",
          "removed": false
        }
      ],
      "logsBloom": "0x00000000000000000000000000000000000000200000000000000000000000000000002000000000000000000000000000000000000000200000000000200000000000000000000000000000000000000000000000000000000000000000000000000000000000000000000000000000000100000000000000000400000000000000000000000000000000000000000000000000000000000000000000000000020010000000000000000000000000000000000000000000000000000000000000000000000000000000400000000001000000000000000000000000000000000010000002000000000000000000000000000000000000000000000000000000",
      "type": "0x0",
      "transactionHash": "0xc8b4d7cc6a41194e6a12da1c1f1090737db5a94502bd9b537d2660523fe1d0d2",
      "transactionIndex": "0x95",
      "blockHash": "0x18458b3220092a3f2996d99a6b867fbc599dbd27ce652dfa61b41071c83f4609",
      "blockNumber": "0x58198c",
      "gasUsed": "0xb517",
      "effectiveGasPrice": "0x88d56ecf",
      "from": "0x34501ee677d8180522730e78c213fec1b53be5f0",
      "to": "0x481a61fb7c9eaddd5069fe2f6134b22ab8ee6489",
      "contractAddress": null
    },
    {
      "status": "0x1",
      "cumulativeGasUsed": "0x1587244",
      "logs": [
        {
          "address": "0x481a61fb7c9eaddd5069fe2f6134b22ab8ee6489",
          "topics": [
            "0xddf252ad1be2c89b69c2b068fc378daa952ba7f163c4a11628f55a4df523b3ef",
            "0x00000000000000000000000034501ee677d8180522730e78c213fec1b53be5f0",
            "0x00000000000000000000000050c6120c66457338551f725befa694d76c2f0436"
          ],
          "data": "0x00000000000000000000000000000000000000000000000000000000000007d0",
          "blockHash": "0x18458b3220092a3f2996d99a6b867fbc599dbd27ce652dfa61b41071c83f4609",
          "blockNumber": "0x58198c",
          "transactionHash": "0x2fb2c96571b4835f040172a97d1e5c4d399974a8b1c23aabfb5d21065218255f",
          "transactionIndex": "0x96",
          "logIndex": "0xe2",
          "removed": false
        },
        {
          "address": "0x50c6120c66457338551f725befa694d76c2f0436",
          "topics": [
            "0xddf252ad1be2c89b69c2b068fc378daa952ba7f163c4a11628f55a4df523b3ef",
            "0x0000000000000000000000000000000000000000000000000000000000000000",
            "0x00000000000000000000000034501ee677d8180522730e78c213fec1b53be5f0"
          ],
          "data": "0x0000000000000000000000000000000000000000000000000000002e90ec9f50",
          "blockHash": "0x18458b3220092a3f2996d99a6b867fbc599dbd27ce652dfa61b41071c83f4609",
          "blockNumber": "0x58198c",
          "transactionHash": "0x2fb2c96571b4835f040172a97d1e5c4d399974a8b1c23aabfb5d21065218255f",
          "transactionIndex": "0x96",
          "logIndex": "0xe3",
          "removed": false
        },
        {
          "address": "0x50c6120c66457338551f725befa694d76c2f0436",
          "topics": [
            "0xffaad6a51867cde4125cd8ca83b3ebe39a412938c5be43e149bad7e431112ba2",
            "0x00000000000000000000000034501ee677d8180522730e78c213fec1b53be5f0"
          ],
          "data": "0x00000000000000000000000000000000000000000000000000000000000007d0",
          "blockHash": "0x18458b3220092a3f2996d99a6b867fbc599dbd27ce652dfa61b41071c83f4609",
          "blockNumber": "0x58198c",
          "transactionHash": "0x2fb2c96571b4835f040172a97d1e5c4d399974a8b1c23aabfb5d21065218255f",
          "transactionIndex": "0x96",
          "logIndex": "0xe4",
          "removed": false
        }
      ],
      "logsBloom": "0x00000000000000008000000000000000000000200000000000000000000000000000002000000000000000000000000000000000000000200000000000000010000000080000000001000008000000000000000000000000000000000000000000000000020000000000000000000800000100000000000000000410000000000000000000000000000000000000000000000000000000000000080000000000000010080000000000000000000000000000000000000000000000000000000000000002000000000000400000000001000000000000000000000000000020000000000002000000000000000000000000000000000000000000000000000000",
      "type": "0x0",
      "transactionHash": "0x2fb2c96571b4835f040172a97d1e5c4d399974a8b1c23aabfb5d21065218255f",
      "transactionIndex": "0x96",
      "blockHash": "0x18458b3220092a3f2996d99a6b867fbc599dbd27ce652dfa61b41071c83f4609",
      "blockNumber": "0x58198c",
      "gasUsed": "0x21819",
      "effectiveGasPrice": "0x88d56ecf",
      "from": "0x34501ee677d8180522730e78c213fec1b53be5f0",
      "to": "0x50c6120c66457338551f725befa694d76c2f0436",
      "contractAddress": null
    },
    {
      "status": "0x1",
      "cumulativeGasUsed": "0x159274e",
      "logs": [
        {
          "address": "0x50c6120c66457338551f725befa694d76c2f0436",
          "topics": [
            "0x8c5be1e5ebec7d5bd14f71427d1e84f3dd0314c0f7b2291e5b200ac8c7c3b925",
            "0x00000000000000000000000034501ee677d8180522730e78c213fec1b53be5f0",
            "0x00000000000000000000000050c6120c66457338551f725befa694d76c2f0436"
          ],
          "data": "0x00000000000000000000000000000000000000000000000000000000000004b0",
          "blockHash": "0x18458b3220092a3f2996d99a6b867fbc599dbd27ce652dfa61b41071c83f4609",
          "blockNumber": "0x58198c",
          "transactionHash": "0x98ad5f08d93857fa33dfe68add46ee1b8e25aa8b68a46b47476f76bf7c3a1c01",
          "transactionIndex": "0x97",
          "logIndex": "0xe5",
          "removed": false
        }
      ],
      "logsBloom": "0x00000000000000000000000000000000000000200000000000000000000000000000000000000000000000000000000000000000000000200000000000200000000000080000000001000000000000000000000000000000000000000000000000000000000000000000000000000000000100000000000000000000000000000000000000000000000000000000000000000000000000000000080000000000020010000000000000000000000000000000000000000000000000000000000000000000000000000000000000000001000000000000000000000000000000000010000002000000000000000000000000000000000000000000000000000000",
      "type": "0x0",
      "transactionHash": "0x98ad5f08d93857fa33dfe68add46ee1b8e25aa8b68a46b47476f76bf7c3a1c01",
      "transactionIndex": "0x97",
      "blockHash": "0x18458b3220092a3f2996d99a6b867fbc599dbd27ce652dfa61b41071c83f4609",
      "blockNumber": "0x58198c",
      "gasUsed": "0xb50a",
      "effectiveGasPrice": "0x88d56ecf",
      "from": "0x34501ee677d8180522730e78c213fec1b53be5f0",
      "to": "0x50c6120c66457338551f725befa694d76c2f0436",
      "contractAddress": null
    },
    {
      "status": "0x1",
      "cumulativeGasUsed": "0x15be7fe",
      "logs": [
        {
          "address": "0x50c6120c66457338551f725befa694d76c2f0436",
          "topics": [
            "0x10e6ffbf70ea11db87f1498a9f8c54026213877a9f5beb696c705b476ddc053c",
            "0x00000000000000000000000034501ee677d8180522730e78c213fec1b53be5f0"
          ],
          "data": "0x00000000000000000000000050c6120c66457338551f725befa694d76c2f043600000000000000000000000000000000000000000000000000000000000004b0000000000000000000000000481a61fb7c9eaddd5069fe2f6134b22ab8ee648900000000000000000000000000000000000000000000000000000000000003e8",
          "blockHash": "0x18458b3220092a3f2996d99a6b867fbc599dbd27ce652dfa61b41071c83f4609",
          "blockNumber": "0x58198c",
          "transactionHash": "0x29b72c91e3dcf418cad13b15a314d4fe4047bde45c705e45f2447ced13a0c834",
          "transactionIndex": "0x98",
          "logIndex": "0xe6",
          "removed": false
        },
        {
          "address": "0x50c6120c66457338551f725befa694d76c2f0436",
          "topics": [
            "0xddf252ad1be2c89b69c2b068fc378daa952ba7f163c4a11628f55a4df523b3ef",
            "0x00000000000000000000000034501ee677d8180522730e78c213fec1b53be5f0",
            "0x00000000000000000000000050c6120c66457338551f725befa694d76c2f0436"
          ],
          "data": "0x00000000000000000000000000000000000000000000000000000000000004b0",
          "blockHash": "0x18458b3220092a3f2996d99a6b867fbc599dbd27ce652dfa61b41071c83f4609",
          "blockNumber": "0x58198c",
          "transactionHash": "0x29b72c91e3dcf418cad13b15a314d4fe4047bde45c705e45f2447ced13a0c834",
          "transactionIndex": "0x98",
          "logIndex": "0xe7",
          "removed": false
        },
        {
          "address": "0x481a61fb7c9eaddd5069fe2f6134b22ab8ee6489",
          "topics": [
            "0xddf252ad1be2c89b69c2b068fc378daa952ba7f163c4a11628f55a4df523b3ef",
            "0x00000000000000000000000050c6120c66457338551f725befa694d76c2f0436",
            "0x00000000000000000000000034501ee677d8180522730e78c213fec1b53be5f0"
          ],
          "data": "0x00000000000000000000000000000000000000000000000000000000000003e8",
          "blockHash": "0x18458b3220092a3f2996d99a6b867fbc599dbd27ce652dfa61b41071c83f4609",
          "blockNumber": "0x58198c",
          "transactionHash": "0x29b72c91e3dcf418cad13b15a314d4fe4047bde45c705e45f2447ced13a0c834",
          "transactionIndex": "0x98",
          "logIndex": "0xe8",
          "removed": false
        },
        {
          "address": "0x50c6120c66457338551f725befa694d76c2f0436",
          "topics": [
            "0x3515b35de5139187b5f1cfc0684ee199a130937eae5916c3fb3d73124ae0c949",
            "0x00000000000000000000000034501ee677d8180522730e78c213fec1b53be5f0"
          ],
          "data": "0x000000000000000000000000481a61fb7c9eaddd5069fe2f6134b22ab8ee648900000000000000000000000000000000000000000000000000000000000003e8",
          "blockHash": "0x18458b3220092a3f2996d99a6b867fbc599dbd27ce652dfa61b41071c83f4609",
          "blockNumber": "0x58198c",
          "transactionHash": "0x29b72c91e3dcf418cad13b15a314d4fe4047bde45c705e45f2447ced13a0c834",
          "transactionIndex": "0x98",
          "logIndex": "0xe9",
          "removed": false
        }
      ],
      "logsBloom": "0x00000000000000000000000000000000000000200000000000000000000000000000002000040000000000000000000000000040000000200000000000000000000000080000000001000008000000000000000000000000000000000000000000000000000000000000000000000000000100000000000000000410000000000000000000000000000000000000000000000000100000000000080000000000000010000000008000000000000000000000000000000000000000000000000000000002000000000000400000000001000040000000000004000000000000000000000002000000000000000000000000000000000000000000000000000000",
      "type": "0x0",
      "transactionHash": "0x29b72c91e3dcf418cad13b15a314d4fe4047bde45c705e45f2447ced13a0c834",
      "transactionIndex": "0x98",
      "blockHash": "0x18458b3220092a3f2996d99a6b867fbc599dbd27ce652dfa61b41071c83f4609",
      "blockNumber": "0x58198c",
      "gasUsed": "0x2c0b0",
      "effectiveGasPrice": "0x88d56ecf",
      "from": "0x34501ee677d8180522730e78c213fec1b53be5f0",
      "to": "0x50c6120c66457338551f725befa694d76c2f0436",
      "contractAddress": null
    },
    {
      "status": "0x1",
      "cumulativeGasUsed": "0x15c5a19",
      "logs": [
        {
          "address": "0x481a61fb7c9eaddd5069fe2f6134b22ab8ee6489",
          "topics": [
            "0x8c5be1e5ebec7d5bd14f71427d1e84f3dd0314c0f7b2291e5b200ac8c7c3b925",
            "0x00000000000000000000000034501ee677d8180522730e78c213fec1b53be5f0",
            "0x00000000000000000000000050c6120c66457338551f725befa694d76c2f0436"
          ],
          "data": "0x000000000000000000000000000000000000000000000000000000000000000a",
          "blockHash": "0x18458b3220092a3f2996d99a6b867fbc599dbd27ce652dfa61b41071c83f4609",
          "blockNumber": "0x58198c",
          "transactionHash": "0x2f24f5ce09b5aa5edcc42fa1c499910f7a24886deeb1791c4445853d11980e9a",
          "transactionIndex": "0x99",
          "logIndex": "0xea",
          "removed": false
        }
      ],
      "logsBloom": "0x00000000000000000000000000000000000000200000000000000000000000000000002000000000000000000000000000000000000000200000000000200000000000000000000000000000000000000000000000000000000000000000000000000000000000000000000000000000000100000000000000000400000000000000000000000000000000000000000000000000000000000000000000000000020010000000000000000000000000000000000000000000000000000000000000000000000000000000400000000001000000000000000000000000000000000010000002000000000000000000000000000000000000000000000000000000",
      "type": "0x0",
      "transactionHash": "0x2f24f5ce09b5aa5edcc42fa1c499910f7a24886deeb1791c4445853d11980e9a",
      "transactionIndex": "0x99",
      "blockHash": "0x18458b3220092a3f2996d99a6b867fbc599dbd27ce652dfa61b41071c83f4609",
      "blockNumber": "0x58198c",
      "gasUsed": "0x721b",
      "effectiveGasPrice": "0x88d56ecf",
      "from": "0x34501ee677d8180522730e78c213fec1b53be5f0",
      "to": "0x481a61fb7c9eaddd5069fe2f6134b22ab8ee6489",
      "contractAddress": null
    },
    {
      "status": "0x1",
      "cumulativeGasUsed": "0x15dbae3",
      "logs": [
        {
          "address": "0x50c6120c66457338551f725befa694d76c2f0436",
          "topics": [
            "0x10e6ffbf70ea11db87f1498a9f8c54026213877a9f5beb696c705b476ddc053c",
            "0x00000000000000000000000034501ee677d8180522730e78c213fec1b53be5f0"
          ],
          "data": "0x00000000000000000000000050c6120c66457338551f725befa694d76c2f043600000000000000000000000000000000000000000000000000000000000004a6000000000000000000000000481a61fb7c9eaddd5069fe2f6134b22ab8ee648900000000000000000000000000000000000000000000000000000000000003de",
          "blockHash": "0x18458b3220092a3f2996d99a6b867fbc599dbd27ce652dfa61b41071c83f4609",
          "blockNumber": "0x58198c",
          "transactionHash": "0x5e86d8cb83a9fe08d7a94ecbb52e46879caaee219478ac957d410ced009d3b01",
          "transactionIndex": "0x9a",
          "logIndex": "0xeb",
          "removed": false
        },
        {
          "address": "0x50c6120c66457338551f725befa694d76c2f0436",
          "topics": [
            "0xddf252ad1be2c89b69c2b068fc378daa952ba7f163c4a11628f55a4df523b3ef",
            "0x00000000000000000000000050c6120c66457338551f725befa694d76c2f0436",
            "0x00000000000000000000000034501ee677d8180522730e78c213fec1b53be5f0"
          ],
          "data": "0x000000000000000000000000000000000000000000000000000000000000000a",
          "blockHash": "0x18458b3220092a3f2996d99a6b867fbc599dbd27ce652dfa61b41071c83f4609",
          "blockNumber": "0x58198c",
          "transactionHash": "0x5e86d8cb83a9fe08d7a94ecbb52e46879caaee219478ac957d410ced009d3b01",
          "transactionIndex": "0x9a",
          "logIndex": "0xec",
          "removed": false
        },
        {
          "address": "0x481a61fb7c9eaddd5069fe2f6134b22ab8ee6489",
          "topics": [
            "0xddf252ad1be2c89b69c2b068fc378daa952ba7f163c4a11628f55a4df523b3ef",
            "0x00000000000000000000000034501ee677d8180522730e78c213fec1b53be5f0",
            "0x00000000000000000000000050c6120c66457338551f725befa694d76c2f0436"
          ],
          "data": "0x000000000000000000000000000000000000000000000000000000000000000a",
          "blockHash": "0x18458b3220092a3f2996d99a6b867fbc599dbd27ce652dfa61b41071c83f4609",
          "blockNumber": "0x58198c",
          "transactionHash": "0x5e86d8cb83a9fe08d7a94ecbb52e46879caaee219478ac957d410ced009d3b01",
          "transactionIndex": "0x9a",
          "logIndex": "0xed",
          "removed": false
        },
        {
          "address": "0x50c6120c66457338551f725befa694d76c2f0436",
          "topics": [
            "0xfc5616f01e1c1dbb08a12619251fb851d6b75274ceb88d493e5894a5eea00e68"
          ],
          "data": "0x00000000000000000000000034501ee677d8180522730e78c213fec1b53be5f0000000000000000000000000481a61fb7c9eaddd5069fe2f6134b22ab8ee6489000000000000000000000000000000000000000000000000000000000000000a",
          "blockHash": "0x18458b3220092a3f2996d99a6b867fbc599dbd27ce652dfa61b41071c83f4609",
          "blockNumber": "0x58198c",
          "transactionHash": "0x5e86d8cb83a9fe08d7a94ecbb52e46879caaee219478ac957d410ced009d3b01",
          "transactionIndex": "0x9a",
          "logIndex": "0xee",
          "removed": false
        }
      ],
      "logsBloom": "0x00000000000000000000000000000000000000200000000000000000000000000000002000000000000000000000000000000000000000200000000000000000000000080000000001000008000000000000000000000000000004000000000000000000000000000000000000000000000100000000000000000410000000000000000000000000000000000000000000000000100000000000080000000000000010000000008000000000000000000000000000000000000000000000000000000002000000000000400000000001000040000000000000000000000000000000000002000000000000400000000000800000000000000000000000000000",
      "type": "0x0",
      "transactionHash": "0x5e86d8cb83a9fe08d7a94ecbb52e46879caaee219478ac957d410ced009d3b01",
      "transactionIndex": "0x9a",
      "blockHash": "0x18458b3220092a3f2996d99a6b867fbc599dbd27ce652dfa61b41071c83f4609",
      "blockNumber": "0x58198c",
      "gasUsed": "0x160ca",
      "effectiveGasPrice": "0x88d56ecf",
      "from": "0x34501ee677d8180522730e78c213fec1b53be5f0",
      "to": "0x50c6120c66457338551f725befa694d76c2f0436",
      "contractAddress": null
    }
  ],
  "libraries": [],
  "pending": [],
  "returns": {},
  "timestamp": 1714097236,
  "chain": 11155111,
  "commit": "9c02021"
}