{
  "transactions": [
    {
      "hash": "0xfe513e19fa3325ad4f67efb3c9004e40c440b12e9a65eeaff24924fb228728ce",
      "transactionType": "CALL",
      "contractName": null,
      "contractAddress": "0x6e821cb51fa7a81c213452b1dfc9d7f211c13c08",
      "function": "setPrice(address,uint256)",
      "arguments": [
        "0x920EC16CeB2A6bDf4cbdAe65Aa40eE07F73f52E7",
        "10000"
      ],
      "transaction": {
        "from": "0x5803cdb747e1552be21c5fca63228aa3d2622873",
        "to": "0x6e821cb51fa7a81c213452b1dfc9d7f211c13c08",
        "gas": "0xf548",
        "value": "0x0",
        "input": "0x00e4768b000000000000000000000000920ec16ceb2a6bdf4cbdae65aa40ee07f73f52e70000000000000000000000000000000000000000000000000000000000002710",
        "nonce": "0x4c",
        "chainId": "0xaa36a7",
        "accessList": null,
        "type": null
      },
      "additionalContracts": [],
      "isFixedGasLimit": false
    },
    {
      "hash": "0x10ed7035b1bd10bc5c7de1ba171bbbbd49c6df0be8dee484b47a00dce090d13e",
      "transactionType": "CALL",
      "contractName": null,
      "contractAddress": "0x6e821cb51fa7a81c213452b1dfc9d7f211c13c08",
      "function": "setPrice(address,uint256)",
      "arguments": [
        "0x481A61fB7c9EAdDD5069Fe2F6134b22AB8EE6489",
        "10000"
      ],
      "transaction": {
        "from": "0x5803cdb747e1552be21c5fca63228aa3d2622873",
        "to": "0x6e821cb51fa7a81c213452b1dfc9d7f211c13c08",
        "gas": "0x9206",
        "value": "0x0",
        "input": "0x00e4768b000000000000000000000000481a61fb7c9eaddd5069fe2f6134b22ab8ee64890000000000000000000000000000000000000000000000000000000000002710",
        "nonce": "0x4d",
        "chainId": "0xaa36a7",
        "accessList": null,
        "type": null
      },
      "additionalContracts": [],
      "isFixedGasLimit": false
    }
  ],
  "receipts": [
    {
      "status": "0x1",
      "cumulativeGasUsed": "0x78901a",
      "logs": [
        {
          "address": "0x6e821cb51fa7a81c213452b1dfc9d7f211c13c08",
          "topics": [
            "0x4f789d71cf9bf031ea385e257e27301375dc3ceca1da7c27aae67810ecdc6a52"
          ],
          "data": "0x000000000000000000000000920ec16ceb2a6bdf4cbdae65aa40ee07f73f52e70000000000000000000000000000000000000000000000000000000000002710",
          "blockHash": "0x9f90ccce254918656e48fbadf45a558ba32fcde9defab2af25684b7a74992965",
          "blockNumber": "0x5819d1",
          "transactionHash": "0xfe513e19fa3325ad4f67efb3c9004e40c440b12e9a65eeaff24924fb228728ce",
          "transactionIndex": "0x46",
          "logIndex": "0x5c",
          "removed": false
        }
      ],
      "logsBloom": "0x00000000000000000000000000000000000000000000040000000000000000000000000000000000000000000000000800000000000040000000000000000000000000000000000000000001000000000000000004000000000000000000000000000000000000000000000000000000000000000000000000000000000000000000000000000000000000000000000000000000000000000000000000000000000000000000000000000000000000000000000000000000000000000000000000000000000000000000000000000000000000000000000000000000000200000000000000000000000000000000000000000000000000000000000000000000",
      "type": "0x0",
      "transactionHash": "0xfe513e19fa3325ad4f67efb3c9004e40c440b12e9a65eeaff24924fb228728ce",
      "transactionIndex": "0x46",
      "blockHash": "0x9f90ccce254918656e48fbadf45a558ba32fcde9defab2af25684b7a74992965",
      "blockNumber": "0x5819d1",
      "gasUsed": "0xb195",
      "effectiveGasPrice": "0x867acae4",
      "from": "0x5803cdb747e1552be21c5fca63228aa3d2622873",
      "to": "0x6e821cb51fa7a81c213452b1dfc9d7f211c13c08",
      "contractAddress": null
    },
    {
      "status": "0x1",
      "cumulativeGasUsed": "0x7945fb",
      "logs": [
        {
          "address": "0x6e821cb51fa7a81c213452b1dfc9d7f211c13c08",
          "topics": [
            "0x4f789d71cf9bf031ea385e257e27301375dc3ceca1da7c27aae67810ecdc6a52"
          ],
          "data": "0x000000000000000000000000481a61fb7c9eaddd5069fe2f6134b22ab8ee64890000000000000000000000000000000000000000000000000000000000002710",
          "blockHash": "0x9f90ccce254918656e48fbadf45a558ba32fcde9defab2af25684b7a74992965",
          "blockNumber": "0x5819d1",
          "transactionHash": "0x10ed7035b1bd10bc5c7de1ba171bbbbd49c6df0be8dee484b47a00dce090d13e",
          "transactionIndex": "0x48",
          "logIndex": "0x5d",
          "removed": false
        }
      ],
      "logsBloom": "0x00000000000000000000000000000000000000000000040000000000000000000000000000000000000000000000000800000000000040000000000000000000000000000000000000000001000000000000000004000000000000000000000000000000000000000000000000000000000000000000000000000000000000000000000000000000000000000000000000000000000000000000000000000000000000000000000000000000000000000000000000000000000000000000000000000000000000000000000000000000000000000000000000000000000200000000000000000000000000000000000000000000000000000000000000000000",
      "type": "0x0",
      "transactionHash": "0x10ed7035b1bd10bc5c7de1ba171bbbbd49c6df0be8dee484b47a00dce090d13e",
      "transactionIndex": "0x48",
      "blockHash": "0x9f90ccce254918656e48fbadf45a558ba32fcde9defab2af25684b7a74992965",
      "blockNumber": "0x5819d1",
      "gasUsed": "0x63d9",
      "effectiveGasPrice": "0x867acae4",
      "from": "0x5803cdb747e1552be21c5fca63228aa3d2622873",
      "to": "0x6e821cb51fa7a81c213452b1dfc9d7f211c13c08",
      "contractAddress": null
    }
  ],
  "libraries": [],
  "pending": [],
  "returns": {},
  "timestamp": 1714098075,
  "chain": 11155111,
  "commit": "9c02021"
}