{
  "transactions": [
    {
      "hash": "0x160b93e6a0bf9fd24c62b47b27fe83885c9709f03d353dcf1ac93635aab68249",
      "transactionType": "CALL",
      "contractName": null,
      "contractAddress": "0x6e821cb51fa7a81c213452b1dfc9d7f211c13c08",
      "function": "setPrice(address,uint256)",
      "arguments": [
        "0x920EC16CeB2A6bDf4cbdAe65Aa40eE07F73f52E7",
        "100"
      ],
      "transaction": {
        "from": "0x5803cdb747e1552be21c5fca63228aa3d2622873",
        "to": "0x6e821cb51fa7a81c213452b1dfc9d7f211c13c08",
        "gas": "0x98f4",
        "value": "0x0",
        "input": "0x00e4768b000000000000000000000000920ec16ceb2a6bdf4cbdae65aa40ee07f73f52e70000000000000000000000000000000000000000000000000000000000000064",
        "nonce": "0x4e",
        "chainId": "0xaa36a7",
        "accessList": null,
        "type": null
      },
      "additionalContracts": [],
      "isFixedGasLimit": false
    },
    {
      "hash": "0x9c6065a83d9909fecf382e6569897ee47a97bf672cb715640a4c9536ddda755b",
      "transactionType": "CALL",
      "contractName": null,
      "contractAddress": "0x6e821cb51fa7a81c213452b1dfc9d7f211c13c08",
      "function": "setPrice(address,uint256)",
      "arguments": [
        "0x481A61fB7c9EAdDD5069Fe2F6134b22AB8EE6489",
        "10000"
      ],
      "transaction": {
        "from": "0x5803cdb747e1552be21c5fca63228aa3d2622873",
        "to": "0x6e821cb51fa7a81c213452b1dfc9d7f211c13c08",
        "gas": "0x9206",
        "value": "0x0",
        "input": "0x00e4768b000000000000000000000000481a61fb7c9eaddd5069fe2f6134b22ab8ee64890000000000000000000000000000000000000000000000000000000000002710",
        "nonce": "0x4f",
        "chainId": "0xaa36a7",
        "accessList": null,
        "type": null
      },
      "additionalContracts": [],
      "isFixedGasLimit": false
    }
  ],
  "receipts": [
    {
      "status": "0x1",
      "cumulativeGasUsed": "0xd3d14b",
      "logs": [
        {
          "address": "0x6e821cb51fa7a81c213452b1dfc9d7f211c13c08",
          "topics": [
            "0x4f789d71cf9bf031ea385e257e27301375dc3ceca1da7c27aae67810ecdc6a52"
          ],
          "data": "0x000000000000000000000000920ec16ceb2a6bdf4cbdae65aa40ee07f73f52e70000000000000000000000000000000000000000000000000000000000000064",
          "blockHash": "0x854733882fd51e4e6d5e010519dd2ef8a12acb2a3f288b293ede9cbf55e56dd4",
          "blockNumber": "0x5819db",
          "transactionHash": "0x160b93e6a0bf9fd24c62b47b27fe83885c9709f03d353dcf1ac93635aab68249",
          "transactionIndex": "0x5d",
          "logIndex": "0x78",
          "removed": false
        }
      ],
      "logsBloom": "0x00000000000000000000000000000000000000000000040000000000000000000000000000000000000000000000000800000000000040000000000000000000000000000000000000000001000000000000000004000000000000000000000000000000000000000000000000000000000000000000000000000000000000000000000000000000000000000000000000000000000000000000000000000000000000000000000000000000000000000000000000000000000000000000000000000000000000000000000000000000000000000000000000000000000200000000000000000000000000000000000000000000000000000000000000000000",
      "type": "0x0",
      "transactionHash": "0x160b93e6a0bf9fd24c62b47b27fe83885c9709f03d353dcf1ac93635aab68249",
      "transactionIndex": "0x5d",
      "blockHash": "0x854733882fd51e4e6d5e010519dd2ef8a12acb2a3f288b293ede9cbf55e56dd4",
      "blockNumber": "0x5819db",
      "gasUsed": "0x6ebd",
      "effectiveGasPrice": "0x7810d33a",
      "from": "0x5803cdb747e1552be21c5fca63228aa3d2622873",
      "to": "0x6e821cb51fa7a81c213452b1dfc9d7f211c13c08",
      "contractAddress": null
    },
    {
      "status": "0x1",
      "cumulativeGasUsed": "0xd43524",
      "logs": [
        {
          "address": "0x6e821cb51fa7a81c213452b1dfc9d7f211c13c08",
          "topics": [
            "0x4f789d71cf9bf031ea385e257e27301375dc3ceca1da7c27aae67810ecdc6a52"
          ],
          "data": "0x000000000000000000000000481a61fb7c9eaddd5069fe2f6134b22ab8ee64890000000000000000000000000000000000000000000000000000000000002710",
          "blockHash": "0x854733882fd51e4e6d5e010519dd2ef8a12acb2a3f288b293ede9cbf55e56dd4",
          "blockNumber": "0x5819db",
          "transactionHash": "0x9c6065a83d9909fecf382e6569897ee47a97bf672cb715640a4c9536ddda755b",
          "transactionIndex": "0x5e",
          "logIndex": "0x79",
          "removed": false
        }
      ],
      "logsBloom": "0x00000000000000000000000000000000000000000000040000000000000000000000000000000000000000000000000800000000000040000000000000000000000000000000000000000001000000000000000004000000000000000000000000000000000000000000000000000000000000000000000000000000000000000000000000000000000000000000000000000000000000000000000000000000000000000000000000000000000000000000000000000000000000000000000000000000000000000000000000000000000000000000000000000000000200000000000000000000000000000000000000000000000000000000000000000000",
      "type": "0x0",
      "transactionHash": "0x9c6065a83d9909fecf382e6569897ee47a97bf672cb715640a4c9536ddda755b",
      "transactionIndex": "0x5e",
      "blockHash": "0x854733882fd51e4e6d5e010519dd2ef8a12acb2a3f288b293ede9cbf55e56dd4",
      "blockNumber": "0x5819db",
      "gasUsed": "0x63d9",
      "effectiveGasPrice": "0x7810d33a",
      "from": "0x5803cdb747e1552be21c5fca63228aa3d2622873",
      "to": "0x6e821cb51fa7a81c213452b1dfc9d7f211c13c08",
      "contractAddress": null
    }
  ],
  "libraries": [],
  "pending": [],
  "returns": {},
  "timestamp": 1714098190,
  "chain": 11155111,
  "commit": "9c02021"
}