{
  "transactions": [
    {
      "hash": "0xcd55fa246656e1800d653af3a5333f64a5a26d6d28eed6ec3b0aa89d46cb90bd",
      "transactionType": "CALL",
      "contractName": null,
      "contractAddress": "0x6e821cb51fa7a81c213452b1dfc9d7f211c13c08",
      "function": "setPrice(address,uint256)",
      "arguments": [
        "0x410B8aeF4c36990ee4872690583DED10A6D50bdA",
        "10000"
      ],
      "transaction": {
        "from": "0x5803cdb747e1552be21c5fca63228aa3d2622873",
        "to": "0x6e821cb51fa7a81c213452b1dfc9d7f211c13c08",
        "gas": "0xf548",
        "value": "0x0",
        "input": "0x00e4768b000000000000000000000000410b8aef4c36990ee4872690583ded10a6d50bda0000000000000000000000000000000000000000000000000000000000002710",
        "nonce": "0x2f",
        "chainId": "0xaa36a7",
        "accessList": null,
        "type": null
      },
      "additionalContracts": [],
      "isFixedGasLimit": false
    }
  ],
  "receipts": [
    {
      "status": "0x1",
      "cumulativeGasUsed": "0x8e5a77",
      "logs": [
        {
          "address": "0x6e821cb51fa7a81c213452b1dfc9d7f211c13c08",
          "topics": [
            "0x4f789d71cf9bf031ea385e257e27301375dc3ceca1da7c27aae67810ecdc6a52"
          ],
          "data": "0x000000000000000000000000410b8aef4c36990ee4872690583ded10a6d50bda0000000000000000000000000000000000000000000000000000000000002710",
          "blockHash": "0x91f3fd5e1b3559610d24f58b33d5ddf3c196643fca3708eb543cec6e98b630fd",
          "blockNumber": "0x5801c6",
          "transactionHash": "0xcd55fa246656e1800d653af3a5333f64a5a26d6d28eed6ec3b0aa89d46cb90bd",
          "transactionIndex": "0x4f",
          "logIndex": "0x6c",
          "removed": false
        }
      ],
      "logsBloom": "0x00000000000000000000000000000000000000000000040000000000000000000000000000000000000000000000000800000000000040000000000000000000000000000000000000000001000000000000000004000000000000000000000000000000000000000000000000000000000000000000000000000000000000000000000000000000000000000000000000000000000000000000000000000000000000000000000000000000000000000000000000000000000000000000000000000000000000000000000000000000000000000000000000000000000200000000000000000000000000000000000000000000000000000000000000000000",
      "type": "0x2",
      "transactionHash": "0xcd55fa246656e1800d653af3a5333f64a5a26d6d28eed6ec3b0aa89d46cb90bd",
      "transactionIndex": "0x4f",
      "blockHash": "0x91f3fd5e1b3559610d24f58b33d5ddf3c196643fca3708eb543cec6e98b630fd",
      "blockNumber": "0x5801c6",
      "gasUsed": "0xb195",
      "effectiveGasPrice": "0x4b99b84a",
      "from": "0x5803cdb747e1552be21c5fca63228aa3d2622873",
      "to": "0x6e821cb51fa7a81c213452b1dfc9d7f211c13c08",
      "contractAddress": null
    }
  ],
  "libraries": [],
  "pending": [],
  "returns": {},
  "timestamp": 1714023778,
  "chain": 11155111,
  "commit": "9c02021"
}