{
  "transactions": [
    {
      "hash": "0x26d574a1ba0c75c03962f83cc48d3b18a50d3d2ba339540317efaffc6f9ab2d7",
      "transactionType": "CALL",
      "contractName": null,
      "contractAddress": "0x6e821cb51fa7a81c213452b1dfc9d7f211c13c08",
      "function": "setPrice(address,uint256)",
      "arguments": [
        "0x87A0E260Ed9C18bfb95eAfE1a1e6fc07f0C3B16C",
        "10000"
      ],
      "transaction": {
        "from": "0x5803cdb747e1552be21c5fca63228aa3d2622873",
        "to": "0x6e821cb51fa7a81c213452b1dfc9d7f211c13c08",
        "gas": "0xf548",
        "value": "0x0",
        "input": "0x00e4768b00000000000000000000000087a0e260ed9c18bfb95eafe1a1e6fc07f0c3b16c0000000000000000000000000000000000000000000000000000000000002710",
        "nonce": "0x39",
        "chainId": "0xaa36a7",
        "accessList": null,
        "type": null
      },
      "additionalContracts": [],
      "isFixedGasLimit": false
    },
    {
      "hash": "0xd374fe664b9ec106be53a0c0fbb85fdebcf614c744d4ad896fd018994b8b022e",
      "transactionType": "CALL",
      "contractName": null,
      "contractAddress": "0x6e821cb51fa7a81c213452b1dfc9d7f211c13c08",
      "function": "setPrice(address,uint256)",
      "arguments": [
        "0x481A61fB7c9EAdDD5069Fe2F6134b22AB8EE6489",
        "10000"
      ],
      "transaction": {
        "from": "0x5803cdb747e1552be21c5fca63228aa3d2622873",
        "to": "0x6e821cb51fa7a81c213452b1dfc9d7f211c13c08",
        "gas": "0x9206",
        "value": "0x0",
        "input": "0x00e4768b000000000000000000000000481a61fb7c9eaddd5069fe2f6134b22ab8ee64890000000000000000000000000000000000000000000000000000000000002710",
        "nonce": "0x3a",
        "chainId": "0xaa36a7",
        "accessList": null,
        "type": null
      },
      "additionalContracts": [],
      "isFixedGasLimit": false
    }
  ],
  "receipts": [
    {
      "status": "0x1",
      "cumulativeGasUsed": "0x11fefbc",
      "logs": [
        {
          "address": "0x6e821cb51fa7a81c213452b1dfc9d7f211c13c08",
          "topics": [
            "0x4f789d71cf9bf031ea385e257e27301375dc3ceca1da7c27aae67810ecdc6a52"
          ],
          "data": "0x00000000000000000000000087a0e260ed9c18bfb95eafe1a1e6fc07f0c3b16c0000000000000000000000000000000000000000000000000000000000002710",
          "blockHash": "0x45642273838a1110cf41ab85173f9b616172b2e15d424ab11572d339a22a0558",
          "blockNumber": "0x58180d",
          "transactionHash": "0x26d574a1ba0c75c03962f83cc48d3b18a50d3d2ba339540317efaffc6f9ab2d7",
          "transactionIndex": "0x71",
          "logIndex": "0xdc",
          "removed": false
        }
      ],
      "logsBloom": "0x00000000000000000000000000000000000000000000040000000000000000000000000000000000000000000000000800000000000040000000000000000000000000000000000000000001000000000000000004000000000000000000000000000000000000000000000000000000000000000000000000000000000000000000000000000000000000000000000000000000000000000000000000000000000000000000000000000000000000000000000000000000000000000000000000000000000000000000000000000000000000000000000000000000000200000000000000000000000000000000000000000000000000000000000000000000",
      "type": "0x0",
      "transactionHash": "0x26d574a1ba0c75c03962f83cc48d3b18a50d3d2ba339540317efaffc6f9ab2d7",
      "transactionIndex": "0x71",
      "blockHash": "0x45642273838a1110cf41ab85173f9b616172b2e15d424ab11572d339a22a0558",
      "blockNumber": "0x58180d",
      "gasUsed": "0xb195",
      "effectiveGasPrice": "0xd8baead2",
      "from": "0x5803cdb747e1552be21c5fca63228aa3d2622873",
      "to": "0x6e821cb51fa7a81c213452b1dfc9d7f211c13c08",
      "contractAddress": null
    },
    {
      "status": "0x1",
      "cumulativeGasUsed": "0x1205395",
      "logs": [
        {
          "address": "0x6e821cb51fa7a81c213452b1dfc9d7f211c13c08",
          "topics": [
            "0x4f789d71cf9bf031ea385e257e27301375dc3ceca1da7c27aae67810ecdc6a52"
          ],
          "data": "0x000000000000000000000000481a61fb7c9eaddd5069fe2f6134b22ab8ee64890000000000000000000000000000000000000000000000000000000000002710",
          "blockHash": "0x45642273838a1110cf41ab85173f9b616172b2e15d424ab11572d339a22a0558",
          "blockNumber": "0x58180d",
          "transactionHash": "0xd374fe664b9ec106be53a0c0fbb85fdebcf614c744d4ad896fd018994b8b022e",
          "transactionIndex": "0x72",
          "logIndex": "0xdd",
          "removed": false
        }
      ],
      "logsBloom": "0x00000000000000000000000000000000000000000000040000000000000000000000000000000000000000000000000800000000000040000000000000000000000000000000000000000001000000000000000004000000000000000000000000000000000000000000000000000000000000000000000000000000000000000000000000000000000000000000000000000000000000000000000000000000000000000000000000000000000000000000000000000000000000000000000000000000000000000000000000000000000000000000000000000000000200000000000000000000000000000000000000000000000000000000000000000000",
      "type": "0x0",
      "transactionHash": "0xd374fe664b9ec106be53a0c0fbb85fdebcf614c744d4ad896fd018994b8b022e",
      "transactionIndex": "0x72",
      "blockHash": "0x45642273838a1110cf41ab85173f9b616172b2e15d424ab11572d339a22a0558",
      "blockNumber": "0x58180d",
      "gasUsed": "0x63d9",
      "effectiveGasPrice": "0xd8baead2",
      "from": "0x5803cdb747e1552be21c5fca63228aa3d2622873",
      "to": "0x6e821cb51fa7a81c213452b1dfc9d7f211c13c08",
      "contractAddress": null
    }
  ],
  "libraries": [],
  "pending": [],
  "returns": {},
  "timestamp": 1714092565,
  "chain": 11155111,
  "commit": "9c02021"
}