{
  "transactions": [
    {
      "hash": "0x98fa4ebba770e0841ded43907796fe874edd79b4be28b05b34b078294b476e4e",
      "transactionType": "CALL",
      "contractName": null,
      "contractAddress": "0x6e821cb51fa7a81c213452b1dfc9d7f211c13c08",
      "function": "setPrice(address,uint256)",
      "arguments": [
        "0xdcb29F3C510Af6fEe5512E94CA9ccA4a289f6163",
        "10000"
      ],
      "transaction": {
        "from": "0x5803cdb747e1552be21c5fca63228aa3d2622873",
        "to": "0x6e821cb51fa7a81c213452b1dfc9d7f211c13c08",
        "gas": "0xf548",
        "value": "0x0",
        "input": "0x00e4768b000000000000000000000000dcb29f3c510af6fee5512e94ca9cca4a289f61630000000000000000000000000000000000000000000000000000000000002710",
        "nonce": "0x34",
        "chainId": "0xaa36a7",
        "accessList": null,
        "type": null
      },
      "additionalContracts": [],
      "isFixedGasLimit": false
    }
  ],
  "receipts": [
    {
      "status": "0x1",
      "cumulativeGasUsed": "0xd0b37b",
      "logs": [
        {
          "address": "0x6e821cb51fa7a81c213452b1dfc9d7f211c13c08",
          "topics": [
            "0x4f789d71cf9bf031ea385e257e27301375dc3ceca1da7c27aae67810ecdc6a52"
          ],
          "data": "0x000000000000000000000000dcb29f3c510af6fee5512e94ca9cca4a289f61630000000000000000000000000000000000000000000000000000000000002710",
          "blockHash": "0x983aa40136fe2f90342b2fa23a7ad784c8e052b66b181b70a92fbe643534f01b",
          "blockNumber": "0x58021d",
          "transactionHash": "0x98fa4ebba770e0841ded43907796fe874edd79b4be28b05b34b078294b476e4e",
          "transactionIndex": "0x78",
          "logIndex": "0xb8",
          "removed": false
        }
      ],
      "logsBloom": "0x00000000000000000000000000000000000000000000040000000000000000000000000000000000000000000000000800000000000040000000000000000000000000000000000000000001000000000000000004000000000000000000000000000000000000000000000000000000000000000000000000000000000000000000000000000000000000000000000000000000000000000000000000000000000000000000000000000000000000000000000000000000000000000000000000000000000000000000000000000000000000000000000000000000000200000000000000000000000000000000000000000000000000000000000000000000",
      "type": "0x0",
      "transactionHash": "0x98fa4ebba770e0841ded43907796fe874edd79b4be28b05b34b078294b476e4e",
      "transactionIndex": "0x78",
      "blockHash": "0x983aa40136fe2f90342b2fa23a7ad784c8e052b66b181b70a92fbe643534f01b",
      "blockNumber": "0x58021d",
      "gasUsed": "0xb195",
      "effectiveGasPrice": "0x5f13b605",
      "from": "0x5803cdb747e1552be21c5fca63228aa3d2622873",
      "to": "0x6e821cb51fa7a81c213452b1dfc9d7f211c13c08",
      "contractAddress": null
    }
  ],
  "libraries": [],
  "pending": [],
  "returns": {},
  "timestamp": 1714024824,
  "chain": 11155111,
  "commit": "9c02021"
}