{
  "transactions": [
    {
      "hash": "0xe47e44a751576e9e0546123fa806c5dc4e84e4ba437397dea16c4cfc5a7cbe66",
      "transactionType": "CALL",
      "contractName": null,
      "contractAddress": "0x6e821cb51fa7a81c213452b1dfc9d7f211c13c08",
      "function": "setPrice(address,uint256)",
      "arguments": [
        "0xef414d02f1204D247640AA3e6f92b138788Ea7C5",
        "10000"
      ],
      "transaction": {
        "from": "0x5803cdb747e1552be21c5fca63228aa3d2622873",
        "to": "0x6e821cb51fa7a81c213452b1dfc9d7f211c13c08",
        "gas": "0xf548",
        "value": "0x0",
        "input": "0x00e4768b000000000000000000000000ef414d02f1204d247640aa3e6f92b138788ea7c50000000000000000000000000000000000000000000000000000000000002710",
        "nonce": "0x3c",
        "chainId": "0xaa36a7",
        "accessList": null,
        "type": null
      },
      "additionalContracts": [],
      "isFixedGasLimit": false
    },
    {
      "hash": "0x9e482bedfd8743bf47bdc11eb7466dba1f34581453af3a0ea4a31926b81639f5",
      "transactionType": "CALL",
      "contractName": null,
      "contractAddress": "0x6e821cb51fa7a81c213452b1dfc9d7f211c13c08",
      "function": "setPrice(address,uint256)",
      "arguments": [
        "0x481A61fB7c9EAdDD5069Fe2F6134b22AB8EE6489",
        "10000"
      ],
      "transaction": {
        "from": "0x5803cdb747e1552be21c5fca63228aa3d2622873",
        "to": "0x6e821cb51fa7a81c213452b1dfc9d7f211c13c08",
        "gas": "0x9206",
        "value": "0x0",
        "input": "0x00e4768b000000000000000000000000481a61fb7c9eaddd5069fe2f6134b22ab8ee64890000000000000000000000000000000000000000000000000000000000002710",
        "nonce": "0x3d",
        "chainId": "0xaa36a7",
        "accessList": null,
        "type": null
      },
      "additionalContracts": [],
      "isFixedGasLimit": false
    }
  ],
  "receipts": [
    {
      "status": "0x1",
      "cumulativeGasUsed": "0x1258ed3",
      "logs": [
        {
          "address": "0x6e821cb51fa7a81c213452b1dfc9d7f211c13c08",
          "topics": [
            "0x4f789d71cf9bf031ea385e257e27301375dc3ceca1da7c27aae67810ecdc6a52"
          ],
          "data": "0x000000000000000000000000ef414d02f1204d247640aa3e6f92b138788ea7c50000000000000000000000000000000000000000000000000000000000002710",
          "blockHash": "0x0326bab2837e95c4869a0ca29d9bac0f9a720ebb4d7d04550a7637b58a7075ac",
          "blockNumber": "0x581828",
          "transactionHash": "0xe47e44a751576e9e0546123fa806c5dc4e84e4ba437397dea16c4cfc5a7cbe66",
          "transactionIndex": "0x73",
          "logIndex": "0xaf",
          "removed": false
        }
      ],
      "logsBloom": "0x00000000000000000000000000000000000000000000040000000000000000000000000000000000000000000000000800000000000040000000000000000000000000000000000000000001000000000000000004000000000000000000000000000000000000000000000000000000000000000000000000000000000000000000000000000000000000000000000000000000000000000000000000000000000000000000000000000000000000000000000000000000000000000000000000000000000000000000000000000000000000000000000000000000000200000000000000000000000000000000000000000000000000000000000000000000",
      "type": "0x0",
      "transactionHash": "0xe47e44a751576e9e0546123fa806c5dc4e84e4ba437397dea16c4cfc5a7cbe66",
      "transactionIndex": "0x73",
      "blockHash": "0x0326bab2837e95c4869a0ca29d9bac0f9a720ebb4d7d04550a7637b58a7075ac",
      "blockNumber": "0x581828",
      "gasUsed": "0xb195",
      "effectiveGasPrice": "0x109dc89e0",
      "from": "0x5803cdb747e1552be21c5fca63228aa3d2622873",
      "to": "0x6e821cb51fa7a81c213452b1dfc9d7f211c13c08",
      "contractAddress": null
    },
    {
      "status": "0x1",
      "cumulativeGasUsed": "0x125f2ac",
      "logs": [
        {
          "address": "0x6e821cb51fa7a81c213452b1dfc9d7f211c13c08",
          "topics": [
            "0x4f789d71cf9bf031ea385e257e27301375dc3ceca1da7c27aae67810ecdc6a52"
          ],
          "data": "0x000000000000000000000000481a61fb7c9eaddd5069fe2f6134b22ab8ee64890000000000000000000000000000000000000000000000000000000000002710",
          "blockHash": "0x0326bab2837e95c4869a0ca29d9bac0f9a720ebb4d7d04550a7637b58a7075ac",
          "blockNumber": "0x581828",
          "transactionHash": "0x9e482bedfd8743bf47bdc11eb7466dba1f34581453af3a0ea4a31926b81639f5",
          "transactionIndex": "0x74",
          "logIndex": "0xb0",
          "removed": false
        }
      ],
      "logsBloom": "0x00000000000000000000000000000000000000000000040000000000000000000000000000000000000000000000000800000000000040000000000000000000000000000000000000000001000000000000000004000000000000000000000000000000000000000000000000000000000000000000000000000000000000000000000000000000000000000000000000000000000000000000000000000000000000000000000000000000000000000000000000000000000000000000000000000000000000000000000000000000000000000000000000000000000200000000000000000000000000000000000000000000000000000000000000000000",
      "type": "0x0",
      "transactionHash": "0x9e482bedfd8743bf47bdc11eb7466dba1f34581453af3a0ea4a31926b81639f5",
      "transactionIndex": "0x74",
      "blockHash": "0x0326bab2837e95c4869a0ca29d9bac0f9a720ebb4d7d04550a7637b58a7075ac",
      "blockNumber": "0x581828",
      "gasUsed": "0x63d9",
      "effectiveGasPrice": "0x109dc89e0",
      "from": "0x5803cdb747e1552be21c5fca63228aa3d2622873",
      "to": "0x6e821cb51fa7a81c213452b1dfc9d7f211c13c08",
      "contractAddress": null
    }
  ],
  "libraries": [],
  "pending": [],
  "returns": {},
  "timestamp": 1714092885,
  "chain": 11155111,
  "commit": "9c02021"
}