{
  "transactions": [
    {
      "hash": "0x11511b4514bf7b9107a47adaa0eee22d73b1045a2029fc74244fb03a80b1f20c",
      "transactionType": "CALL",
      "contractName": null,
      "contractAddress": "0x6e821cb51fa7a81c213452b1dfc9d7f211c13c08",
      "function": "setPrice(address,uint256)",
      "arguments": [
        "0x781751Eb19f941FC6a60c94c247476A851A76f11",
        "10000"
      ],
      "transaction": {
        "from": "0x5803cdb747e1552be21c5fca63228aa3d2622873",
        "to": "0x6e821cb51fa7a81c213452b1dfc9d7f211c13c08",
        "gas": "0xf548",
        "value": "0x0",
        "input": "0x00e4768b000000000000000000000000781751eb19f941fc6a60c94c247476a851a76f110000000000000000000000000000000000000000000000000000000000002710",
        "nonce": "0x21",
        "chainId": "0xaa36a7",
        "accessList": null,
        "type": null
      },
      "additionalContracts": [],
      "isFixedGasLimit": false
    },
    {
      "hash": "0x4f4aa4d1ea164d5c00ca0a42e475b711c464e11cbfd49e08b944e4451676a3c4",
      "transactionType": "CALL",
      "contractName": null,
      "contractAddress": "0x6e821cb51fa7a81c213452b1dfc9d7f211c13c08",
      "function": "setPrice(address,uint256)",
      "arguments": [
        "0xd905d7cf21c771ddbAC9f0A7236ddFd2a7e63726",
        "10000"
      ],
      "transaction": {
        "from": "0x5803cdb747e1552be21c5fca63228aa3d2622873",
        "to": "0x6e821cb51fa7a81c213452b1dfc9d7f211c13c08",
        "gas": "0x9206",
        "value": "0x0",
        "input": "0x00e4768b000000000000000000000000d905d7cf21c771ddbac9f0a7236ddfd2a7e637260000000000000000000000000000000000000000000000000000000000002710",
        "nonce": "0x22",
        "chainId": "0xaa36a7",
        "accessList": null,
        "type": null
      },
      "additionalContracts": [],
      "isFixedGasLimit": false
    }
  ],
  "receipts": [
    {
      "status": "0x1",
      "cumulativeGasUsed": "0x45b83b",
      "logs": [
        {
          "address": "0x6e821cb51fa7a81c213452b1dfc9d7f211c13c08",
          "topics": [
            "0x4f789d71cf9bf031ea385e257e27301375dc3ceca1da7c27aae67810ecdc6a52"
          ],
          "data": "0x000000000000000000000000781751eb19f941fc6a60c94c247476a851a76f110000000000000000000000000000000000000000000000000000000000002710",
          "blockHash": "0xc46678f59fe9ad4baf357220450aa14edb86d347332c65065b0636d01080b9ca",
          "blockNumber": "0x57ffe9",
          "transactionHash": "0x11511b4514bf7b9107a47adaa0eee22d73b1045a2029fc74244fb03a80b1f20c",
          "transactionIndex": "0x21",
          "logIndex": "0x3e",
          "removed": false
        }
      ],
      "logsBloom": "0x00000000000000000000000000000000000000000000040000000000000000000000000000000000000000000000000800000000000040000000000000000000000000000000000000000001000000000000000004000000000000000000000000000000000000000000000000000000000000000000000000000000000000000000000000000000000000000000000000000000000000000000000000000000000000000000000000000000000000000000000000000000000000000000000000000000000000000000000000000000000000000000000000000000000200000000000000000000000000000000000000000000000000000000000000000000",
      "type": "0x2",
      "transactionHash": "0x11511b4514bf7b9107a47adaa0eee22d73b1045a2029fc74244fb03a80b1f20c",
      "transactionIndex": "0x21",
      "blockHash": "0xc46678f59fe9ad4baf357220450aa14edb86d347332c65065b0636d01080b9ca",
      "blockNumber": "0x57ffe9",
      "gasUsed": "0xb195",
      "effectiveGasPrice": "0x5968c684",
      "from": "0x5803cdb747e1552be21c5fca63228aa3d2622873",
      "to": "0x6e821cb51fa7a81c213452b1dfc9d7f211c13c08",
      "contractAddress": null
    },
    {
      "status": "0x1",
      "cumulativeGasUsed": "0x461c14",
      "logs": [
        {
          "address": "0x6e821cb51fa7a81c213452b1dfc9d7f211c13c08",
          "topics": [
            "0x4f789d71cf9bf031ea385e257e27301375dc3ceca1da7c27aae67810ecdc6a52"
          ],
          "data": "0x000000000000000000000000d905d7cf21c771ddbac9f0a7236ddfd2a7e637260000000000000000000000000000000000000000000000000000000000002710",
          "blockHash": "0xc46678f59fe9ad4baf357220450aa14edb86d347332c65065b0636d01080b9ca",
          "blockNumber": "0x57ffe9",
          "transactionHash": "0x4f4aa4d1ea164d5c00ca0a42e475b711c464e11cbfd49e08b944e4451676a3c4",
          "transactionIndex": "0x22",
          "logIndex": "0x3f",
          "removed": false
        }
      ],
      "logsBloom": "0x00000000000000000000000000000000000000000000040000000000000000000000000000000000000000000000000800000000000040000000000000000000000000000000000000000001000000000000000004000000000000000000000000000000000000000000000000000000000000000000000000000000000000000000000000000000000000000000000000000000000000000000000000000000000000000000000000000000000000000000000000000000000000000000000000000000000000000000000000000000000000000000000000000000000200000000000000000000000000000000000000000000000000000000000000000000",
      "type": "0x2",
      "transactionHash": "0x4f4aa4d1ea164d5c00ca0a42e475b711c464e11cbfd49e08b944e4451676a3c4",
      "transactionIndex": "0x22",
      "blockHash": "0xc46678f59fe9ad4baf357220450aa14edb86d347332c65065b0636d01080b9ca",
      "blockNumber": "0x57ffe9",
      "gasUsed": "0x63d9",
      "effectiveGasPrice": "0x5968c684",
      "from": "0x5803cdb747e1552be21c5fca63228aa3d2622873",
      "to": "0x6e821cb51fa7a81c213452b1dfc9d7f211c13c08",
      "contractAddress": null
    }
  ],
  "libraries": [],
  "pending": [],
  "returns": {},
  "timestamp": 1714018021,
  "chain": 11155111,
  "commit": "9c02021"
}