{
  "transactions": [
    {
      "hash": "0xe00429613eecd44c7c241a32a311c61d8e016faa2086ca71b6c8a5f07cc567fc",
      "transactionType": "CALL",
      "contractName": null,
      "contractAddress": "0x6e821cb51fa7a81c213452b1dfc9d7f211c13c08",
      "function": "setPrice(address,uint256)",
      "arguments": [
        "0x42B1925d95Dc2D4cD6Ed2ebBb9aa5ba93EeC3c59",
        "10000"
      ],
      "transaction": {
        "from": "0x5803cdb747e1552be21c5fca63228aa3d2622873",
        "to": "0x6e821cb51fa7a81c213452b1dfc9d7f211c13c08",
        "gas": "0xf548",
        "value": "0x0",
        "input": "0x00e4768b00000000000000000000000042b1925d95dc2d4cd6ed2ebbb9aa5ba93eec3c590000000000000000000000000000000000000000000000000000000000002710",
        "nonce": "0x15",
        "chainId": "0xaa36a7",
        "accessList": null,
        "type": null
      },
      "additionalContracts": [],
      "isFixedGasLimit": false
    },
    {
      "hash": "0x41662de64f534aaa287fb84260bf68510e8d54c2ac1f30363ecaef0bcc52d36c",
      "transactionType": "CALL",
      "contractName": null,
      "contractAddress": "0x6e821cb51fa7a81c213452b1dfc9d7f211c13c08",
      "function": "setPrice(address,uint256)",
      "arguments": [
        "0x481A61fB7c9EAdDD5069Fe2F6134b22AB8EE6489",
        "10000"
      ],
      "transaction": {
        "from": "0x5803cdb747e1552be21c5fca63228aa3d2622873",
        "to": "0x6e821cb51fa7a81c213452b1dfc9d7f211c13c08",
        "gas": "0xf548",
        "value": "0x0",
        "input": "0x00e4768b000000000000000000000000481a61fb7c9eaddd5069fe2f6134b22ab8ee64890000000000000000000000000000000000000000000000000000000000002710",
        "nonce": "0x16",
        "chainId": "0xaa36a7",
        "accessList": null,
        "type": null
      },
      "additionalContracts": [],
      "isFixedGasLimit": false
    }
  ],
  "receipts": [
    {
      "status": "0x1",
      "cumulativeGasUsed": "0x89d373",
      "logs": [
        {
          "address": "0x6e821cb51fa7a81c213452b1dfc9d7f211c13c08",
          "topics": [
            "0x4f789d71cf9bf031ea385e257e27301375dc3ceca1da7c27aae67810ecdc6a52"
          ],
          "data": "0x00000000000000000000000042b1925d95dc2d4cd6ed2ebbb9aa5ba93eec3c590000000000000000000000000000000000000000000000000000000000002710",
          "blockHash": "0x0eee2406ea105dd5a794bff5f5cfb1e670343532be6f4b77e72700ccd60387ab",
          "blockNumber": "0x57fd6e",
          "transactionHash": "0xe00429613eecd44c7c241a32a311c61d8e016faa2086ca71b6c8a5f07cc567fc",
          "transactionIndex": "0x57",
          "logIndex": "0x7f",
          "removed": false
        }
      ],
      "logsBloom": "0x00000000000000000000000000000000000000000000040000000000000000000000000000000000000000000000000800000000000040000000000000000000000000000000000000000001000000000000000004000000000000000000000000000000000000000000000000000000000000000000000000000000000000000000000000000000000000000000000000000000000000000000000000000000000000000000000000000000000000000000000000000000000000000000000000000000000000000000000000000000000000000000000000000000000200000000000000000000000000000000000000000000000000000000000000000000",
      "type": "0x2",
      "transactionHash": "0xe00429613eecd44c7c241a32a311c61d8e016faa2086ca71b6c8a5f07cc567fc",
      "transactionIndex": "0x57",
      "blockHash": "0x0eee2406ea105dd5a794bff5f5cfb1e670343532be6f4b77e72700ccd60387ab",
      "blockNumber": "0x57fd6e",
      "gasUsed": "0xb195",
      "effectiveGasPrice": "0x3b9acc7d",
      "from": "0x5803cdb747e1552be21c5fca63228aa3d2622873",
      "to": "0x6e821cb51fa7a81c213452b1dfc9d7f211c13c08",
      "contractAddress": null
    },
    {
      "status": "0x1",
      "cumulativeGasUsed": "0x8a8508",
      "logs": [
        {
          "address": "0x6e821cb51fa7a81c213452b1dfc9d7f211c13c08",
          "topics": [
            "0x4f789d71cf9bf031ea385e257e27301375dc3ceca1da7c27aae67810ecdc6a52"
          ],
          "data": "0x000000000000000000000000481a61fb7c9eaddd5069fe2f6134b22ab8ee64890000000000000000000000000000000000000000000000000000000000002710",
          "blockHash": "0x0eee2406ea105dd5a794bff5f5cfb1e670343532be6f4b77e72700ccd60387ab",
          "blockNumber": "0x57fd6e",
          "transactionHash": "0x41662de64f534aaa287fb84260bf68510e8d54c2ac1f30363ecaef0bcc52d36c",
          "transactionIndex": "0x58",
          "logIndex": "0x80",
          "removed": false
        }
      ],
      "logsBloom": "0x00000000000000000000000000000000000000000000040000000000000000000000000000000000000000000000000800000000000040000000000000000000000000000000000000000001000000000000000004000000000000000000000000000000000000000000000000000000000000000000000000000000000000000000000000000000000000000000000000000000000000000000000000000000000000000000000000000000000000000000000000000000000000000000000000000000000000000000000000000000000000000000000000000000000200000000000000000000000000000000000000000000000000000000000000000000",
      "type": "0x2",
      "transactionHash": "0x41662de64f534aaa287fb84260bf68510e8d54c2ac1f30363ecaef0bcc52d36c",
      "transactionIndex": "0x58",
      "blockHash": "0x0eee2406ea105dd5a794bff5f5cfb1e670343532be6f4b77e72700ccd60387ab",
      "blockNumber": "0x57fd6e",
      "gasUsed": "0xb195",
      "effectiveGasPrice": "0x3b9acc7d",
      "from": "0x5803cdb747e1552be21c5fca63228aa3d2622873",
      "to": "0x6e821cb51fa7a81c213452b1dfc9d7f211c13c08",
      "contractAddress": null
    }
  ],
  "libraries": [],
  "pending": [],
  "returns": {},
  "timestamp": 1714010368,
  "chain": 11155111,
  "commit": "9c02021"
}