{
  "transactions": [
    {
      "hash": "0xee0580db7280aadbe333fc2536a060c376c48f8d421af0fdc3f99c66dad4636d",
      "transactionType": "CALL",
      "contractName": null,
      "contractAddress": "0x6e821cb51fa7a81c213452b1dfc9d7f211c13c08",
      "function": "setPrice(address,uint256)",
      "arguments": [
        "0x50C6120C66457338551f725bEfa694D76C2F0436",
        "10000"
      ],
      "transaction": {
        "from": "0x5803cdb747e1552be21c5fca63228aa3d2622873",
        "to": "0x6e821cb51fa7a81c213452b1dfc9d7f211c13c08",
        "gas": "0xa205",
        "value": "0x0",
        "input": "0x00e4768b00000000000000000000000050c6120c66457338551f725befa694d76c2f04360000000000000000000000000000000000000000000000000000000000002710",
        "nonce": "0x47",
        "chainId": "0xaa36a7",
        "accessList": null,
        "type": null
      },
      "additionalContracts": [],
      "isFixedGasLimit": false
    },
    {
      "hash": "0xc5eef0d2bf957d6b03ca7c4e85574856a6637cbccf11dd38ddae5ceddb081b4d",
      "transactionType": "CALL",
      "contractName": null,
      "contractAddress": "0x6e821cb51fa7a81c213452b1dfc9d7f211c13c08",
      "function": "setPrice(address,uint256)",
      "arguments": [
        "0x481A61fB7c9EAdDD5069Fe2F6134b22AB8EE6489",
        "10000"
      ],
      "transaction": {
        "from": "0x5803cdb747e1552be21c5fca63228aa3d2622873",
        "to": "0x6e821cb51fa7a81c213452b1dfc9d7f211c13c08",
        "gas": "0x9206",
        "value": "0x0",
        "input": "0x00e4768b000000000000000000000000481a61fb7c9eaddd5069fe2f6134b22ab8ee64890000000000000000000000000000000000000000000000000000000000002710",
        "nonce": "0x48",
        "chainId": "0xaa36a7",
        "accessList": null,
        "type": null
      },
      "additionalContracts": [],
      "isFixedGasLimit": false
    }
  ],
  "receipts": [
    {
      "status": "0x1",
      "cumulativeGasUsed": "0xa5f82b",
      "logs": [
        {
          "address": "0x6e821cb51fa7a81c213452b1dfc9d7f211c13c08",
          "topics": [
            "0x4f789d71cf9bf031ea385e257e27301375dc3ceca1da7c27aae67810ecdc6a52"
          ],
          "data": "0x00000000000000000000000050c6120c66457338551f725befa694d76c2f04360000000000000000000000000000000000000000000000000000000000002710",
          "blockHash": "0xf0e6650c32995dbeb2acd449f8e0b3b56d15bc38341ba98f0daaf6df6d967a27",
          "blockNumber": "0x581988",
          "transactionHash": "0xee0580db7280aadbe333fc2536a060c376c48f8d421af0fdc3f99c66dad4636d",
          "transactionIndex": "0x56",
          "logIndex": "0x66",
          "removed": false
        }
      ],
      "logsBloom": "0x00000000000000000000000000000000000000000000040000000000000000000000000000000000000000000000000800000000000040000000000000000000000000000000000000000001000000000000000004000000000000000000000000000000000000000000000000000000000000000000000000000000000000000000000000000000000000000000000000000000000000000000000000000000000000000000000000000000000000000000000000000000000000000000000000000000000000000000000000000000000000000000000000000000000200000000000000000000000000000000000000000000000000000000000000000000",
      "type": "0x0",
      "transactionHash": "0xee0580db7280aadbe333fc2536a060c376c48f8d421af0fdc3f99c66dad4636d",
      "transactionIndex": "0x56",
      "blockHash": "0xf0e6650c32995dbeb2acd449f8e0b3b56d15bc38341ba98f0daaf6df6d967a27",
      "blockNumber": "0x581988",
      "gasUsed": "0x6ec9",
      "effectiveGasPrice": "0x8f506575",
      "from": "0x5803cdb747e1552be21c5fca63228aa3d2622873",
      "to": "0x6e821cb51fa7a81c213452b1dfc9d7f211c13c08",
      "contractAddress": null
    },
    {
      "status": "0x1",
      "cumulativeGasUsed": "0xa65c04",
      "logs": [
        {
          "address": "0x6e821cb51fa7a81c213452b1dfc9d7f211c13c08",
          "topics": [
            "0x4f789d71cf9bf031ea385e257e27301375dc3ceca1da7c27aae67810ecdc6a52"
          ],
          "data": "0x000000000000000000000000481a61fb7c9eaddd5069fe2f6134b22ab8ee64890000000000000000000000000000000000000000000000000000000000002710",
          "blockHash": "0xf0e6650c32995dbeb2acd449f8e0b3b56d15bc38341ba98f0daaf6df6d967a27",
          "blockNumber": "0x581988",
          "transactionHash": "0xc5eef0d2bf957d6b03ca7c4e85574856a6637cbccf11dd38ddae5ceddb081b4d",
          "transactionIndex": "0x57",
          "logIndex": "0x67",
          "removed": false
        }
      ],
      "logsBloom": "0x00000000000000000000000000000000000000000000040000000000000000000000000000000000000000000000000800000000000040000000000000000000000000000000000000000001000000000000000004000000000000000000000000000000000000000000000000000000000000000000000000000000000000000000000000000000000000000000000000000000000000000000000000000000000000000000000000000000000000000000000000000000000000000000000000000000000000000000000000000000000000000000000000000000000200000000000000000000000000000000000000000000000000000000000000000000",
      "type": "0x0",
      "transactionHash": "0xc5eef0d2bf957d6b03ca7c4e85574856a6637cbccf11dd38ddae5ceddb081b4d",
      "transactionIndex": "0x57",
      "blockHash": "0xf0e6650c32995dbeb2acd449f8e0b3b56d15bc38341ba98f0daaf6df6d967a27",
      "blockNumber": "0x581988",
      "gasUsed": "0x63d9",
      "effectiveGasPrice": "0x8f506575",
      "from": "0x5803cdb747e1552be21c5fca63228aa3d2622873",
      "to": "0x6e821cb51fa7a81c213452b1dfc9d7f211c13c08",
      "contractAddress": null
    }
  ],
  "libraries": [],
  "pending": [],
  "returns": {},
  "timestamp": 1714097188,
  "chain": 11155111,
  "commit": "9c02021"
}