{
  "transactions": [
    {
      "hash": null,
      "transactionType": "CALL",
      "contractName": null,
      "contractAddress": "0x6e821cb51fa7a81c213452b1dfc9d7f211c13c08",
      "function": "setPrice(address,uint256)",
      "arguments": [
        "0x37099Ba4DfeBBf0F898a90431FF66AeA434AD435",
        "10000"
      ],
      "transaction": {
        "from": "0x5803cdb747e1552be21c5fca63228aa3d2622873",
        "to": "0x6e821cb51fa7a81c213452b1dfc9d7f211c13c08",
        "gas": "0xf548",
        "value": "0x0",
        "input": "0x00e4768b00000000000000000000000037099ba4dfebbf0f898a90431ff66aea434ad4350000000000000000000000000000000000000000000000000000000000002710",
        "nonce": "0x30",
        "chainId": "0xaa36a7",
        "accessList": null,
        "type": null
      },
      "additionalContracts": [],
      "isFixedGasLimit": false
    }
  ],
  "receipts": [],
  "libraries": [],
  "pending": [],
  "returns": {},
  "timestamp": 1714024266,
  "chain": 11155111,
  "commit": "9c02021"
}