{
  "transactions": [
    {
      "hash": "0x652a6f72a7dd0ca481762d1105986da50218c3c2cd0ef242ddb82a3e80b30d4a",
      "transactionType": "CALL",
      "contractName": null,
      "contractAddress": "0x6e821cb51fa7a81c213452b1dfc9d7f211c13c08",
      "function": "setPrice(address,uint256)",
      "arguments": [
        "0x50C6120C66457338551f725bEfa694D76C2F0436",
        "100"
      ],
      "transaction": {
        "from": "0x5803cdb747e1552be21c5fca63228aa3d2622873",
        "to": "0x6e821cb51fa7a81c213452b1dfc9d7f211c13c08",
        "gas": "0x103a5",
        "value": "0x0",
        "input": "0x00e4768b00000000000000000000000050c6120c66457338551f725befa694d76c2f04360000000000000000000000000000000000000000000000000000000000000064",
        "nonce": "0x41",
        "chainId": "0xaa36a7",
        "accessList": null,
        "type": null
      },
      "additionalContracts": [],
      "isFixedGasLimit": false
    },
    {
      "hash": "0x694b5c94967289ad9d69f5c62c0909ff849f2f94f63c41fa09dcf7d888950e2c",
      "transactionType": "CALL",
      "contractName": null,
      "contractAddress": "0x6e821cb51fa7a81c213452b1dfc9d7f211c13c08",
      "function": "setPrice(address,uint256)",
      "arguments": [
        "0x481A61fB7c9EAdDD5069Fe2F6134b22AB8EE6489",
        "10000"
      ],
      "transaction": {
        "from": "0x5803cdb747e1552be21c5fca63228aa3d2622873",
        "to": "0x6e821cb51fa7a81c213452b1dfc9d7f211c13c08",
        "gas": "0x9206",
        "value": "0x0",
        "input": "0x00e4768b000000000000000000000000481a61fb7c9eaddd5069fe2f6134b22ab8ee64890000000000000000000000000000000000000000000000000000000000002710",
        "nonce": "0x42",
        "chainId": "0xaa36a7",
        "accessList": null,
        "type": null
      },
      "additionalContracts": [],
      "isFixedGasLimit": false
    }
  ],
  "receipts": [
    {
      "status": "0x1",
      "cumulativeGasUsed": "0x1230dd3",
      "logs": [
        {
          "address": "0x6e821cb51fa7a81c213452b1dfc9d7f211c13c08",
          "topics": [
            "0x4f789d71cf9bf031ea385e257e27301375dc3ceca1da7c27aae67810ecdc6a52"
          ],
          "data": "0x00000000000000000000000050c6120c66457338551f725befa694d76c2f04360000000000000000000000000000000000000000000000000000000000000064",
          "blockHash": "0x60cc2fc9857916ed021c9ced70a841af1700cc0b7decd6b84c0710620f643db3",
          "blockNumber": "0x581882",
          "transactionHash": "0x652a6f72a7dd0ca481762d1105986da50218c3c2cd0ef242ddb82a3e80b30d4a",
          "transactionIndex": "0xa4",
          "logIndex": "0xc7",
          "removed": false
        }
      ],
      "logsBloom": "0x00000000000000000000000000000000000000000000040000000000000000000000000000000000000000000000000800000000000040000000000000000000000000000000000000000001000000000000000004000000000000000000000000000000000000000000000000000000000000000000000000000000000000000000000000000000000000000000000000000000000000000000000000000000000000000000000000000000000000000000000000000000000000000000000000000000000000000000000000000000000000000000000000000000000200000000000000000000000000000000000000000000000000000000000000000000",
      "type": "0x0",
      "transactionHash": "0x652a6f72a7dd0ca481762d1105986da50218c3c2cd0ef242ddb82a3e80b30d4a",
      "transactionIndex": "0xa4",
      "blockHash": "0x60cc2fc9857916ed021c9ced70a841af1700cc0b7decd6b84c0710620f643db3",
      "blockNumber": "0x581882",
      "gasUsed": "0xb189",
      "effectiveGasPrice": "0x13078aceb",
      "from": "0x5803cdb747e1552be21c5fca63228aa3d2622873",
      "to": "0x6e821cb51fa7a81c213452b1dfc9d7f211c13c08",
      "contractAddress": null
    },
    {
      "status": "0x1",
      "cumulativeGasUsed": "0x12371ac",
      "logs": [
        {
          "address": "0x6e821cb51fa7a81c213452b1dfc9d7f211c13c08",
          "topics": [
            "0x4f789d71cf9bf031ea385e257e27301375dc3ceca1da7c27aae67810ecdc6a52"
          ],
          "data": "0x000000000000000000000000481a61fb7c9eaddd5069fe2f6134b22ab8ee64890000000000000000000000000000000000000000000000000000000000002710",
          "blockHash": "0x60cc2fc9857916ed021c9ced70a841af1700cc0b7decd6b84c0710620f643db3",
          "blockNumber": "0x581882",
          "transactionHash": "0x694b5c94967289ad9d69f5c62c0909ff849f2f94f63c41fa09dcf7d888950e2c",
          "transactionIndex": "0xa5",
          "logIndex": "0xc8",
          "removed": false
        }
      ],
      "logsBloom": "0x00000000000000000000000000000000000000000000040000000000000000000000000000000000000000000000000800000000000040000000000000000000000000000000000000000001000000000000000004000000000000000000000000000000000000000000000000000000000000000000000000000000000000000000000000000000000000000000000000000000000000000000000000000000000000000000000000000000000000000000000000000000000000000000000000000000000000000000000000000000000000000000000000000000000200000000000000000000000000000000000000000000000000000000000000000000",
      "type": "0x0",
      "transactionHash": "0x694b5c94967289ad9d69f5c62c0909ff849f2f94f63c41fa09dcf7d888950e2c",
      "transactionIndex": "0xa5",
      "blockHash": "0x60cc2fc9857916ed021c9ced70a841af1700cc0b7decd6b84c0710620f643db3",
      "blockNumber": "0x581882",
      "gasUsed": "0x63d9",
      "effectiveGasPrice": "0x13078aceb",
      "from": "0x5803cdb747e1552be21c5fca63228aa3d2622873",
      "to": "0x6e821cb51fa7a81c213452b1dfc9d7f211c13c08",
      "contractAddress": null
    }
  ],
  "libraries": [],
  "pending": [],
  "returns": {},
  "timestamp": 1714094008,
  "chain": 11155111,
  "commit": "9c02021"
}