{
  "transactions": [
    {
      "hash": "0xeb8b5ea1df6fa8d8031d075233affefd8be0f55f04de60cc0a820357f3c4a98e",
      "transactionType": "CALL",
      "contractName": null,
      "contractAddress": "0x6e821cb51fa7a81c213452b1dfc9d7f211c13c08",
      "function": "setPrice(address,uint256)",
      "arguments": [
        "0x37099Ba4DfeBBf0F898a90431FF66AeA434AD435",
        "10000"
      ],
      "transaction": {
        "from": "0x5803cdb747e1552be21c5fca63228aa3d2622873",
        "to": "0x6e821cb51fa7a81c213452b1dfc9d7f211c13c08",
        "gas": "0xf548",
        "value": "0x0",
        "input": "0x00e4768b00000000000000000000000037099ba4dfebbf0f898a90431ff66aea434ad4350000000000000000000000000000000000000000000000000000000000002710",
        "nonce": "0x31",
        "chainId": "0xaa36a7",
        "accessList": null,
        "type": null
      },
      "additionalContracts": [],
      "isFixedGasLimit": false
    }
  ],
  "receipts": [
    {
      "status": "0x1",
      "cumulativeGasUsed": "0x167f791",
      "logs": [
        {
          "address": "0x6e821cb51fa7a81c213452b1dfc9d7f211c13c08",
          "topics": [
            "0x4f789d71cf9bf031ea385e257e27301375dc3ceca1da7c27aae67810ecdc6a52"
          ],
          "data": "0x00000000000000000000000037099ba4dfebbf0f898a90431ff66aea434ad4350000000000000000000000000000000000000000000000000000000000002710",
          "blockHash": "0x0ee8c45edc910daad3df1354bb56c189bc1c62044362bef5797d65e627ad1aa0",
          "blockNumber": "0x5801f1",
          "transactionHash": "0xeb8b5ea1df6fa8d8031d075233affefd8be0f55f04de60cc0a820357f3c4a98e",
          "transactionIndex": "0x5c",
          "logIndex": "0x90",
          "removed": false
        }
      ],
      "logsBloom": "0x00000000000000000000000000000000000000000000040000000000000000000000000000000000000000000000000800000000000040000000000000000000000000000000000000000001000000000000000004000000000000000000000000000000000000000000000000000000000000000000000000000000000000000000000000000000000000000000000000000000000000000000000000000000000000000000000000000000000000000000000000000000000000000000000000000000000000000000000000000000000000000000000000000000000200000000000000000000000000000000000000000000000000000000000000000000",
      "type": "0x2",
      "transactionHash": "0xeb8b5ea1df6fa8d8031d075233affefd8be0f55f04de60cc0a820357f3c4a98e",
      "transactionIndex": "0x5c",
      "blockHash": "0x0ee8c45edc910daad3df1354bb56c189bc1c62044362bef5797d65e627ad1aa0",
      "blockNumber": "0x5801f1",
      "gasUsed": "0xb195",
      "effectiveGasPrice": "0x5634e22a",
      "from": "0x5803cdb747e1552be21c5fca63228aa3d2622873",
      "to": "0x6e821cb51fa7a81c213452b1dfc9d7f211c13c08",
      "contractAddress": null
    }
  ],
  "libraries": [],
  "pending": [],
  "returns": {},
  "timestamp": 1714024294,
  "chain": 11155111,
  "commit": "9c02021"
}