{
  "transactions": [
    {
      "hash": "0x776f1c58719bb6b7257675c020255c1641a36d65bb01186b715ab6c489d0dc37",
      "transactionType": "CALL",
      "contractName": null,
      "contractAddress": "0x6e821cb51fa7a81c213452b1dfc9d7f211c13c08",
      "function": "setPrice(address,uint256)",
      "arguments": [
        "0x920EC16CeB2A6bDf4cbdAe65Aa40eE07F73f52E7",
        "10000"
      ],
      "transaction": {
        "from": "0x5803cdb747e1552be21c5fca63228aa3d2622873",
        "to": "0x6e821cb51fa7a81c213452b1dfc9d7f211c13c08",
        "gas": "0xa205",
        "value": "0x0",
        "input": "0x00e4768b000000000000000000000000920ec16ceb2a6bdf4cbdae65aa40ee07f73f52e70000000000000000000000000000000000000000000000000000000000002710",
        "nonce": "0x51",
        "chainId": "0xaa36a7",
        "accessList": null,
        "type": null
      },
      "additionalContracts": [],
      "isFixedGasLimit": false
    },
    {
      "hash": "0x1bb8f545ecd8bcd49660016e9111b390c408f1dfafa91c4f51a40cecb5cc13e2",
      "transactionType": "CALL",
      "contractName": null,
      "contractAddress": "0x6e821cb51fa7a81c213452b1dfc9d7f211c13c08",
      "function": "setPrice(address,uint256)",
      "arguments": [
        "0x481A61fB7c9EAdDD5069Fe2F6134b22AB8EE6489",
        "10000"
      ],
      "transaction": {
        "from": "0x5803cdb747e1552be21c5fca63228aa3d2622873",
        "to": "0x6e821cb51fa7a81c213452b1dfc9d7f211c13c08",
        "gas": "0x9206",
        "value": "0x0",
        "input": "0x00e4768b000000000000000000000000481a61fb7c9eaddd5069fe2f6134b22ab8ee64890000000000000000000000000000000000000000000000000000000000002710",
        "nonce": "0x52",
        "chainId": "0xaa36a7",
        "accessList": null,
        "type": null
      },
      "additionalContracts": [],
      "isFixedGasLimit": false
    }
  ],
  "receipts": [
    {
      "status": "0x1",
      "cumulativeGasUsed": "0x12852a5",
      "logs": [
        {
          "address": "0x6e821cb51fa7a81c213452b1dfc9d7f211c13c08",
          "topics": [
            "0x4f789d71cf9bf031ea385e257e27301375dc3ceca1da7c27aae67810ecdc6a52"
          ],
          "data": "0x000000000000000000000000920ec16ceb2a6bdf4cbdae65aa40ee07f73f52e70000000000000000000000000000000000000000000000000000000000002710",
          "blockHash": "0x2ebacbddcda417ce9e6f73e14afbb333ff2d05b259b377437ad6e89ba4fe5e11",
          "blockNumber": "0x581a01",
          "transactionHash": "0x776f1c58719bb6b7257675c020255c1641a36d65bb01186b715ab6c489d0dc37",
          "transactionIndex": "0x77",
          "logIndex": "0x7e",
          "removed": false
        }
      ],
      "logsBloom": "0x00000000000000000000000000000000000000000000040000000000000000000000000000000000000000000000000800000000000040000000000000000000000000000000000000000001000000000000000004000000000000000000000000000000000000000000000000000000000000000000000000000000000000000000000000000000000000000000000000000000000000000000000000000000000000000000000000000000000000000000000000000000000000000000000000000000000000000000000000000000000000000000000000000000000200000000000000000000000000000000000000000000000000000000000000000000",
      "type": "0x0",
      "transactionHash": "0x776f1c58719bb6b7257675c020255c1641a36d65bb01186b715ab6c489d0dc37",
      "transactionIndex": "0x77",
      "blockHash": "0x2ebacbddcda417ce9e6f73e14afbb333ff2d05b259b377437ad6e89ba4fe5e11",
      "blockNumber": "0x581a01",
      "gasUsed": "0x6ec9",
      "effectiveGasPrice": "0x733d5034",
      "from": "0x5803cdb747e1552be21c5fca63228aa3d2622873",
      "to": "0x6e821cb51fa7a81c213452b1dfc9d7f211c13c08",
      "contractAddress": null
    },
    {
      "status": "0x1",
      "cumulativeGasUsed": "0x128b67e",
      "logs": [
        {
          "address": "0x6e821cb51fa7a81c213452b1dfc9d7f211c13c08",
          "topics": [
            "0x4f789d71cf9bf031ea385e257e27301375dc3ceca1da7c27aae67810ecdc6a52"
          ],
          "data": "0x000000000000000000000000481a61fb7c9eaddd5069fe2f6134b22ab8ee64890000000000000000000000000000000000000000000000000000000000002710",
          "blockHash": "0x2ebacbddcda417ce9e6f73e14afbb333ff2d05b259b377437ad6e89ba4fe5e11",
          "blockNumber": "0x581a01",
          "transactionHash": "0x1bb8f545ecd8bcd49660016e9111b390c408f1dfafa91c4f51a40cecb5cc13e2",
          "transactionIndex": "0x78",
          "logIndex": "0x7f",
          "removed": false
        }
      ],
      "logsBloom": "0x00000000000000000000000000000000000000000000040000000000000000000000000000000000000000000000000800000000000040000000000000000000000000000000000000000001000000000000000004000000000000000000000000000000000000000000000000000000000000000000000000000000000000000000000000000000000000000000000000000000000000000000000000000000000000000000000000000000000000000000000000000000000000000000000000000000000000000000000000000000000000000000000000000000000200000000000000000000000000000000000000000000000000000000000000000000",
      "type": "0x0",
      "transactionHash": "0x1bb8f545ecd8bcd49660016e9111b390c408f1dfafa91c4f51a40cecb5cc13e2",
      "transactionIndex": "0x78",
      "blockHash": "0x2ebacbddcda417ce9e6f73e14afbb333ff2d05b259b377437ad6e89ba4fe5e11",
      "blockNumber": "0x581a01",
      "gasUsed": "0x63d9",
      "effectiveGasPrice": "0x733d5034",
      "from": "0x5803cdb747e1552be21c5fca63228aa3d2622873",
      "to": "0x6e821cb51fa7a81c213452b1dfc9d7f211c13c08",
      "contractAddress": null
    }
  ],
  "libraries": [],
  "pending": [],
  "returns": {},
  "timestamp": 1714098650,
  "chain": 11155111,
  "commit": "9c02021"
}