{
  "transactions": [
    {
      "hash": "0x66c42ee3bcd3cc2f698eab84ec261b0c4600cc176af54f524325cfdd26cc26d7",
      "transactionType": "CALL",
      "contractName": null,
      "contractAddress": "0x6e821cb51fa7a81c213452b1dfc9d7f211c13c08",
      "function": "setPrice(address,uint256)",
      "arguments": [
        "0xDdc3c94eC1C98c5b3eb1bfa5Bb75294D0C436875",
        "10000"
      ],
      "transaction": {
        "from": "0x5803cdb747e1552be21c5fca63228aa3d2622873",
        "to": "0x6e821cb51fa7a81c213452b1dfc9d7f211c13c08",
        "gas": "0xf548",
        "value": "0x0",
        "input": "0x00e4768b000000000000000000000000ddc3c94ec1c98c5b3eb1bfa5bb75294d0c4368750000000000000000000000000000000000000000000000000000000000002710",
        "nonce": "0x53",
        "chainId": "0xaa36a7",
        "accessList": null,
        "type": null
      },
      "additionalContracts": [],
      "isFixedGasLimit": false
    },
    {
      "hash": "0xd103703184f1cefa67e6fe2777be8a8ad75445fbc5e33b9cd3a7db751ac30fc4",
      "transactionType": "CALL",
      "contractName": null,
      "contractAddress": "0x6e821cb51fa7a81c213452b1dfc9d7f211c13c08",
      "function": "setPrice(address,uint256)",
      "arguments": [
        "0x481A61fB7c9EAdDD5069Fe2F6134b22AB8EE6489",
        "10000"
      ],
      "transaction": {
        "from": "0x5803cdb747e1552be21c5fca63228aa3d2622873",
        "to": "0x6e821cb51fa7a81c213452b1dfc9d7f211c13c08",
        "gas": "0x9206",
        "value": "0x0",
        "input": "0x00e4768b000000000000000000000000481a61fb7c9eaddd5069fe2f6134b22ab8ee64890000000000000000000000000000000000000000000000000000000000002710",
        "nonce": "0x54",
        "chainId": "0xaa36a7",
        "accessList": null,
        "type": null
      },
      "additionalContracts": [],
      "isFixedGasLimit": false
    }
  ],
  "receipts": [
    {
      "status": "0x1",
      "cumulativeGasUsed": "0x95a052",
      "logs": [
        {
          "address": "0x6e821cb51fa7a81c213452b1dfc9d7f211c13c08",
          "topics": [
            "0x4f789d71cf9bf031ea385e257e27301375dc3ceca1da7c27aae67810ecdc6a52"
          ],
          "data": "0x000000000000000000000000ddc3c94ec1c98c5b3eb1bfa5bb75294d0c4368750000000000000000000000000000000000000000000000000000000000002710",
          "blockHash": "0xb8539ac39980d056bf36e9fbcc56da940ca5dad5df1212811d6721159a9a0a94",
          "blockNumber": "0x581a08",
          "transactionHash": "0x66c42ee3bcd3cc2f698eab84ec261b0c4600cc176af54f524325cfdd26cc26d7",
          "transactionIndex": "0x46",
          "logIndex": "0x7c",
          "removed": false
        }
      ],
      "logsBloom": "0x00000000000000000000000000000000000000000000040000000000000000000000000000000000000000000000000800000000000040000000000000000000000000000000000000000001000000000000000004000000000000000000000000000000000000000000000000000000000000000000000000000000000000000000000000000000000000000000000000000000000000000000000000000000000000000000000000000000000000000000000000000000000000000000000000000000000000000000000000000000000000000000000000000000000200000000000000000000000000000000000000000000000000000000000000000000",
      "type": "0x0",
      "transactionHash": "0x66c42ee3bcd3cc2f698eab84ec261b0c4600cc176af54f524325cfdd26cc26d7",
      "transactionIndex": "0x46",
      "blockHash": "0xb8539ac39980d056bf36e9fbcc56da940ca5dad5df1212811d6721159a9a0a94",
      "blockNumber": "0x581a08",
      "gasUsed": "0xb195",
      "effectiveGasPrice": "0x72ce3f32",
      "from": "0x5803cdb747e1552be21c5fca63228aa3d2622873",
      "to": "0x6e821cb51fa7a81c213452b1dfc9d7f211c13c08",
      "contractAddress": null
    },
    {
      "status": "0x1",
      "cumulativeGasUsed": "0x965633",
      "logs": [
        {
          "address": "0x6e821cb51fa7a81c213452b1dfc9d7f211c13c08",
          "topics": [
            "0x4f789d71cf9bf031ea385e257e27301375dc3ceca1da7c27aae67810ecdc6a52"
          ],
          "data": "0x000000000000000000000000481a61fb7c9eaddd5069fe2f6134b22ab8ee64890000000000000000000000000000000000000000000000000000000000002710",
          "blockHash": "0xb8539ac39980d056bf36e9fbcc56da940ca5dad5df1212811d6721159a9a0a94",
          "blockNumber": "0x581a08",
          "transactionHash": "0xd103703184f1cefa67e6fe2777be8a8ad75445fbc5e33b9cd3a7db751ac30fc4",
          "transactionIndex": "0x48",
          "logIndex": "0x7d",
          "removed": false
        }
      ],
      "logsBloom": "0x00000000000000000000000000000000000000000000040000000000000000000000000000000000000000000000000800000000000040000000000000000000000000000000000000000001000000000000000004000000000000000000000000000000000000000000000000000000000000000000000000000000000000000000000000000000000000000000000000000000000000000000000000000000000000000000000000000000000000000000000000000000000000000000000000000000000000000000000000000000000000000000000000000000000200000000000000000000000000000000000000000000000000000000000000000000",
      "type": "0x0",
      "transactionHash": "0xd103703184f1cefa67e6fe2777be8a8ad75445fbc5e33b9cd3a7db751ac30fc4",
      "transactionIndex": "0x48",
      "blockHash": "0xb8539ac39980d056bf36e9fbcc56da940ca5dad5df1212811d6721159a9a0a94",
      "blockNumber": "0x581a08",
      "gasUsed": "0x63d9",
      "effectiveGasPrice": "0x72ce3f32",
      "from": "0x5803cdb747e1552be21c5fca63228aa3d2622873",
      "to": "0x6e821cb51fa7a81c213452b1dfc9d7f211c13c08",
      "contractAddress": null
    }
  ],
  "libraries": [],
  "pending": [],
  "returns": {},
  "timestamp": 1714098730,
  "chain": 11155111,
  "commit": "9c02021"
}