{
  "transactions": [
    {
      "hash": "0x28f04df059ac9a12f85e3c8943e32284e8aeebc83cd80a1d1e7e217a39b10b34",
      "transactionType": "CALL",
      "contractName": null,
      "contractAddress": "0x6e821cb51fa7a81c213452b1dfc9d7f211c13c08",
      "function": "setPrice(address,uint256)",
      "arguments": [
        "0xaE3aeBbC0d0782B54aa0a23469BbcE07C45C7B89",
        "10000"
      ],
      "transaction": {
        "from": "0x5803cdb747e1552be21c5fca63228aa3d2622873",
        "to": "0x6e821cb51fa7a81c213452b1dfc9d7f211c13c08",
        "gas": "0xf548",
        "value": "0x0",
        "input": "0x00e4768b000000000000000000000000ae3aebbc0d0782b54aa0a23469bbce07c45c7b890000000000000000000000000000000000000000000000000000000000002710",
        "nonce": "0x2d",
        "chainId": "0xaa36a7",
        "accessList": null,
        "type": null
      },
      "additionalContracts": [],
      "isFixedGasLimit": false
    }
  ],
  "receipts": [
    {
      "status": "0x1",
      "cumulativeGasUsed": "0x85776b",
      "logs": [
        {
          "address": "0x6e821cb51fa7a81c213452b1dfc9d7f211c13c08",
          "topics": [
            "0x4f789d71cf9bf031ea385e257e27301375dc3ceca1da7c27aae67810ecdc6a52"
          ],
          "data": "0x000000000000000000000000ae3aebbc0d0782b54aa0a23469bbce07c45c7b890000000000000000000000000000000000000000000000000000000000002710",
          "blockHash": "0xabc89759018d680caeecdb086b4cfd6ebec386f2e8ad0ea4fb1cb00465517965",
          "blockNumber": "0x58016b",
          "transactionHash": "0x28f04df059ac9a12f85e3c8943e32284e8aeebc83cd80a1d1e7e217a39b10b34",
          "transactionIndex": "0x4d",
          "logIndex": "0x5b",
          "removed": false
        }
      ],
      "logsBloom": "0x00000000000000000000000000000000000000000000040000000000000000000000000000000000000000000000000800000000000040000000000000000000000000000000000000000001000000000000000004000000000000000000000000000000000000000000000000000000000000000000000000000000000000000000000000000000000000000000000000000000000000000000000000000000000000000000000000000000000000000000000000000000000000000000000000000000000000000000000000000000000000000000000000000000000200000000000000000000000000000000000000000000000000000000000000000000",
      "type": "0x2",
      "transactionHash": "0x28f04df059ac9a12f85e3c8943e32284e8aeebc83cd80a1d1e7e217a39b10b34",
      "transactionIndex": "0x4d",
      "blockHash": "0xabc89759018d680caeecdb086b4cfd6ebec386f2e8ad0ea4fb1cb00465517965",
      "blockNumber": "0x58016b",
      "gasUsed": "0xb195",
      "effectiveGasPrice": "0x460a2fe6",
      "from": "0x5803cdb747e1552be21c5fca63228aa3d2622873",
      "to": "0x6e821cb51fa7a81c213452b1dfc9d7f211c13c08",
      "contractAddress": null
    }
  ],
  "libraries": [],
  "pending": [],
  "returns": {},
  "timestamp": 1714022686,
  "chain": 11155111,
  "commit": "9c02021"
}