{
  "transactions": [
    {
      "hash": "0xab8b86cc89156a17e178ac6a29e44ee9a457f58ac4e457ee193056bbf2ac4fbf",
      "transactionType": "CALL",
      "contractName": null,
      "contractAddress": "0x6e821cb51fa7a81c213452b1dfc9d7f211c13c08",
      "function": "setPrice(address,uint256)",
      "arguments": [
        "0xDdc3c94eC1C98c5b3eb1bfa5Bb75294D0C436875",
        "100"
      ],
      "transaction": {
        "from": "0x5803cdb747e1552be21c5fca63228aa3d2622873",
        "to": "0x6e821cb51fa7a81c213452b1dfc9d7f211c13c08",
        "gas": "0x98f4",
        "value": "0x0",
        "input": "0x00e4768b000000000000000000000000ddc3c94ec1c98c5b3eb1bfa5bb75294d0c4368750000000000000000000000000000000000000000000000000000000000000064",
        "nonce": "0x55",
        "chainId": "0xaa36a7",
        "accessList": null,
        "type": null
      },
      "additionalContracts": [],
      "isFixedGasLimit": false
    },
    {
      "hash": "0x13fa977f76db7503c3604f1d0afbaebc7e02e05be7714eba63e24c465143bc2e",
      "transactionType": "CALL",
      "contractName": null,
      "contractAddress": "0x6e821cb51fa7a81c213452b1dfc9d7f211c13c08",
      "function": "setPrice(address,uint256)",
      "arguments": [
        "0x481A61fB7c9EAdDD5069Fe2F6134b22AB8EE6489",
        "10000"
      ],
      "transaction": {
        "from": "0x5803cdb747e1552be21c5fca63228aa3d2622873",
        "to": "0x6e821cb51fa7a81c213452b1dfc9d7f211c13c08",
        "gas": "0x9206",
        "value": "0x0",
        "input": "0x00e4768b000000000000000000000000481a61fb7c9eaddd5069fe2f6134b22ab8ee64890000000000000000000000000000000000000000000000000000000000002710",
        "nonce": "0x56",
        "chainId": "0xaa36a7",
        "accessList": null,
        "type": null
      },
      "additionalContracts": [],
      "isFixedGasLimit": false
    }
  ],
  "receipts": [
    {
      "status": "0x1",
      "cumulativeGasUsed": "0xd567c0",
      "logs": [
        {
          "address": "0x6e821cb51fa7a81c213452b1dfc9d7f211c13c08",
          "topics": [
            "0x4f789d71cf9bf031ea385e257e27301375dc3ceca1da7c27aae67810ecdc6a52"
          ],
          "data": "0x000000000000000000000000ddc3c94ec1c98c5b3eb1bfa5bb75294d0c4368750000000000000000000000000000000000000000000000000000000000000064",
          "blockHash": "0xf9718c322fd8dc08070a86ee28bfdf9dadbd162f6e9ec3f1cabfe86eff4982a8",
          "blockNumber": "0x581a14",
          "transactionHash": "0xab8b86cc89156a17e178ac6a29e44ee9a457f58ac4e457ee193056bbf2ac4fbf",
          "transactionIndex": "0x7a",
          "logIndex": "0xa3",
          "removed": false
        }
      ],
      "logsBloom": "0x00000000000000000000000000000000000000000000040000000000000000000000000000000000000000000000000800000000000040000000000000000000000000000000000000000001000000000000000004000000000000000000000000000000000000000000000000000000000000000000000000000000000000000000000000000000000000000000000000000000000000000000000000000000000000000000000000000000000000000000000000000000000000000000000000000000000000000000000000000000000000000000000000000000000200000000000000000000000000000000000000000000000000000000000000000000",
      "type": "0x0",
      "transactionHash": "0xab8b86cc89156a17e178ac6a29e44ee9a457f58ac4e457ee193056bbf2ac4fbf",
      "transactionIndex": "0x7a",
      "blockHash": "0xf9718c322fd8dc08070a86ee28bfdf9dadbd162f6e9ec3f1cabfe86eff4982a8",
      "blockNumber": "0x581a14",
      "gasUsed": "0x6ebd",
      "effectiveGasPrice": "0x72119e10",
      "from": "0x5803cdb747e1552be21c5fca63228aa3d2622873",
      "to": "0x6e821cb51fa7a81c213452b1dfc9d7f211c13c08",
      "contractAddress": null
    },
    {
      "status": "0x1",
      "cumulativeGasUsed": "0xd5cb99",
      "logs": [
        {
          "address": "0x6e821cb51fa7a81c213452b1dfc9d7f211c13c08",
          "topics": [
            "0x4f789d71cf9bf031ea385e257e27301375dc3ceca1da7c27aae67810ecdc6a52"
          ],
          "data": "0x000000000000000000000000481a61fb7c9eaddd5069fe2f6134b22ab8ee64890000000000000000000000000000000000000000000000000000000000002710",
          "blockHash": "0xf9718c322fd8dc08070a86ee28bfdf9dadbd162f6e9ec3f1cabfe86eff4982a8",
          "blockNumber": "0x581a14",
          "transactionHash": "0x13fa977f76db7503c3604f1d0afbaebc7e02e05be7714eba63e24c465143bc2e",
          "transactionIndex": "0x7b",
          "logIndex": "0xa4",
          "removed": false
        }
      ],
      "logsBloom": "0x00000000000000000000000000000000000000000000040000000000000000000000000000000000000000000000000800000000000040000000000000000000000000000000000000000001000000000000000004000000000000000000000000000000000000000000000000000000000000000000000000000000000000000000000000000000000000000000000000000000000000000000000000000000000000000000000000000000000000000000000000000000000000000000000000000000000000000000000000000000000000000000000000000000000200000000000000000000000000000000000000000000000000000000000000000000",
      "type": "0x0",
      "transactionHash": "0x13fa977f76db7503c3604f1d0afbaebc7e02e05be7714eba63e24c465143bc2e",
      "transactionIndex": "0x7b",
      "blockHash": "0xf9718c322fd8dc08070a86ee28bfdf9dadbd162f6e9ec3f1cabfe86eff4982a8",
      "blockNumber": "0x581a14",
      "gasUsed": "0x63d9",
      "effectiveGasPrice": "0x72119e10",
      "from": "0x5803cdb747e1552be21c5fca63228aa3d2622873",
      "to": "0x6e821cb51fa7a81c213452b1dfc9d7f211c13c08",
      "contractAddress": null
    }
  ],
  "libraries": [],
  "pending": [],
  "returns": {},
  "timestamp": 1714098875,
  "chain": 11155111,
  "commit": "9c02021"
}