{
  "transactions": [
    {
      "hash": "0xe776af41742e39e735d35e5a6e0fe5a9d79594253ebc27afeca1ea2a24db5574",
      "transactionType": "CALL",
      "contractName": null,
      "contractAddress": "0x6e821cb51fa7a81c213452b1dfc9d7f211c13c08",
      "function": "setPrice(address,uint256)",
      "arguments": [
        "0x6dA137Bfed824e538d23C030692FCf16B8940D5b",
        "10000"
      ],
      "transaction": {
        "from": "0x5803cdb747e1552be21c5fca63228aa3d2622873",
        "to": "0x6e821cb51fa7a81c213452b1dfc9d7f211c13c08",
        "gas": "0xf548",
        "value": "0x0",
        "input": "0x00e4768b0000000000000000000000006da137bfed824e538d23c030692fcf16b8940d5b0000000000000000000000000000000000000000000000000000000000002710",
        "nonce": "0x2b",
        "chainId": "0xaa36a7",
        "accessList": null,
        "type": null
      },
      "additionalContracts": [],
      "isFixedGasLimit": false
    }
  ],
  "receipts": [
    {
      "status": "0x1",
      "cumulativeGasUsed": "0x776fff",
      "logs": [
        {
          "address": "0x6e821cb51fa7a81c213452b1dfc9d7f211c13c08",
          "topics": [
            "0x4f789d71cf9bf031ea385e257e27301375dc3ceca1da7c27aae67810ecdc6a52"
          ],
          "data": "0x0000000000000000000000006da137bfed824e538d23c030692fcf16b8940d5b0000000000000000000000000000000000000000000000000000000000002710",
          "blockHash": "0x563e7ef12b19f485e8321520c424ac993e20855a7ace41984e50973e4f1d4fdd",
          "blockNumber": "0x58010c",
          "transactionHash": "0xe776af41742e39e735d35e5a6e0fe5a9d79594253ebc27afeca1ea2a24db5574",
          "transactionIndex": "0x44",
          "logIndex": "0x5f",
          "removed": false
        }
      ],
      "logsBloom": "0x00000000000000000000000000000000000000000000040000000000000000000000000000000000000000000000000800000000000040000000000000000000000000000000000000000001000000000000000004000000000000000000000000000000000000000000000000000000000000000000000000000000000000000000000000000000000000000000000000000000000000000000000000000000000000000000000000000000000000000000000000000000000000000000000000000000000000000000000000000000000000000000000000000000000200000000000000000000000000000000000000000000000000000000000000000000",
      "type": "0x2",
      "transactionHash": "0xe776af41742e39e735d35e5a6e0fe5a9d79594253ebc27afeca1ea2a24db5574",
      "transactionIndex": "0x44",
      "blockHash": "0x563e7ef12b19f485e8321520c424ac993e20855a7ace41984e50973e4f1d4fdd",
      "blockNumber": "0x58010c",
      "gasUsed": "0xb195",
      "effectiveGasPrice": "0x48830d30",
      "from": "0x5803cdb747e1552be21c5fca63228aa3d2622873",
      "to": "0x6e821cb51fa7a81c213452b1dfc9d7f211c13c08",
      "contractAddress": null
    }
  ],
  "libraries": [],
  "pending": [],
  "returns": {},
  "timestamp": 1714021549,
  "chain": 11155111,
  "commit": "9c02021"
}