{
  "transactions": [
    {
      "hash": "0xcace740ce19d3ae5da3d61ad5ed8908fcb735c1fdfcc574a7254fc64282da9ab",
      "transactionType": "CALL",
      "contractName": null,
      "contractAddress": "0x6e821cb51fa7a81c213452b1dfc9d7f211c13c08",
      "function": "setPrice(address,uint256)",
      "arguments": [
        "0x42B1925d95Dc2D4cD6Ed2ebBb9aa5ba93EeC3c59",
        "10000"
      ],
      "transaction": {
        "from": "0x5803cdb747e1552be21c5fca63228aa3d2622873",
        "to": "0x6e821cb51fa7a81c213452b1dfc9d7f211c13c08",
        "gas": "0x9206",
        "value": "0x0",
        "input": "0x00e4768b00000000000000000000000042b1925d95dc2d4cd6ed2ebbb9aa5ba93eec3c590000000000000000000000000000000000000000000000000000000000002710",
        "nonce": "0x1b",
        "chainId": "0xaa36a7",
        "accessList": null,
        "type": null
      },
      "additionalContracts": [],
      "isFixedGasLimit": false
    },
    {
      "hash": "0x0ff0008103ba6b3e21a0494034e93708a0b7268fb8ec4b726514e98da35fc9e6",
      "transactionType": "CALL",
      "contractName": null,
      "contractAddress": "0x6e821cb51fa7a81c213452b1dfc9d7f211c13c08",
      "function": "setPrice(address,uint256)",
      "arguments": [
        "0xd905d7cf21c771ddbAC9f0A7236ddFd2a7e63726",
        "10000"
      ],
      "transaction": {
        "from": "0x5803cdb747e1552be21c5fca63228aa3d2622873",
        "to": "0x6e821cb51fa7a81c213452b1dfc9d7f211c13c08",
        "gas": "0xf548",
        "value": "0x0",
        "input": "0x00e4768b000000000000000000000000d905d7cf21c771ddbac9f0a7236ddfd2a7e637260000000000000000000000000000000000000000000000000000000000002710",
        "nonce": "0x1c",
        "chainId": "0xaa36a7",
        "accessList": null,
        "type": null
      },
      "additionalContracts": [],
      "isFixedGasLimit": false
    }
  ],
  "receipts": [
    {
      "status": "0x1",
      "cumulativeGasUsed": "0xc9ef06",
      "logs": [
        {
          "address": "0x6e821cb51fa7a81c213452b1dfc9d7f211c13c08",
          "topics": [
            "0x4f789d71cf9bf031ea385e257e27301375dc3ceca1da7c27aae67810ecdc6a52"
          ],
          "data": "0x00000000000000000000000042b1925d95dc2d4cd6ed2ebbb9aa5ba93eec3c590000000000000000000000000000000000000000000000000000000000002710",
          "blockHash": "0x1832d63705e86677a51fd0d9fdcc2f0e944b0f1fd130963781bdd989f62b70fd",
          "blockNumber": "0x57ff24",
          "transactionHash": "0xcace740ce19d3ae5da3d61ad5ed8908fcb735c1fdfcc574a7254fc64282da9ab",
          "transactionIndex": "0x72",
          "logIndex": "0xa4",
          "removed": false
        }
      ],
      "logsBloom": "0x00000000000000000000000000000000000000000000040000000000000000000000000000000000000000000000000800000000000040000000000000000000000000000000000000000001000000000000000004000000000000000000000000000000000000000000000000000000000000000000000000000000000000000000000000000000000000000000000000000000000000000000000000000000000000000000000000000000000000000000000000000000000000000000000000000000000000000000000000000000000000000000000000000000000200000000000000000000000000000000000000000000000000000000000000000000",
      "type": "0x2",
      "transactionHash": "0xcace740ce19d3ae5da3d61ad5ed8908fcb735c1fdfcc574a7254fc64282da9ab",
      "transactionIndex": "0x72",
      "blockHash": "0x1832d63705e86677a51fd0d9fdcc2f0e944b0f1fd130963781bdd989f62b70fd",
      "blockNumber": "0x57ff24",
      "gasUsed": "0x63d9",
      "effectiveGasPrice": "0x3b9b5600",
      "from": "0x5803cdb747e1552be21c5fca63228aa3d2622873",
      "to": "0x6e821cb51fa7a81c213452b1dfc9d7f211c13c08",
      "contractAddress": null
    },
    {
      "status": "0x1",
      "cumulativeGasUsed": "0xcaa09b",
      "logs": [
        {
          "address": "0x6e821cb51fa7a81c213452b1dfc9d7f211c13c08",
          "topics": [
            "0x4f789d71cf9bf031ea385e257e27301375dc3ceca1da7c27aae67810ecdc6a52"
          ],
          "data": "0x000000000000000000000000d905d7cf21c771ddbac9f0a7236ddfd2a7e637260000000000000000000000000000000000000000000000000000000000002710",
          "blockHash": "0x1832d63705e86677a51fd0d9fdcc2f0e944b0f1fd130963781bdd989f62b70fd",
          "blockNumber": "0x57ff24",
          "transactionHash": "0x0ff0008103ba6b3e21a0494034e93708a0b7268fb8ec4b726514e98da35fc9e6",
          "transactionIndex": "0x73",
          "logIndex": "0xa5",
          "removed": false
        }
      ],
      "logsBloom": "0x00000000000000000000000000000000000000000000040000000000000000000000000000000000000000000000000800000000000040000000000000000000000000000000000000000001000000000000000004000000000000000000000000000000000000000000000000000000000000000000000000000000000000000000000000000000000000000000000000000000000000000000000000000000000000000000000000000000000000000000000000000000000000000000000000000000000000000000000000000000000000000000000000000000000200000000000000000000000000000000000000000000000000000000000000000000",
      "type": "0x2",
      "transactionHash": "0x0ff0008103ba6b3e21a0494034e93708a0b7268fb8ec4b726514e98da35fc9e6",
      "transactionIndex": "0x73",
      "blockHash": "0x1832d63705e86677a51fd0d9fdcc2f0e944b0f1fd130963781bdd989f62b70fd",
      "blockNumber": "0x57ff24",
      "gasUsed": "0xb195",
      "effectiveGasPrice": "0x3b9b5600",
      "from": "0x5803cdb747e1552be21c5fca63228aa3d2622873",
      "to": "0x6e821cb51fa7a81c213452b1dfc9d7f211c13c08",
      "contractAddress": null
    }
  ],
  "libraries": [],
  "pending": [],
  "returns": {},
  "timestamp": 1714015624,
  "chain": 11155111,
  "commit": "9c02021"
}