{
  "transactions": [
    {
      "hash": "0x30d76807906fcb30092833324045e2b424d65dcb7fd92ed5d23a209a81bf8bc1",
      "transactionType": "CALL",
      "contractName": null,
      "contractAddress": "0x6e821cb51fa7a81c213452b1dfc9d7f211c13c08",
      "function": "setPrice(address,uint256)",
      "arguments": [
        "0x7E300ECb71514bb023BA2CC76671bb9FacdDEC97",
        "10000"
      ],
      "transaction": {
        "from": "0x5803cdb747e1552be21c5fca63228aa3d2622873",
        "to": "0x6e821cb51fa7a81c213452b1dfc9d7f211c13c08",
        "gas": "0xf548",
        "value": "0x0",
        "input": "0x00e4768b0000000000000000000000007e300ecb71514bb023ba2cc76671bb9facddec970000000000000000000000000000000000000000000000000000000000002710",
        "nonce": "0x24",
        "chainId": "0xaa36a7",
        "accessList": null,
        "type": null
      },
      "additionalContracts": [],
      "isFixedGasLimit": false
    },
    {
      "hash": "0xa21b608d221765e0e2fecb0e74ba2cd3b9bf4a74b9337036b0f1d695e1cd6053",
      "transactionType": "CALL",
      "contractName": null,
      "contractAddress": "0x6e821cb51fa7a81c213452b1dfc9d7f211c13c08",
      "function": "setPrice(address,uint256)",
      "arguments": [
        "0xd905d7cf21c771ddbAC9f0A7236ddFd2a7e63726",
        "10000"
      ],
      "transaction": {
        "from": "0x5803cdb747e1552be21c5fca63228aa3d2622873",
        "to": "0x6e821cb51fa7a81c213452b1dfc9d7f211c13c08",
        "gas": "0x9206",
        "value": "0x0",
        "input": "0x00e4768b000000000000000000000000d905d7cf21c771ddbac9f0a7236ddfd2a7e637260000000000000000000000000000000000000000000000000000000000002710",
        "nonce": "0x25",
        "chainId": "0xaa36a7",
        "accessList": null,
        "type": null
      },
      "additionalContracts": [],
      "isFixedGasLimit": false
    }
  ],
  "receipts": [
    {
      "status": "0x1",
      "cumulativeGasUsed": "0x5db16a",
      "logs": [
        {
          "address": "0x6e821cb51fa7a81c213452b1dfc9d7f211c13c08",
          "topics": [
            "0x4f789d71cf9bf031ea385e257e27301375dc3ceca1da7c27aae67810ecdc6a52"
          ],
          "data": "0x0000000000000000000000007e300ecb71514bb023ba2cc76671bb9facddec970000000000000000000000000000000000000000000000000000000000002710",
          "blockHash": "0x2c304a5bc71aebd5714fc3b5e847b4463720037bab5839d3fe7835e27c11c305",
          "blockNumber": "0x58000a",
          "transactionHash": "0x30d76807906fcb30092833324045e2b424d65dcb7fd92ed5d23a209a81bf8bc1",
          "transactionIndex": "0x36",
          "logIndex": "0x52",
          "removed": false
        }
      ],
      "logsBloom": "0x00000000000000000000000000000000000000000000040000000000000000000000000000000000000000000000000800000000000040000000000000000000000000000000000000000001000000000000000004000000000000000000000000000000000000000000000000000000000000000000000000000000000000000000000000000000000000000000000000000000000000000000000000000000000000000000000000000000000000000000000000000000000000000000000000000000000000000000000000000000000000000000000000000000000200000000000000000000000000000000000000000000000000000000000000000000",
      "type": "0x2",
      "transactionHash": "0x30d76807906fcb30092833324045e2b424d65dcb7fd92ed5d23a209a81bf8bc1",
      "transactionIndex": "0x36",
      "blockHash": "0x2c304a5bc71aebd5714fc3b5e847b4463720037bab5839d3fe7835e27c11c305",
      "blockNumber": "0x58000a",
      "gasUsed": "0xb195",
      "effectiveGasPrice": "0x478dec88",
      "from": "0x5803cdb747e1552be21c5fca63228aa3d2622873",
      "to": "0x6e821cb51fa7a81c213452b1dfc9d7f211c13c08",
      "contractAddress": null
    },
    {
      "status": "0x1",
      "cumulativeGasUsed": "0x5e1543",
      "logs": [
        {
          "address": "0x6e821cb51fa7a81c213452b1dfc9d7f211c13c08",
          "topics": [
            "0x4f789d71cf9bf031ea385e257e27301375dc3ceca1da7c27aae67810ecdc6a52"
          ],
          "data": "0x000000000000000000000000d905d7cf21c771ddbac9f0a7236ddfd2a7e637260000000000000000000000000000000000000000000000000000000000002710",
          "blockHash": "0x2c304a5bc71aebd5714fc3b5e847b4463720037bab5839d3fe7835e27c11c305",
          "blockNumber": "0x58000a",
          "transactionHash": "0xa21b608d221765e0e2fecb0e74ba2cd3b9bf4a74b9337036b0f1d695e1cd6053",
          "transactionIndex": "0x37",
          "logIndex": "0x53",
          "removed": false
        }
      ],
      "logsBloom": "0x00000000000000000000000000000000000000000000040000000000000000000000000000000000000000000000000800000000000040000000000000000000000000000000000000000001000000000000000004000000000000000000000000000000000000000000000000000000000000000000000000000000000000000000000000000000000000000000000000000000000000000000000000000000000000000000000000000000000000000000000000000000000000000000000000000000000000000000000000000000000000000000000000000000000200000000000000000000000000000000000000000000000000000000000000000000",
      "type": "0x2",
      "transactionHash": "0xa21b608d221765e0e2fecb0e74ba2cd3b9bf4a74b9337036b0f1d695e1cd6053",
      "transactionIndex": "0x37",
      "blockHash": "0x2c304a5bc71aebd5714fc3b5e847b4463720037bab5839d3fe7835e27c11c305",
      "blockNumber": "0x58000a",
      "gasUsed": "0x63d9",
      "effectiveGasPrice": "0x478dec88",
      "from": "0x5803cdb747e1552be21c5fca63228aa3d2622873",
      "to": "0x6e821cb51fa7a81c213452b1dfc9d7f211c13c08",
      "contractAddress": null
    }
  ],
  "libraries": [],
  "pending": [],
  "returns": {},
  "timestamp": 1714018431,
  "chain": 11155111,
  "commit": "9c02021"
}