{
  "transactions": [
    {
      "hash": "0x7069d334bc4a563ccfe63a63dfba847136f0243e7fecf8a944110a4f4d69fcc1",
      "transactionType": "CALL",
      "contractName": null,
      "contractAddress": "0x6e821cb51fa7a81c213452b1dfc9d7f211c13c08",
      "function": "setPrice(address,uint256)",
      "arguments": [
        "0x37099Ba4DfeBBf0F898a90431FF66AeA434AD435",
        "10000"
      ],
      "transaction": {
        "from": "0x5803cdb747e1552be21c5fca63228aa3d2622873",
        "to": "0x6e821cb51fa7a81c213452b1dfc9d7f211c13c08",
        "gas": "0x9206",
        "value": "0x0",
        "input": "0x00e4768b00000000000000000000000037099ba4dfebbf0f898a90431ff66aea434ad4350000000000000000000000000000000000000000000000000000000000002710",
        "nonce": "0x33",
        "chainId": "0xaa36a7",
        "accessList": null,
        "type": null
      },
      "additionalContracts": [],
      "isFixedGasLimit": false
    }
  ],
  "receipts": [
    {
      "status": "0x1",
      "cumulativeGasUsed": "0x9ae145",
      "logs": [
        {
          "address": "0x6e821cb51fa7a81c213452b1dfc9d7f211c13c08",
          "topics": [
            "0x4f789d71cf9bf031ea385e257e27301375dc3ceca1da7c27aae67810ecdc6a52"
          ],
          "data": "0x00000000000000000000000037099ba4dfebbf0f898a90431ff66aea434ad4350000000000000000000000000000000000000000000000000000000000002710",
          "blockHash": "0x07841a0198be85abfcae66e14553f6b2126a58097bc13a2fa3841e5aa7dd50ed",
          "blockNumber": "0x580219",
          "transactionHash": "0x7069d334bc4a563ccfe63a63dfba847136f0243e7fecf8a944110a4f4d69fcc1",
          "transactionIndex": "0x3b",
          "logIndex": "0x6e",
          "removed": false
        }
      ],
      "logsBloom": "0x00000000000000000000000000000000000000000000040000000000000000000000000000000000000000000000000800000000000040000000000000000000000000000000000000000001000000000000000004000000000000000000000000000000000000000000000000000000000000000000000000000000000000000000000000000000000000000000000000000000000000000000000000000000000000000000000000000000000000000000000000000000000000000000000000000000000000000000000000000000000000000000000000000000000200000000000000000000000000000000000000000000000000000000000000000000",
      "type": "0x0",
      "transactionHash": "0x7069d334bc4a563ccfe63a63dfba847136f0243e7fecf8a944110a4f4d69fcc1",
      "transactionIndex": "0x3b",
      "blockHash": "0x07841a0198be85abfcae66e14553f6b2126a58097bc13a2fa3841e5aa7dd50ed",
      "blockNumber": "0x580219",
      "gasUsed": "0x63d9",
      "effectiveGasPrice": "0x64638f96",
      "from": "0x5803cdb747e1552be21c5fca63228aa3d2622873",
      "to": "0x6e821cb51fa7a81c213452b1dfc9d7f211c13c08",
      "contractAddress": null
    }
  ],
  "libraries": [],
  "pending": [],
  "returns": {},
  "timestamp": 1714024779,
  "chain": 11155111,
  "commit": "9c02021"
}