{
  "transactions": [
    {
      "hash": "0x20ef00e5b398e7ced4c4d024d5e9815df9c8f2884c7affe4db4d1fe80fa0bdb0",
      "transactionType": "CALL",
      "contractName": null,
      "contractAddress": "0x6e821cb51fa7a81c213452b1dfc9d7f211c13c08",
      "function": "setPrice(address,uint256)",
      "arguments": [
        "0xCAE9f149286de9a4e444CEa77c2Ad1C12F7D47d5",
        "10000"
      ],
      "transaction": {
        "from": "0x5803cdb747e1552be21c5fca63228aa3d2622873",
        "to": "0x6e821cb51fa7a81c213452b1dfc9d7f211c13c08",
        "gas": "0xf548",
        "value": "0x0",
        "input": "0x00e4768b000000000000000000000000cae9f149286de9a4e444cea77c2ad1c12f7d47d50000000000000000000000000000000000000000000000000000000000002710",
        "nonce": "0x36",
        "chainId": "0xaa36a7",
        "accessList": null,
        "type": null
      },
      "additionalContracts": [],
      "isFixedGasLimit": false
    },
    {
      "hash": "0x810a9176e3a69c52297ab0c7598afe3d0e0c58d0697583fc83df2568af6579f8",
      "transactionType": "CALL",
      "contractName": null,
      "contractAddress": "0x6e821cb51fa7a81c213452b1dfc9d7f211c13c08",
      "function": "setPrice(address,uint256)",
      "arguments": [
        "0xd905d7cf21c771ddbAC9f0A7236ddFd2a7e63726",
        "10000"
      ],
      "transaction": {
        "from": "0x5803cdb747e1552be21c5fca63228aa3d2622873",
        "to": "0x6e821cb51fa7a81c213452b1dfc9d7f211c13c08",
        "gas": "0x9206",
        "value": "0x0",
        "input": "0x00e4768b000000000000000000000000d905d7cf21c771ddbac9f0a7236ddfd2a7e637260000000000000000000000000000000000000000000000000000000000002710",
        "nonce": "0x37",
        "chainId": "0xaa36a7",
        "accessList": null,
        "type": null
      },
      "additionalContracts": [],
      "isFixedGasLimit": false
    }
  ],
  "receipts": [
    {
      "status": "0x1",
      "cumulativeGasUsed": "0x7c41a2",
      "logs": [
        {
          "address": "0x6e821cb51fa7a81c213452b1dfc9d7f211c13c08",
          "topics": [
            "0x4f789d71cf9bf031ea385e257e27301375dc3ceca1da7c27aae67810ecdc6a52"
          ],
          "data": "0x000000000000000000000000cae9f149286de9a4e444cea77c2ad1c12f7d47d50000000000000000000000000000000000000000000000000000000000002710",
          "blockHash": "0x31e49ac36300a6598ba18e45fad342f255bf8f3dfb3db1c55a1cf4bbf8bd4a9e",
          "blockNumber": "0x581799",
          "transactionHash": "0x20ef00e5b398e7ced4c4d024d5e9815df9c8f2884c7affe4db4d1fe80fa0bdb0",
          "transactionIndex": "0x5d",
          "logIndex": "0x6c",
          "removed": false
        }
      ],
      "logsBloom": "0x00000000000000000000000000000000000000000000040000000000000000000000000000000000000000000000000800000000000040000000000000000000000000000000000000000001000000000000000004000000000000000000000000000000000000000000000000000000000000000000000000000000000000000000000000000000000000000000000000000000000000000000000000000000000000000000000000000000000000000000000000000000000000000000000000000000000000000000000000000000000000000000000000000000000200000000000000000000000000000000000000000000000000000000000000000000",
      "type": "0x0",
      "transactionHash": "0x20ef00e5b398e7ced4c4d024d5e9815df9c8f2884c7affe4db4d1fe80fa0bdb0",
      "transactionIndex": "0x5d",
      "blockHash": "0x31e49ac36300a6598ba18e45fad342f255bf8f3dfb3db1c55a1cf4bbf8bd4a9e",
      "blockNumber": "0x581799",
      "gasUsed": "0xb195",
      "effectiveGasPrice": "0xaabfa638",
      "from": "0x5803cdb747e1552be21c5fca63228aa3d2622873",
      "to": "0x6e821cb51fa7a81c213452b1dfc9d7f211c13c08",
      "contractAddress": null
    },
    {
      "status": "0x1",
      "cumulativeGasUsed": "0x868c00",
      "logs": [
        {
          "address": "0x6e821cb51fa7a81c213452b1dfc9d7f211c13c08",
          "topics": [
            "0x4f789d71cf9bf031ea385e257e27301375dc3ceca1da7c27aae67810ecdc6a52"
          ],
          "data": "0x000000000000000000000000d905d7cf21c771ddbac9f0a7236ddfd2a7e637260000000000000000000000000000000000000000000000000000000000002710",
          "blockHash": "0x31e49ac36300a6598ba18e45fad342f255bf8f3dfb3db1c55a1cf4bbf8bd4a9e",
          "blockNumber": "0x581799",
          "transactionHash": "0x810a9176e3a69c52297ab0c7598afe3d0e0c58d0697583fc83df2568af6579f8",
          "transactionIndex": "0x61",
          "logIndex": "0x76",
          "removed": false
        }
      ],
      "logsBloom": "0x00000000000000000000000000000000000000000000040000000000000000000000000000000000000000000000000800000000000040000000000000000000000000000000000000000001000000000000000004000000000000000000000000000000000000000000000000000000000000000000000000000000000000000000000000000000000000000000000000000000000000000000000000000000000000000000000000000000000000000000000000000000000000000000000000000000000000000000000000000000000000000000000000000000000200000000000000000000000000000000000000000000000000000000000000000000",
      "type": "0x0",
      "transactionHash": "0x810a9176e3a69c52297ab0c7598afe3d0e0c58d0697583fc83df2568af6579f8",
      "transactionIndex": "0x61",
      "blockHash": "0x31e49ac36300a6598ba18e45fad342f255bf8f3dfb3db1c55a1cf4bbf8bd4a9e",
      "blockNumber": "0x581799",
      "gasUsed": "0x63d9",
      "effectiveGasPrice": "0xaabfa638",
      "from": "0x5803cdb747e1552be21c5fca63228aa3d2622873",
      "to": "0x6e821cb51fa7a81c213452b1dfc9d7f211c13c08",
      "contractAddress": null
    }
  ],
  "libraries": [],
  "pending": [],
  "returns": {},
  "timestamp": 1714091175,
  "chain": 11155111,
  "commit": "9c02021"
}